{
  "_format": "hh-sol-artifact-1",
  "contractName": "MockStarknetMessaging",
  "sourceName": "solidity/mocks/MockStarknetMessaging.sol",
  "abi": [
    {
      "inputs": [
        {
          "internalType": "uint256",
          "name": "MessageCancellationDelay",
          "type": "uint256"
        }
      ],
      "stateMutability": "nonpayable",
      "type": "constructor"
    },
    {
      "anonymous": false,
      "inputs": [
        {
          "indexed": true,
          "internalType": "uint256",
          "name": "fromAddress",
          "type": "uint256"
        },
        {
          "indexed": true,
          "internalType": "address",
          "name": "toAddress",
          "type": "address"
        },
        {
          "indexed": false,
          "internalType": "uint256[]",
          "name": "payload",
          "type": "uint256[]"
        }
      ],
      "name": "ConsumedMessageToL1",
      "type": "event"
    },
    {
      "anonymous": false,
      "inputs": [
        {
          "indexed": true,
          "internalType": "address",
          "name": "fromAddress",
          "type": "address"
        },
        {
          "indexed": true,
          "internalType": "uint256",
          "name": "toAddress",
          "type": "uint256"
        },
        {
          "indexed": true,
          "internalType": "uint256",
          "name": "selector",
          "type": "uint256"
        },
        {
          "indexed": false,
          "internalType": "uint256[]",
          "name": "payload",
          "type": "uint256[]"
        },
        {
          "indexed": false,
          "internalType": "uint256",
          "name": "nonce",
          "type": "uint256"
        }
      ],
      "name": "ConsumedMessageToL2",
      "type": "event"
    },
    {
      "anonymous": false,
      "inputs": [
        {
          "indexed": true,
          "internalType": "uint256",
          "name": "fromAddress",
          "type": "uint256"
        },
        {
          "indexed": true,
          "internalType": "address",
          "name": "toAddress",
          "type": "address"
        },
        {
          "indexed": false,
          "internalType": "uint256[]",
          "name": "payload",
          "type": "uint256[]"
        }
      ],
      "name": "LogMessageToL1",
      "type": "event"
    },
    {
      "anonymous": false,
      "inputs": [
        {
          "indexed": true,
          "internalType": "address",
          "name": "fromAddress",
          "type": "address"
        },
        {
          "indexed": true,
          "internalType": "uint256",
          "name": "toAddress",
          "type": "uint256"
        },
        {
          "indexed": true,
          "internalType": "uint256",
          "name": "selector",
          "type": "uint256"
        },
        {
          "indexed": false,
          "internalType": "uint256[]",
          "name": "payload",
          "type": "uint256[]"
        },
        {
          "indexed": false,
          "internalType": "uint256",
          "name": "nonce",
          "type": "uint256"
        },
        {
          "indexed": false,
          "internalType": "uint256",
          "name": "fee",
          "type": "uint256"
        }
      ],
      "name": "LogMessageToL2",
      "type": "event"
    },
    {
      "anonymous": false,
      "inputs": [
        {
          "indexed": true,
          "internalType": "address",
          "name": "fromAddress",
          "type": "address"
        },
        {
          "indexed": true,
          "internalType": "uint256",
          "name": "toAddress",
          "type": "uint256"
        },
        {
          "indexed": true,
          "internalType": "uint256",
          "name": "selector",
          "type": "uint256"
        },
        {
          "indexed": false,
          "internalType": "uint256[]",
          "name": "payload",
          "type": "uint256[]"
        },
        {
          "indexed": false,
          "internalType": "uint256",
          "name": "nonce",
          "type": "uint256"
        }
      ],
      "name": "MessageToL2Canceled",
      "type": "event"
    },
    {
      "anonymous": false,
      "inputs": [
        {
          "indexed": true,
          "internalType": "address",
          "name": "fromAddress",
          "type": "address"
        },
        {
          "indexed": true,
          "internalType": "uint256",
          "name": "toAddress",
          "type": "uint256"
        },
        {
          "indexed": true,
          "internalType": "uint256",
          "name": "selector",
          "type": "uint256"
        },
        {
          "indexed": false,
          "internalType": "uint256[]",
          "name": "payload",
          "type": "uint256[]"
        },
        {
          "indexed": false,
          "internalType": "uint256",
          "name": "nonce",
          "type": "uint256"
        }
      ],
      "name": "MessageToL2CancellationStarted",
      "type": "event"
    },
    {
      "inputs": [
        {
          "internalType": "uint256",
          "name": "toAddress",
          "type": "uint256"
        },
        {
          "internalType": "uint256",
          "name": "selector",
          "type": "uint256"
        },
        {
          "internalType": "uint256[]",
          "name": "payload",
          "type": "uint256[]"
        },
        {
          "internalType": "uint256",
          "name": "nonce",
          "type": "uint256"
        }
      ],
      "name": "cancelL1ToL2Message",
      "outputs": [
        {
          "internalType": "bytes32",
          "name": "",
          "type": "bytes32"
        }
      ],
      "stateMutability": "nonpayable",
      "type": "function"
    },
    {
      "inputs": [
        {
          "internalType": "uint256",
          "name": "fromAddress",
          "type": "uint256"
        },
        {
          "internalType": "uint256[]",
          "name": "payload",
          "type": "uint256[]"
        }
      ],
      "name": "consumeMessageFromL2",
      "outputs": [
        {
          "internalType": "bytes32",
          "name": "",
          "type": "bytes32"
        }
      ],
      "stateMutability": "nonpayable",
      "type": "function"
    },
    {
      "inputs": [],
      "name": "getMaxL1MsgFee",
      "outputs": [
        {
          "internalType": "uint256",
          "name": "",
          "type": "uint256"
        }
      ],
      "stateMutability": "pure",
      "type": "function"
    },
    {
      "inputs": [
        {
          "internalType": "bytes32",
          "name": "msgHash",
          "type": "bytes32"
        }
      ],
      "name": "l1ToL2MessageCancellations",
      "outputs": [
        {
          "internalType": "uint256",
          "name": "",
          "type": "uint256"
        }
      ],
      "stateMutability": "view",
      "type": "function"
    },
    {
      "inputs": [],
      "name": "l1ToL2MessageNonce",
      "outputs": [
        {
          "internalType": "uint256",
          "name": "",
          "type": "uint256"
        }
      ],
      "stateMutability": "view",
      "type": "function"
    },
    {
      "inputs": [
        {
          "internalType": "bytes32",
          "name": "msgHash",
          "type": "bytes32"
        }
      ],
      "name": "l1ToL2Messages",
      "outputs": [
        {
          "internalType": "uint256",
          "name": "",
          "type": "uint256"
        }
      ],
      "stateMutability": "view",
      "type": "function"
    },
    {
      "inputs": [
        {
          "internalType": "bytes32",
          "name": "msgHash",
          "type": "bytes32"
        }
      ],
      "name": "l2ToL1Messages",
      "outputs": [
        {
          "internalType": "uint256",
          "name": "",
          "type": "uint256"
        }
      ],
      "stateMutability": "view",
      "type": "function"
    },
    {
      "inputs": [],
      "name": "messageCancellationDelay",
      "outputs": [
        {
          "internalType": "uint256",
          "name": "",
          "type": "uint256"
        }
      ],
      "stateMutability": "view",
      "type": "function"
    },
    {
      "inputs": [
        {
          "internalType": "uint256",
          "name": "fromAddress",
          "type": "uint256"
        },
        {
          "internalType": "uint256",
          "name": "toAddress",
          "type": "uint256"
        },
        {
          "internalType": "uint256",
          "name": "selector",
          "type": "uint256"
        },
        {
          "internalType": "uint256[]",
          "name": "payload",
          "type": "uint256[]"
        },
        {
          "internalType": "uint256",
          "name": "nonce",
          "type": "uint256"
        }
      ],
      "name": "mockConsumeMessageToL2",
      "outputs": [],
      "stateMutability": "nonpayable",
      "type": "function"
    },
    {
      "inputs": [
        {
          "internalType": "uint256",
          "name": "fromAddress",
          "type": "uint256"
        },
        {
          "internalType": "uint256",
          "name": "toAddress",
          "type": "uint256"
        },
        {
          "internalType": "uint256[]",
          "name": "payload",
          "type": "uint256[]"
        }
      ],
      "name": "mockSendMessageFromL2",
      "outputs": [],
      "stateMutability": "nonpayable",
      "type": "function"
    },
    {
      "inputs": [
        {
          "internalType": "uint256",
          "name": "toAddress",
          "type": "uint256"
        },
        {
          "internalType": "uint256",
          "name": "selector",
          "type": "uint256"
        },
        {
          "internalType": "uint256[]",
          "name": "payload",
          "type": "uint256[]"
        }
      ],
      "name": "sendMessageToL2",
      "outputs": [
        {
          "internalType": "bytes32",
          "name": "",
          "type": "bytes32"
        },
        {
          "internalType": "uint256",
          "name": "",
          "type": "uint256"
        }
      ],
      "stateMutability": "payable",
      "type": "function"
    },
    {
      "inputs": [
        {
          "internalType": "uint256",
          "name": "toAddress",
          "type": "uint256"
        },
        {
          "internalType": "uint256",
          "name": "selector",
          "type": "uint256"
        },
        {
          "internalType": "uint256[]",
          "name": "payload",
          "type": "uint256[]"
        },
        {
          "internalType": "uint256",
          "name": "nonce",
          "type": "uint256"
        }
      ],
      "name": "startL1ToL2MessageCancellation",
      "outputs": [
        {
          "internalType": "bytes32",
          "name": "",
          "type": "bytes32"
        }
      ],
      "stateMutability": "nonpayable",
      "type": "function"
    }
  ],
  "bytecode": "0x60806040523480156200001157600080fd5b506040516200126c3803806200126c8339810160408190526200003491620000ae565b6200003f8162000046565b5062000106565b620000766040518060600160405280602d81526020016200123f602d9139826200007960201b62000b3b1760201c565b50565b6000826040516020016200008e9190620000c8565b604051602081830303815290604052805190602001209050818155505050565b600060208284031215620000c157600080fd5b5051919050565b6000825160005b81811015620000eb5760208186018101518583015201620000cf565b81811115620000fb576000828501525b509190910192915050565b61112980620001166000396000f3fe6080604052600436106100c75760003560e01c806377c7d7a9116100745780639be446bf1161004e5780639be446bf146101ee578063a46efaf31461020e578063d1fb15091461022e57600080fd5b806377c7d7a9146101995780637a98660b146101b95780638303bd8a146101d957600080fd5b80633e3aa6c5116100a55780633e3aa6c51461013657806354eccba41461015e5780636170ff1b1461017957600080fd5b8063018cccdf146100cc578063067aba99146100f45780632c9dd5c014610116575b600080fd5b3480156100d857600080fd5b506100e161024e565b6040519081526020015b60405180910390f35b34801561010057600080fd5b5061011461010f366004610d03565b610293565b005b34801561012257600080fd5b506100e1610131366004610d6c565b610371565b610149610144366004610db8565b6104b1565b604080519283526020830191909152016100eb565b34801561016a57600080fd5b50670de0b6b3a76400006100e1565b34801561018557600080fd5b506100e1610194366004610e0b565b6106a3565b3480156101a557600080fd5b506100e16101b4366004610e66565b610971565b3480156101c557600080fd5b506100e16101d4366004610e0b565b61098c565b3480156101e557600080fd5b506100e1610a9a565b3480156101fa57600080fd5b506100e1610209366004610e66565b610abd565b34801561021a57600080fd5b506100e1610229366004610e66565b610ac7565b34801561023a57600080fd5b50610114610249366004610db8565b610ad1565b600061028e6040518060400160405280602081526020017f535441524b4e45545f312e305f4d5347494e475f4c31544f4c325f4e4f4e4345815250610b6e565b905090565b6040516000906102b390889088908590899088908a908290602001610ec5565b60405160208183030381529060405280519060200120905060006102d5610bc0565b6000838152602091909152604090205411610351576040517f08c379a000000000000000000000000000000000000000000000000000000000815260206004820152601a60248201527f494e56414c49445f4d4553534147455f544f5f434f4e53554d4500000000000060448201526064015b60405180910390fd5b600061035b610bc0565b6000928352602052604090912055505050505050565b604051600090819061038f9086903390869088908290602001610efd565b60405160208183030381529060405280519060200120905060006103b1610be3565b6000838152602091909152604090205411610428576040517f08c379a000000000000000000000000000000000000000000000000000000000815260206004820152601a60248201527f494e56414c49445f4d4553534147455f544f5f434f4e53554d450000000000006044820152606401610348565b3373ffffffffffffffffffffffffffffffffffffffff16857f7a06c571aa77f34d9706c51e5d8122b5595aebeaa34233bfe866f22befb973b18686604051610471929190610f76565b60405180910390a36001610483610be3565b600083815260200190815260200160002060008282546104a39190610fc1565b909155509095945050505050565b60008060003411610544576040517f08c379a000000000000000000000000000000000000000000000000000000000815260206004820152602160248201527f4c315f4d53475f4645455f4d5553545f42455f475245415445525f5448414e5f60448201527f30000000000000000000000000000000000000000000000000000000000000006064820152608401610348565b670de0b6b3a76400003411156105b6576040517f08c379a000000000000000000000000000000000000000000000000000000000815260206004820152601760248201527f4d41585f4c315f4d53475f4645455f45584345454445440000000000000000006044820152606401610348565b60006105c061024e565b905061060d6040518060400160405280602081526020017f535441524b4e45545f312e305f4d5347494e475f4c31544f4c325f4e4f4e43458152508260016106089190610fd8565b610b3b565b85873373ffffffffffffffffffffffffffffffffffffffff167fdb80dd488acf86d17c747445b0eabb5d57c541d3bd7b6b87af987858e5066b2b8888863460405161065b9493929190610ff0565b60405180910390a460006106728888888886610c06565b905061067f346001610fd8565b610687610bc0565b6000838152602091909152604090205597909650945050505050565b600084863373ffffffffffffffffffffffffffffffffffffffff167f8abd2ec2e0a10c82f5b60ea00455fa96c41fd144f225fcc52b8d83d94f803ed88787876040516106f193929190611017565b60405180910390a460006107088787878787610c06565b90506000610714610bc0565b60008381526020919091526040812054915081900361078f576040517f08c379a000000000000000000000000000000000000000000000000000000000815260206004820152601460248201527f4e4f5f4d4553534147455f544f5f43414e43454c0000000000000000000000006044820152606401610348565b6000610799610c47565b60008481526020919091526040812054915081900361083a576040517f08c379a000000000000000000000000000000000000000000000000000000000815260206004820152602260248201527f4d4553534147455f43414e43454c4c4154494f4e5f4e4f545f5245515545535460448201527f45440000000000000000000000000000000000000000000000000000000000006064820152608401610348565b6000610844610a9a565b61084e9083610fd8565b9050818110156108ba576040517f08c379a000000000000000000000000000000000000000000000000000000000815260206004820152601c60248201527f43414e43454c5f414c4c4f5745445f54494d455f4f564552464c4f57000000006044820152606401610348565b80421015610949576040517f08c379a0000000000000000000000000000000000000000000000000000000008152602060048201526024808201527f4d4553534147455f43414e43454c4c4154494f4e5f4e4f545f414c4c4f57454460448201527f5f594554000000000000000000000000000000000000000000000000000000006064820152608401610348565b6000610953610bc0565b60008681526020919091526040902055509198975050505050505050565b600061097b610bc0565b600092835260205250604090205490565b600084863373ffffffffffffffffffffffffffffffffffffffff167f2e00dccd686fd6823ec7dc3e125582aa82881b6ff5f6b5a73856e1ea8338a3be8787876040516109da93929190611017565b60405180910390a460006109f18787878787610c06565b905060006109fd610bc0565b60008381526020919091526040902054905080610a76576040517f08c379a000000000000000000000000000000000000000000000000000000000815260206004820152601460248201527f4e4f5f4d4553534147455f544f5f43414e43454c0000000000000000000000006044820152606401610348565b42610a7f610c47565b60008481526020919091526040902055509695505050505050565b600061028e6040518060600160405280602d81526020016110a7602d9139610b6e565b600061097b610c47565b600061097b610be3565b604051600090610aed9086908690859087908290602001610efd565b6040516020818303038152906040528051906020012090506001610b0f610be3565b60008381526020019081526020016000206000828254610b2f9190610fd8565b90915550505050505050565b600082604051602001610b4e919061103b565b604051602081830303815290604052805190602001209050818155505050565b60008082604051602001610b82919061103b565b604080517fffffffffffffffffffffffffffffffffffffffffffffffffffffffffffffffe08184030181529190528051602090910120549392505050565b600061028e6040518060600160405280602681526020016110f760269139610c66565b600061028e6040518060600160405280602381526020016110d460239139610c66565b604051600090610c2690339088908590899088908a908290602001610ec5565b60405160208183030381529060405280519060200120905095945050505050565b600061028e604051806060016040528060308152602001611077603091395b60008082604051602001610c7a919061103b565b604080517fffffffffffffffffffffffffffffffffffffffffffffffffffffffffffffffe081840301815291905280516020909101209392505050565b60008083601f840112610cc957600080fd5b50813567ffffffffffffffff811115610ce157600080fd5b6020830191508360208260051b8501011115610cfc57600080fd5b9250929050565b60008060008060008060a08789031215610d1c57600080fd5b863595506020870135945060408701359350606087013567ffffffffffffffff811115610d4857600080fd5b610d5489828a01610cb7565b979a9699509497949695608090950135949350505050565b600080600060408486031215610d8157600080fd5b83359250602084013567ffffffffffffffff811115610d9f57600080fd5b610dab86828701610cb7565b9497909650939450505050565b60008060008060608587031215610dce57600080fd5b8435935060208501359250604085013567ffffffffffffffff811115610df357600080fd5b610dff87828801610cb7565b95989497509550505050565b600080600080600060808688031215610e2357600080fd5b8535945060208601359350604086013567ffffffffffffffff811115610e4857600080fd5b610e5488828901610cb7565b96999598509660600135949350505050565b600060208284031215610e7857600080fd5b5035919050565b60007f07ffffffffffffffffffffffffffffffffffffffffffffffffffffffffffffff831115610eae57600080fd5b8260051b8083863760009401938452509192915050565b8781528660208201528560408201528460608201528360808201526000610ef060a083018486610e7f565b9998505050505050505050565b8581528460208201528360408201526000610f1c606083018486610e7f565b979650505050505050565b81835260007f07ffffffffffffffffffffffffffffffffffffffffffffffffffffffffffffff831115610f5957600080fd5b8260051b8083602087013760009401602001938452509192915050565b602081526000610f8a602083018486610f27565b949350505050565b7f4e487b7100000000000000000000000000000000000000000000000000000000600052601160045260246000fd5b600082821015610fd357610fd3610f92565b500390565b60008219821115610feb57610feb610f92565b500190565b606081526000611004606083018688610f27565b6020830194909452506040015292915050565b60408152600061102b604083018587610f27565b9050826020830152949350505050565b6000825160005b8181101561105c5760208186018101518583015201611042565b8181111561106b576000828501525b50919091019291505056fe535441524b4e45545f312e305f4d5347494e475f4c31544f4c325f43414e43454c4c4154494f4e5f4d41505050494e47535441524b4e45545f312e305f4d5347494e475f4c31544f4c325f43414e43454c4c4154494f4e5f44454c4159535441524b4e45545f312e305f4d5347494e475f4c32544f4c315f4d41505050494e47535441524b4e45545f312e305f4d5347494e475f4c31544f4c325f4d41505050494e475f5632a164736f6c634300080f000a535441524b4e45545f312e305f4d5347494e475f4c31544f4c325f43414e43454c4c4154494f4e5f44454c4159",
  "linkReferences": {},
  "deployedLinkReferences": {}
}