{"solidity/emergency/StarknetValidator.sol":{"StarknetValidator":{"abi":[{"inputs":[{"internalType":"address","name":"starknetMessaging","type":"address"},{"internalType":"address","name":"configAC","type":"address"},{"internalType":"address","name":"gasPriceL1Feed","type":"address"},{"internalType":"address","name":"source","type":"address"},{"internalType":"uint256","name":"l2Feed","type":"uint256"},{"internalType":"uint256","name":"gasEstimate","type":"uint256"},{"internalType":"uint32","name":"gasAdjustment","type":"uint32"}],"stateMutability":"nonpayable","type":"constructor"},{"inputs":[],"name":"AccessForbidden","type":"error"},{"inputs":[],"name":"InvalidGasPriceL1FeedAddress","type":"error"},{"inputs":[],"name":"InvalidL2FeedAddress","type":"error"},{"inputs":[],"name":"InvalidSourceAggregatorAddress","type":"error"},{"inputs":[],"name":"InvalidStarknetMessagingAddress","type":"error"},{"anonymous":false,"inputs":[{"indexed":false,"internalType":"address","name":"user","type":"address"}],"name":"AddedAccess","type":"event"},{"anonymous":false,"inputs":[],"name":"CheckAccessDisabled","type":"event"},{"anonymous":false,"inputs":[],"name":"CheckAccessEnabled","type":"event"},{"anonymous":false,"inputs":[{"indexed":true,"internalType":"address","name":"previous","type":"address"},{"indexed":true,"internalType":"address","name":"current","type":"address"}],"name":"ConfigACSet","type":"event"},{"anonymous":false,"inputs":[{"indexed":true,"internalType":"address","name":"recipient","type":"address"},{"indexed":false,"internalType":"uint256","name":"amount","type":"uint256"}],"name":"FundsWithdrawn","type":"event"},{"anonymous":false,"inputs":[{"indexed":false,"internalType":"uint256","name":"gasEstimate","type":"uint256"},{"indexed":true,"internalType":"address","name":"gasPriceL1Feed","type":"address"},{"indexed":false,"internalType":"uint32","name":"gasAdjustment","type":"uint32"}],"name":"GasConfigSet","type":"event"},{"anonymous":false,"inputs":[{"indexed":true,"internalType":"address","name":"from","type":"address"},{"indexed":true,"internalType":"address","name":"to","type":"address"}],"name":"OwnershipTransferRequested","type":"event"},{"anonymous":false,"inputs":[{"indexed":true,"internalType":"address","name":"from","type":"address"},{"indexed":true,"internalType":"address","name":"to","type":"address"}],"name":"OwnershipTransferred","type":"event"},{"anonymous":false,"inputs":[{"indexed":false,"internalType":"address","name":"user","type":"address"}],"name":"RemovedAccess","type":"event"},{"anonymous":false,"inputs":[{"indexed":true,"internalType":"address","name":"previous","type":"address"},{"indexed":true,"internalType":"address","name":"current","type":"address"}],"name":"SourceAggregatorSet","type":"event"},{"inputs":[],"name":"L2_UPTIME_FEED_ADDR","outputs":[{"internalType":"uint256","name":"","type":"uint256"}],"stateMutability":"view","type":"function"},{"inputs":[],"name":"SELECTOR_STARK_UPDATE_STATUS","outputs":[{"internalType":"uint256","name":"","type":"uint256"}],"stateMutability":"view","type":"function"},{"inputs":[],"name":"STARKNET_CROSS_DOMAIN_MESSENGER","outputs":[{"internalType":"contract IStarknetMessaging","name":"","type":"address"}],"stateMutability":"view","type":"function"},{"inputs":[],"name":"acceptOwnership","outputs":[],"stateMutability":"nonpayable","type":"function"},{"inputs":[{"internalType":"address","name":"_user","type":"address"}],"name":"addAccess","outputs":[],"stateMutability":"nonpayable","type":"function"},{"inputs":[],"name":"approximateGasPrice","outputs":[{"internalType":"uint256","name":"","type":"uint256"}],"stateMutability":"view","type":"function"},{"inputs":[],"name":"checkEnabled","outputs":[{"internalType":"bool","name":"","type":"bool"}],"stateMutability":"view","type":"function"},{"inputs":[],"name":"disableAccessCheck","outputs":[],"stateMutability":"nonpayable","type":"function"},{"inputs":[],"name":"enableAccessCheck","outputs":[],"stateMutability":"nonpayable","type":"function"},{"inputs":[],"name":"getConfigAC","outputs":[{"internalType":"address","name":"","type":"address"}],"stateMutability":"view","type":"function"},{"inputs":[],"name":"getGasConfig","outputs":[{"components":[{"internalType":"uint256","name":"gasEstimate","type":"uint256"},{"internalType":"address","name":"gasPriceL1Feed","type":"address"},{"internalType":"uint32","name":"gasAdjustment","type":"uint32"}],"internalType":"struct StarknetValidator.GasConfig","name":"","type":"tuple"}],"stateMutability":"view","type":"function"},{"inputs":[],"name":"getSourceAggregator","outputs":[{"internalType":"address","name":"","type":"address"}],"stateMutability":"view","type":"function"},{"inputs":[{"internalType":"address","name":"_user","type":"address"},{"internalType":"bytes","name":"","type":"bytes"}],"name":"hasAccess","outputs":[{"internalType":"bool","name":"","type":"bool"}],"stateMutability":"view","type":"function"},{"inputs":[],"name":"owner","outputs":[{"internalType":"address","name":"","type":"address"}],"stateMutability":"view","type":"function"},{"inputs":[{"internalType":"address","name":"_user","type":"address"}],"name":"removeAccess","outputs":[],"stateMutability":"nonpayable","type":"function"},{"inputs":[],"name":"retry","outputs":[{"internalType":"bool","name":"","type":"bool"}],"stateMutability":"nonpayable","type":"function"},{"inputs":[{"internalType":"address","name":"accessController","type":"address"}],"name":"setConfigAC","outputs":[],"stateMutability":"nonpayable","type":"function"},{"inputs":[{"internalType":"uint256","name":"gasEstimate","type":"uint256"},{"internalType":"address","name":"gasPriceL1Feed","type":"address"},{"internalType":"uint32","name":"gasAdjustment","type":"uint32"}],"name":"setGasConfig","outputs":[],"stateMutability":"nonpayable","type":"function"},{"inputs":[{"internalType":"address","name":"source","type":"address"}],"name":"setSourceAggregator","outputs":[],"stateMutability":"nonpayable","type":"function"},{"inputs":[{"internalType":"address","name":"to","type":"address"}],"name":"transferOwnership","outputs":[],"stateMutability":"nonpayable","type":"function"},{"inputs":[],"name":"typeAndVersion","outputs":[{"internalType":"string","name":"","type":"string"}],"stateMutability":"pure","type":"function"},{"inputs":[{"internalType":"uint256","name":"","type":"uint256"},{"internalType":"int256","name":"","type":"int256"},{"internalType":"uint256","name":"","type":"uint256"},{"internalType":"int256","name":"currentAnswer","type":"int256"}],"name":"validate","outputs":[{"internalType":"bool","name":"","type":"bool"}],"stateMutability":"nonpayable","type":"function"},{"inputs":[],"name":"withdrawFunds","outputs":[],"stateMutability":"nonpayable","type":"function"},{"inputs":[{"internalType":"address payable","name":"recipient","type":"address"}],"name":"withdrawFundsTo","outputs":[],"stateMutability":"nonpayable","type":"function"},{"stateMutability":"payable","type":"receive"}],"evm":{"bytecode":{"linkReferences":{},"object":"610120604052600d60e09081526c7570646174655f73746174757360981b610100526200002c906200018b565b6080523480156200003c57600080fd5b5060405162001f6e38038062001f6e8339810160408190526200005f9162000445565b3380600081620000b65760405162461bcd60e51b815260206004820152601860248201527f43616e6e6f7420736574206f776e657220746f207a65726f000000000000000060448201526064015b60405180910390fd5b600080546001600160a01b0319166001600160a01b0384811691909117909155811615620000e957620000e981620001d2565b50506001805460ff60a01b1916600160a01b179055506001600160a01b03871662000127576040516380d0cc4760e01b815260040160405180910390fd5b8260000362000149576040516340507b9360e11b815260040160405180910390fd5b6001600160a01b03871660c05260a083905262000166846200027d565b62000171866200030f565b6200017e82868362000378565b5050505050505062000535565b60008082604051602001620001a19190620004d4565b60408051601f1981840301815291905280516020909101209050620001cb600160fa1b8262000512565b9392505050565b336001600160a01b038216036200022c5760405162461bcd60e51b815260206004820152601760248201527f43616e6e6f74207472616e7366657220746f2073656c660000000000000000006044820152606401620000ad565b600180546001600160a01b0319166001600160a01b0383811691821790925560008054604051929316917fed8889f560326eb138920d842192f0eb3dd22b4f139c87a2c57538e05bae12789190a350565b6001600160a01b038116620002a55760405163012ba50d60e51b815260040160405180910390fd5b6003546001600160a01b0390811690821681146200030b57600380546001600160a01b0319166001600160a01b0384811691821790925560405190918316907f5096ba7c83970476520960b162504c4cb0bf39b3388cf27a24a44acadb18f0f790600090a35b5050565b6004546001600160a01b0390811690821681146200030b57600480546001600160a01b0319166001600160a01b0384811691821790925560405190918316907f6b0ce63879b19fa36f93da30a36f44140d8c3c727b6c75a16165c2017037d2cc90600090a35050565b6001600160a01b038216620003a05760405163694f903760e11b815260040160405180910390fd5b604080516060810182528481526001600160a01b038416602080830182905263ffffffff85169284018390526005879055600680546001600160c01b0319168317600160a01b8502179055835187815290810192909252917f839a37b5b1cd70bfbeb28899e2ab5fe4cddb2731435190bd54f2e2924b84b77b910160405180910390a2505050565b80516001600160a01b03811681146200044057600080fd5b919050565b600080600080600080600060e0888a0312156200046157600080fd5b6200046c8862000428565b96506200047c6020890162000428565b95506200048c6040890162000428565b94506200049c6060890162000428565b93506080880151925060a0880151915060c088015163ffffffff81168114620004c457600080fd5b8091505092959891949750929550565b6000825160005b81811015620004f75760208186018101518583015201620004db565b8181111562000507576000828501525b509190910192915050565b6000826200053057634e487b7160e01b600052601260045260246000fd5b500690565b60805160a05160c0516119f46200057a60003960008181610585015261119901526000818161023501526111c80152600081816102d801526111ea01526119f46000f3fe60806040526004361061018f5760003560e01c80638823da6c116100d6578063dc7f01241161007f578063f6d6379011610059578063f6d6379014610573578063fae8fb2c146105a7578063fe212f7d146105bc57600080fd5b8063dc7f012414610501578063ec86b00c14610533578063f2fde38b1461055357600080fd5b8063a2e6e0eb116100b0578063a2e6e0eb14610496578063beed9b51146104b6578063cfc6ab87146104d657600080fd5b80638823da6c1461042b5780638da5cb5b1461044b578063a118f2491461047657600080fd5b80632eef1711116101385780636b14daf8116101125780636b14daf8146103d157806379ba5097146104015780638038e4a11461041657600080fd5b80632eef1711146102c65780634b5c54c0146102fa5780636242a62d146103bc57600080fd5b8063122555ff11610169578063122555ff14610223578063181f5a771461026557806324600fc3146102b157600080fd5b806302163e6c1461019b5780630a756983146101bd5780631108d587146101d257600080fd5b3661019657005b600080fd5b3480156101a757600080fd5b506101bb6101b6366004611587565b6105dc565b005b3480156101c957600080fd5b506101bb6105f0565b3480156101de57600080fd5b5060045473ffffffffffffffffffffffffffffffffffffffff165b60405173ffffffffffffffffffffffffffffffffffffffff90911681526020015b60405180910390f35b34801561022f57600080fd5b506102577f000000000000000000000000000000000000000000000000000000000000000081565b60405190815260200161021a565b34801561027157600080fd5b50604080518082018252601781527f537461726b6e657456616c696461746f7220302e312e300000000000000000006020820152905161021a91906115a4565b3480156102bd57600080fd5b506101bb61066f565b3480156102d257600080fd5b506102577f000000000000000000000000000000000000000000000000000000000000000081565b34801561030657600080fd5b5061037e60408051606081018252600080825260208201819052918101919091525060408051606081018252600554815260065473ffffffffffffffffffffffffffffffffffffffff8116602083015274010000000000000000000000000000000000000000900463ffffffff169181019190915290565b604080518251815260208084015173ffffffffffffffffffffffffffffffffffffffff16908201529181015163ffffffff169082015260600161021a565b3480156103c857600080fd5b506102576106d7565b3480156103dd57600080fd5b506103f16103ec366004611646565b6107b4565b604051901515815260200161021a565b34801561040d57600080fd5b506101bb61080a565b34801561042257600080fd5b506101bb61090c565b34801561043757600080fd5b506101bb610446366004611587565b6109a0565b34801561045757600080fd5b5060005473ffffffffffffffffffffffffffffffffffffffff166101f9565b34801561048257600080fd5b506101bb610491366004611587565b610a59565b3480156104a257600080fd5b506101bb6104b1366004611587565b610b0d565b3480156104c257600080fd5b506103f16104d1366004611728565b610b20565b3480156104e257600080fd5b5060035473ffffffffffffffffffffffffffffffffffffffff166101f9565b34801561050d57600080fd5b506001546103f19074010000000000000000000000000000000000000000900460ff1681565b34801561053f57600080fd5b506101bb61054e366004611587565b610bdb565b34801561055f57600080fd5b506101bb61056e366004611587565b610bec565b34801561057f57600080fd5b506101f97f000000000000000000000000000000000000000000000000000000000000000081565b3480156105b357600080fd5b506103f1610bfd565b3480156105c857600080fd5b506101bb6105d736600461175a565b610d49565b6105e4610e72565b6105ed81610ef3565b50565b6105f8610e72565b60015474010000000000000000000000000000000000000000900460ff161561066d57600180547fffffffffffffffffffffff00ffffffffffffffffffffffffffffffffffffffff1690556040517f3be8a977a014527b50ae38adda80b56911c267328965c98ddc385d248f53963890600090a15b565b610677610e72565b33476106838282610f8e565b8173ffffffffffffffffffffffffffffffffffffffff167feaff4b37086828766ad3268786972c0cd24259d4c87a80f9d3963a3c3d999b0d826040516106cb91815260200190565b60405180910390a25050565b600080600560010160009054906101000a900473ffffffffffffffffffffffffffffffffffffffff1673ffffffffffffffffffffffffffffffffffffffff1663feaf968c6040518163ffffffff1660e01b815260040160a060405180830381865afa15801561074a573d6000803e3d6000fd5b505050506040513d601f19601f8201168201806040525081019061076e91906117c4565b5050600654919350606492506107a49174010000000000000000000000000000000000000000900463ffffffff16905083611814565b6107ae9190611878565b91505090565b73ffffffffffffffffffffffffffffffffffffffff821660009081526002602052604081205460ff1680610803575060015474010000000000000000000000000000000000000000900460ff16155b9392505050565b60015473ffffffffffffffffffffffffffffffffffffffff163314610890576040517f08c379a000000000000000000000000000000000000000000000000000000000815260206004820152601660248201527f4d7573742062652070726f706f736564206f776e65720000000000000000000060448201526064015b60405180910390fd5b60008054337fffffffffffffffffffffffff00000000000000000000000000000000000000008083168217845560018054909116905560405173ffffffffffffffffffffffffffffffffffffffff90921692909183917f8be0079c531659141344cd1fd0a4f28419497f9722a3daafe3b4186f6b6457e091a350565b610914610e72565b60015474010000000000000000000000000000000000000000900460ff1661066d57600180547fffffffffffffffffffffff00ffffffffffffffffffffffffffffffffffffffff16740100000000000000000000000000000000000000001790556040517faebf329500988c6488a0074e5a0a9ff304561fc5c6fc877aeb1d59c8282c348090600090a1565b6109a8610e72565b73ffffffffffffffffffffffffffffffffffffffff811660009081526002602052604090205460ff16156105ed5773ffffffffffffffffffffffffffffffffffffffff811660008181526002602090815260409182902080547fffffffffffffffffffffffffffffffffffffffffffffffffffffffffffffff0016905590519182527f3d68a6fce901d20453d1a7aa06bf3950302a735948037deb182a8db66df2a0d191015b60405180910390a150565b610a61610e72565b73ffffffffffffffffffffffffffffffffffffffff811660009081526002602052604090205460ff166105ed5773ffffffffffffffffffffffffffffffffffffffff811660008181526002602090815260409182902080547fffffffffffffffffffffffffffffffffffffffffffffffffffffffffffffff0016600117905590519182527f87286ad1f399c8e82bf0c4ef4fcdc570ea2e1e92176e5c848b6413545b885db49101610a4e565b610b15610e72565b476106838282610f8e565b6000610b63336000368080601f0160208091040260200160405190810160405280939291908181526020018383808284376000920191909152506107b492505050565b610bc9576040517f08c379a000000000000000000000000000000000000000000000000000000000815260206004820152600960248201527f4e6f2061636365737300000000000000000000000000000000000000000000006044820152606401610887565b610bd2826110e8565b95945050505050565b610be3610e72565b6105ed81611263565b610bf4610e72565b6105ed8161134a565b6000610c40336000368080601f0160208091040260200160405190810160405280939291908181526020018383808284376000920191909152506107b492505050565b610ca6576040517f08c379a000000000000000000000000000000000000000000000000000000000815260206004820152600960248201527f4e6f2061636365737300000000000000000000000000000000000000000000006044820152606401610887565b600354604080517ffeaf968c000000000000000000000000000000000000000000000000000000008152905160009273ffffffffffffffffffffffffffffffffffffffff169163feaf968c9160048083019260a09291908290030181865afa158015610d16573d6000803e3d6000fd5b505050506040513d601f19601f82011682018060405250810190610d3a91906117c4565b5050509150506107ae816110e8565b60005473ffffffffffffffffffffffffffffffffffffffff163314801590610e2b575060045473ffffffffffffffffffffffffffffffffffffffff1615801590610e2b5750600480546040517f6b14daf800000000000000000000000000000000000000000000000000000000815273ffffffffffffffffffffffffffffffffffffffff90911691636b14daf891610de89133916000913691016118b3565b602060405180830381865afa158015610e05573d6000803e3d6000fd5b505050506040513d601f19601f82011682018060405250810190610e29919061191d565b155b15610e62576040517fef67f5d800000000000000000000000000000000000000000000000000000000815260040160405180910390fd5b610e6d83838361143f565b505050565b60005473ffffffffffffffffffffffffffffffffffffffff16331461066d576040517f08c379a000000000000000000000000000000000000000000000000000000000815260206004820152601660248201527f4f6e6c792063616c6c61626c65206279206f776e6572000000000000000000006044820152606401610887565b60045473ffffffffffffffffffffffffffffffffffffffff9081169082168114610f8a57600480547fffffffffffffffffffffffff00000000000000000000000000000000000000001673ffffffffffffffffffffffffffffffffffffffff84811691821790925560405190918316907f6b0ce63879b19fa36f93da30a36f44140d8c3c727b6c75a16165c2017037d2cc90600090a35b5050565b80471015610ff8576040517f08c379a000000000000000000000000000000000000000000000000000000000815260206004820152601d60248201527f416464726573733a20696e73756666696369656e742062616c616e63650000006044820152606401610887565b60008273ffffffffffffffffffffffffffffffffffffffff168260405160006040518083038185875af1925050503d8060008114611052576040519150601f19603f3d011682016040523d82523d6000602084013e611057565b606091505b5050905080610e6d576040517f08c379a000000000000000000000000000000000000000000000000000000000815260206004820152603a60248201527f416464726573733a20756e61626c6520746f2073656e642076616c75652c207260448201527f6563697069656e74206d617920686176652072657665727465640000000000006064820152608401610887565b6000806110f361154a565b60408051600280825260608201835292935060009290916020830190803683370190505090506001841480826000815181106111315761113161193f565b60200260200101818152505042826001815181106111515761115161193f565b60209081029190910101526040517f3e3aa6c500000000000000000000000000000000000000000000000000000000815273ffffffffffffffffffffffffffffffffffffffff7f00000000000000000000000000000000000000000000000000000000000000001690633e3aa6c5908590611214907f0000000000000000000000000000000000000000000000000000000000000000907f000000000000000000000000000000000000000000000000000000000000000090889060040161196e565b604080518083038185885af1158015611231573d6000803e3d6000fd5b50505050506040513d601f19601f8201168201806040525081019061125691906119c3565b5060019695505050505050565b73ffffffffffffffffffffffffffffffffffffffff81166112b0576040517f2574a1a000000000000000000000000000000000000000000000000000000000815260040160405180910390fd5b60035473ffffffffffffffffffffffffffffffffffffffff9081169082168114610f8a57600380547fffffffffffffffffffffffff00000000000000000000000000000000000000001673ffffffffffffffffffffffffffffffffffffffff84811691821790925560405190918316907f5096ba7c83970476520960b162504c4cb0bf39b3388cf27a24a44acadb18f0f790600090a35050565b3373ffffffffffffffffffffffffffffffffffffffff8216036113c9576040517f08c379a000000000000000000000000000000000000000000000000000000000815260206004820152601760248201527f43616e6e6f74207472616e7366657220746f2073656c660000000000000000006044820152606401610887565b600180547fffffffffffffffffffffffff00000000000000000000000000000000000000001673ffffffffffffffffffffffffffffffffffffffff83811691821790925560008054604051929316917fed8889f560326eb138920d842192f0eb3dd22b4f139c87a2c57538e05bae12789190a350565b73ffffffffffffffffffffffffffffffffffffffff821661148c576040517fd29f206e00000000000000000000000000000000000000000000000000000000815260040160405180910390fd5b6040805160608101825284815273ffffffffffffffffffffffffffffffffffffffff8416602080830182905263ffffffff85169284018390526005879055600680547fffffffffffffffff000000000000000000000000000000000000000000000000168317740100000000000000000000000000000000000000008502179055835187815290810192909252917f839a37b5b1cd70bfbeb28899e2ab5fe4cddb2731435190bd54f2e2924b84b77b910160405180910390a2505050565b6000806115556106d7565b6005549091506107ae9082611814565b73ffffffffffffffffffffffffffffffffffffffff811681146105ed57600080fd5b60006020828403121561159957600080fd5b813561080381611565565b600060208083528351808285015260005b818110156115d1578581018301518582016040015282016115b5565b818111156115e3576000604083870101525b50601f017fffffffffffffffffffffffffffffffffffffffffffffffffffffffffffffffe016929092016040019392505050565b7f4e487b7100000000000000000000000000000000000000000000000000000000600052604160045260246000fd5b6000806040838503121561165957600080fd5b823561166481611565565b9150602083013567ffffffffffffffff8082111561168157600080fd5b818501915085601f83011261169557600080fd5b8135818111156116a7576116a7611617565b604051601f82017fffffffffffffffffffffffffffffffffffffffffffffffffffffffffffffffe0908116603f011681019083821181831017156116ed576116ed611617565b8160405282815288602084870101111561170657600080fd5b8260208601602083013760006020848301015280955050505050509250929050565b6000806000806080858703121561173e57600080fd5b5050823594602084013594506040840135936060013592509050565b60008060006060848603121561176f57600080fd5b83359250602084013561178181611565565b9150604084013563ffffffff8116811461179a57600080fd5b809150509250925092565b805169ffffffffffffffffffff811681146117bf57600080fd5b919050565b600080600080600060a086880312156117dc57600080fd5b6117e5866117a5565b9450602086015193506040860151925060608601519150611808608087016117a5565b90509295509295909350565b6000817fffffffffffffffffffffffffffffffffffffffffffffffffffffffffffffffff0483118215151615611873577f4e487b7100000000000000000000000000000000000000000000000000000000600052601160045260246000fd5b500290565b6000826118ae577f4e487b7100000000000000000000000000000000000000000000000000000000600052601260045260246000fd5b500490565b73ffffffffffffffffffffffffffffffffffffffff8416815260406020820152816040820152818360608301376000818301606090810191909152601f9092017fffffffffffffffffffffffffffffffffffffffffffffffffffffffffffffffe016010192915050565b60006020828403121561192f57600080fd5b8151801515811461080357600080fd5b7f4e487b7100000000000000000000000000000000000000000000000000000000600052603260045260246000fd5b6000606082018583526020858185015260606040850152818551808452608086019150828701935060005b818110156119b557845183529383019391830191600101611999565b509098975050505050505050565b600080604083850312156119d657600080fd5b50508051602090910151909290915056fea164736f6c634300080f000a","opcodes":"PUSH2 0x120 PUSH1 0x40 MSTORE PUSH1 0xD PUSH1 0xE0 SWAP1 DUP2 MSTORE PUSH13 0x7570646174655F737461747573 PUSH1 0x98 SHL PUSH2 0x100 MSTORE PUSH3 0x2C SWAP1 PUSH3 0x18B JUMP JUMPDEST PUSH1 0x80 MSTORE CALLVALUE DUP1 ISZERO PUSH3 0x3C JUMPI PUSH1 0x0 DUP1 REVERT JUMPDEST POP PUSH1 0x40 MLOAD PUSH3 0x1F6E CODESIZE SUB DUP1 PUSH3 0x1F6E DUP4 CODECOPY DUP2 ADD PUSH1 0x40 DUP2 SWAP1 MSTORE PUSH3 0x5F SWAP2 PUSH3 0x445 JUMP JUMPDEST CALLER DUP1 PUSH1 0x0 DUP2 PUSH3 0xB6 JUMPI PUSH1 0x40 MLOAD PUSH3 0x461BCD PUSH1 0xE5 SHL DUP2 MSTORE PUSH1 0x20 PUSH1 0x4 DUP3 ADD MSTORE PUSH1 0x18 PUSH1 0x24 DUP3 ADD MSTORE PUSH32 0x43616E6E6F7420736574206F776E657220746F207A65726F0000000000000000 PUSH1 0x44 DUP3 ADD MSTORE PUSH1 0x64 ADD JUMPDEST PUSH1 0x40 MLOAD DUP1 SWAP2 SUB SWAP1 REVERT JUMPDEST PUSH1 0x0 DUP1 SLOAD PUSH1 0x1 PUSH1 0x1 PUSH1 0xA0 SHL SUB NOT AND PUSH1 0x1 PUSH1 0x1 PUSH1 0xA0 SHL SUB DUP5 DUP2 AND SWAP2 SWAP1 SWAP2 OR SWAP1 SWAP2 SSTORE DUP2 AND ISZERO PUSH3 0xE9 JUMPI PUSH3 0xE9 DUP2 PUSH3 0x1D2 JUMP JUMPDEST POP POP PUSH1 0x1 DUP1 SLOAD PUSH1 0xFF PUSH1 0xA0 SHL NOT AND PUSH1 0x1 PUSH1 0xA0 SHL OR SWAP1 SSTORE POP PUSH1 0x1 PUSH1 0x1 PUSH1 0xA0 SHL SUB DUP8 AND PUSH3 0x127 JUMPI PUSH1 0x40 MLOAD PUSH4 0x80D0CC47 PUSH1 0xE0 SHL DUP2 MSTORE PUSH1 0x4 ADD PUSH1 0x40 MLOAD DUP1 SWAP2 SUB SWAP1 REVERT JUMPDEST DUP3 PUSH1 0x0 SUB PUSH3 0x149 JUMPI PUSH1 0x40 MLOAD PUSH4 0x40507B93 PUSH1 0xE1 SHL DUP2 MSTORE PUSH1 0x4 ADD PUSH1 0x40 MLOAD DUP1 SWAP2 SUB SWAP1 REVERT JUMPDEST PUSH1 0x1 PUSH1 0x1 PUSH1 0xA0 SHL SUB DUP8 AND PUSH1 0xC0 MSTORE PUSH1 0xA0 DUP4 SWAP1 MSTORE PUSH3 0x166 DUP5 PUSH3 0x27D JUMP JUMPDEST PUSH3 0x171 DUP7 PUSH3 0x30F JUMP JUMPDEST PUSH3 0x17E DUP3 DUP7 DUP4 PUSH3 0x378 JUMP JUMPDEST POP POP POP POP POP POP POP PUSH3 0x535 JUMP JUMPDEST PUSH1 0x0 DUP1 DUP3 PUSH1 0x40 MLOAD PUSH1 0x20 ADD PUSH3 0x1A1 SWAP2 SWAP1 PUSH3 0x4D4 JUMP JUMPDEST PUSH1 0x40 DUP1 MLOAD PUSH1 0x1F NOT DUP2 DUP5 SUB ADD DUP2 MSTORE SWAP2 SWAP1 MSTORE DUP1 MLOAD PUSH1 0x20 SWAP1 SWAP2 ADD KECCAK256 SWAP1 POP PUSH3 0x1CB PUSH1 0x1 PUSH1 0xFA SHL DUP3 PUSH3 0x512 JUMP JUMPDEST SWAP4 SWAP3 POP POP POP JUMP JUMPDEST CALLER PUSH1 0x1 PUSH1 0x1 PUSH1 0xA0 SHL SUB DUP3 AND SUB PUSH3 0x22C JUMPI PUSH1 0x40 MLOAD PUSH3 0x461BCD PUSH1 0xE5 SHL DUP2 MSTORE PUSH1 0x20 PUSH1 0x4 DUP3 ADD MSTORE PUSH1 0x17 PUSH1 0x24 DUP3 ADD MSTORE PUSH32 0x43616E6E6F74207472616E7366657220746F2073656C66000000000000000000 PUSH1 0x44 DUP3 ADD MSTORE PUSH1 0x64 ADD PUSH3 0xAD JUMP JUMPDEST PUSH1 0x1 DUP1 SLOAD PUSH1 0x1 PUSH1 0x1 PUSH1 0xA0 SHL SUB NOT AND PUSH1 0x1 PUSH1 0x1 PUSH1 0xA0 SHL SUB DUP4 DUP2 AND SWAP2 DUP3 OR SWAP1 SWAP3 SSTORE PUSH1 0x0 DUP1 SLOAD PUSH1 0x40 MLOAD SWAP3 SWAP4 AND SWAP2 PUSH32 0xED8889F560326EB138920D842192F0EB3DD22B4F139C87A2C57538E05BAE1278 SWAP2 SWAP1 LOG3 POP JUMP JUMPDEST PUSH1 0x1 PUSH1 0x1 PUSH1 0xA0 SHL SUB DUP2 AND PUSH3 0x2A5 JUMPI PUSH1 0x40 MLOAD PUSH4 0x12BA50D PUSH1 0xE5 SHL DUP2 MSTORE PUSH1 0x4 ADD PUSH1 0x40 MLOAD DUP1 SWAP2 SUB SWAP1 REVERT JUMPDEST PUSH1 0x3 SLOAD PUSH1 0x1 PUSH1 0x1 PUSH1 0xA0 SHL SUB SWAP1 DUP2 AND SWAP1 DUP3 AND DUP2 EQ PUSH3 0x30B JUMPI PUSH1 0x3 DUP1 SLOAD PUSH1 0x1 PUSH1 0x1 PUSH1 0xA0 SHL SUB NOT AND PUSH1 0x1 PUSH1 0x1 PUSH1 0xA0 SHL SUB DUP5 DUP2 AND SWAP2 DUP3 OR SWAP1 SWAP3 SSTORE PUSH1 0x40 MLOAD SWAP1 SWAP2 DUP4 AND SWAP1 PUSH32 0x5096BA7C83970476520960B162504C4CB0BF39B3388CF27A24A44ACADB18F0F7 SWAP1 PUSH1 0x0 SWAP1 LOG3 JUMPDEST POP POP JUMP JUMPDEST PUSH1 0x4 SLOAD PUSH1 0x1 PUSH1 0x1 PUSH1 0xA0 SHL SUB SWAP1 DUP2 AND SWAP1 DUP3 AND DUP2 EQ PUSH3 0x30B JUMPI PUSH1 0x4 DUP1 SLOAD PUSH1 0x1 PUSH1 0x1 PUSH1 0xA0 SHL SUB NOT AND PUSH1 0x1 PUSH1 0x1 PUSH1 0xA0 SHL SUB DUP5 DUP2 AND SWAP2 DUP3 OR SWAP1 SWAP3 SSTORE PUSH1 0x40 MLOAD SWAP1 SWAP2 DUP4 AND SWAP1 PUSH32 0x6B0CE63879B19FA36F93DA30A36F44140D8C3C727B6C75A16165C2017037D2CC SWAP1 PUSH1 0x0 SWAP1 LOG3 POP POP JUMP JUMPDEST PUSH1 0x1 PUSH1 0x1 PUSH1 0xA0 SHL SUB DUP3 AND PUSH3 0x3A0 JUMPI PUSH1 0x40 MLOAD PUSH4 0x694F9037 PUSH1 0xE1 SHL DUP2 MSTORE PUSH1 0x4 ADD PUSH1 0x40 MLOAD DUP1 SWAP2 SUB SWAP1 REVERT JUMPDEST PUSH1 0x40 DUP1 MLOAD PUSH1 0x60 DUP2 ADD DUP3 MSTORE DUP5 DUP2 MSTORE PUSH1 0x1 PUSH1 0x1 PUSH1 0xA0 SHL SUB DUP5 AND PUSH1 0x20 DUP1 DUP4 ADD DUP3 SWAP1 MSTORE PUSH4 0xFFFFFFFF DUP6 AND SWAP3 DUP5 ADD DUP4 SWAP1 MSTORE PUSH1 0x5 DUP8 SWAP1 SSTORE PUSH1 0x6 DUP1 SLOAD PUSH1 0x1 PUSH1 0x1 PUSH1 0xC0 SHL SUB NOT AND DUP4 OR PUSH1 0x1 PUSH1 0xA0 SHL DUP6 MUL OR SWAP1 SSTORE DUP4 MLOAD DUP8 DUP2 MSTORE SWAP1 DUP2 ADD SWAP3 SWAP1 SWAP3 MSTORE SWAP2 PUSH32 0x839A37B5B1CD70BFBEB28899E2AB5FE4CDDB2731435190BD54F2E2924B84B77B SWAP2 ADD PUSH1 0x40 MLOAD DUP1 SWAP2 SUB SWAP1 LOG2 POP POP POP JUMP JUMPDEST DUP1 MLOAD PUSH1 0x1 PUSH1 0x1 PUSH1 0xA0 SHL SUB DUP2 AND DUP2 EQ PUSH3 0x440 JUMPI PUSH1 0x0 DUP1 REVERT JUMPDEST SWAP2 SWAP1 POP JUMP JUMPDEST PUSH1 0x0 DUP1 PUSH1 0x0 DUP1 PUSH1 0x0 DUP1 PUSH1 0x0 PUSH1 0xE0 DUP9 DUP11 SUB SLT ISZERO PUSH3 0x461 JUMPI PUSH1 0x0 DUP1 REVERT JUMPDEST PUSH3 0x46C DUP9 PUSH3 0x428 JUMP JUMPDEST SWAP7 POP PUSH3 0x47C PUSH1 0x20 DUP10 ADD PUSH3 0x428 JUMP JUMPDEST SWAP6 POP PUSH3 0x48C PUSH1 0x40 DUP10 ADD PUSH3 0x428 JUMP JUMPDEST SWAP5 POP PUSH3 0x49C PUSH1 0x60 DUP10 ADD PUSH3 0x428 JUMP JUMPDEST SWAP4 POP PUSH1 0x80 DUP9 ADD MLOAD SWAP3 POP PUSH1 0xA0 DUP9 ADD MLOAD SWAP2 POP PUSH1 0xC0 DUP9 ADD MLOAD PUSH4 0xFFFFFFFF DUP2 AND DUP2 EQ PUSH3 0x4C4 JUMPI PUSH1 0x0 DUP1 REVERT JUMPDEST DUP1 SWAP2 POP POP SWAP3 SWAP6 SWAP9 SWAP2 SWAP5 SWAP8 POP SWAP3 SWAP6 POP JUMP JUMPDEST PUSH1 0x0 DUP3 MLOAD PUSH1 0x0 JUMPDEST DUP2 DUP2 LT ISZERO PUSH3 0x4F7 JUMPI PUSH1 0x20 DUP2 DUP7 ADD DUP2 ADD MLOAD DUP6 DUP4 ADD MSTORE ADD PUSH3 0x4DB JUMP JUMPDEST DUP2 DUP2 GT ISZERO PUSH3 0x507 JUMPI PUSH1 0x0 DUP3 DUP6 ADD MSTORE JUMPDEST POP SWAP2 SWAP1 SWAP2 ADD SWAP3 SWAP2 POP POP JUMP JUMPDEST PUSH1 0x0 DUP3 PUSH3 0x530 JUMPI PUSH4 0x4E487B71 PUSH1 0xE0 SHL PUSH1 0x0 MSTORE PUSH1 0x12 PUSH1 0x4 MSTORE PUSH1 0x24 PUSH1 0x0 REVERT JUMPDEST POP MOD SWAP1 JUMP JUMPDEST PUSH1 0x80 MLOAD PUSH1 0xA0 MLOAD PUSH1 0xC0 MLOAD PUSH2 0x19F4 PUSH3 0x57A PUSH1 0x0 CODECOPY PUSH1 0x0 DUP2 DUP2 PUSH2 0x585 ADD MSTORE PUSH2 0x1199 ADD MSTORE PUSH1 0x0 DUP2 DUP2 PUSH2 0x235 ADD MSTORE PUSH2 0x11C8 ADD MSTORE PUSH1 0x0 DUP2 DUP2 PUSH2 0x2D8 ADD MSTORE PUSH2 0x11EA ADD MSTORE PUSH2 0x19F4 PUSH1 0x0 RETURN INVALID PUSH1 0x80 PUSH1 0x40 MSTORE PUSH1 0x4 CALLDATASIZE LT PUSH2 0x18F JUMPI PUSH1 0x0 CALLDATALOAD PUSH1 0xE0 SHR DUP1 PUSH4 0x8823DA6C GT PUSH2 0xD6 JUMPI DUP1 PUSH4 0xDC7F0124 GT PUSH2 0x7F JUMPI DUP1 PUSH4 0xF6D63790 GT PUSH2 0x59 JUMPI DUP1 PUSH4 0xF6D63790 EQ PUSH2 0x573 JUMPI DUP1 PUSH4 0xFAE8FB2C EQ PUSH2 0x5A7 JUMPI DUP1 PUSH4 0xFE212F7D EQ PUSH2 0x5BC JUMPI PUSH1 0x0 DUP1 REVERT JUMPDEST DUP1 PUSH4 0xDC7F0124 EQ PUSH2 0x501 JUMPI DUP1 PUSH4 0xEC86B00C EQ PUSH2 0x533 JUMPI DUP1 PUSH4 0xF2FDE38B EQ PUSH2 0x553 JUMPI PUSH1 0x0 DUP1 REVERT JUMPDEST DUP1 PUSH4 0xA2E6E0EB GT PUSH2 0xB0 JUMPI DUP1 PUSH4 0xA2E6E0EB EQ PUSH2 0x496 JUMPI DUP1 PUSH4 0xBEED9B51 EQ PUSH2 0x4B6 JUMPI DUP1 PUSH4 0xCFC6AB87 EQ PUSH2 0x4D6 JUMPI PUSH1 0x0 DUP1 REVERT JUMPDEST DUP1 PUSH4 0x8823DA6C EQ PUSH2 0x42B JUMPI DUP1 PUSH4 0x8DA5CB5B EQ PUSH2 0x44B JUMPI DUP1 PUSH4 0xA118F249 EQ PUSH2 0x476 JUMPI PUSH1 0x0 DUP1 REVERT JUMPDEST DUP1 PUSH4 0x2EEF1711 GT PUSH2 0x138 JUMPI DUP1 PUSH4 0x6B14DAF8 GT PUSH2 0x112 JUMPI DUP1 PUSH4 0x6B14DAF8 EQ PUSH2 0x3D1 JUMPI DUP1 PUSH4 0x79BA5097 EQ PUSH2 0x401 JUMPI DUP1 PUSH4 0x8038E4A1 EQ PUSH2 0x416 JUMPI PUSH1 0x0 DUP1 REVERT JUMPDEST DUP1 PUSH4 0x2EEF1711 EQ PUSH2 0x2C6 JUMPI DUP1 PUSH4 0x4B5C54C0 EQ PUSH2 0x2FA JUMPI DUP1 PUSH4 0x6242A62D EQ PUSH2 0x3BC JUMPI PUSH1 0x0 DUP1 REVERT JUMPDEST DUP1 PUSH4 0x122555FF GT PUSH2 0x169 JUMPI DUP1 PUSH4 0x122555FF EQ PUSH2 0x223 JUMPI DUP1 PUSH4 0x181F5A77 EQ PUSH2 0x265 JUMPI DUP1 PUSH4 0x24600FC3 EQ PUSH2 0x2B1 JUMPI PUSH1 0x0 DUP1 REVERT JUMPDEST DUP1 PUSH4 0x2163E6C EQ PUSH2 0x19B JUMPI DUP1 PUSH4 0xA756983 EQ PUSH2 0x1BD JUMPI DUP1 PUSH4 0x1108D587 EQ PUSH2 0x1D2 JUMPI PUSH1 0x0 DUP1 REVERT JUMPDEST CALLDATASIZE PUSH2 0x196 JUMPI STOP JUMPDEST PUSH1 0x0 DUP1 REVERT JUMPDEST CALLVALUE DUP1 ISZERO PUSH2 0x1A7 JUMPI PUSH1 0x0 DUP1 REVERT JUMPDEST POP PUSH2 0x1BB PUSH2 0x1B6 CALLDATASIZE PUSH1 0x4 PUSH2 0x1587 JUMP JUMPDEST PUSH2 0x5DC JUMP JUMPDEST STOP JUMPDEST CALLVALUE DUP1 ISZERO PUSH2 0x1C9 JUMPI PUSH1 0x0 DUP1 REVERT JUMPDEST POP PUSH2 0x1BB PUSH2 0x5F0 JUMP JUMPDEST CALLVALUE DUP1 ISZERO PUSH2 0x1DE JUMPI PUSH1 0x0 DUP1 REVERT JUMPDEST POP PUSH1 0x4 SLOAD PUSH20 0xFFFFFFFFFFFFFFFFFFFFFFFFFFFFFFFFFFFFFFFF AND JUMPDEST PUSH1 0x40 MLOAD PUSH20 0xFFFFFFFFFFFFFFFFFFFFFFFFFFFFFFFFFFFFFFFF SWAP1 SWAP2 AND DUP2 MSTORE PUSH1 0x20 ADD JUMPDEST PUSH1 0x40 MLOAD DUP1 SWAP2 SUB SWAP1 RETURN JUMPDEST CALLVALUE DUP1 ISZERO PUSH2 0x22F JUMPI PUSH1 0x0 DUP1 REVERT JUMPDEST POP PUSH2 0x257 PUSH32 0x0 DUP2 JUMP JUMPDEST PUSH1 0x40 MLOAD SWAP1 DUP2 MSTORE PUSH1 0x20 ADD PUSH2 0x21A JUMP JUMPDEST CALLVALUE DUP1 ISZERO PUSH2 0x271 JUMPI PUSH1 0x0 DUP1 REVERT JUMPDEST POP PUSH1 0x40 DUP1 MLOAD DUP1 DUP3 ADD DUP3 MSTORE PUSH1 0x17 DUP2 MSTORE PUSH32 0x537461726B6E657456616C696461746F7220302E312E30000000000000000000 PUSH1 0x20 DUP3 ADD MSTORE SWAP1 MLOAD PUSH2 0x21A SWAP2 SWAP1 PUSH2 0x15A4 JUMP JUMPDEST CALLVALUE DUP1 ISZERO PUSH2 0x2BD JUMPI PUSH1 0x0 DUP1 REVERT JUMPDEST POP PUSH2 0x1BB PUSH2 0x66F JUMP JUMPDEST CALLVALUE DUP1 ISZERO PUSH2 0x2D2 JUMPI PUSH1 0x0 DUP1 REVERT JUMPDEST POP PUSH2 0x257 PUSH32 0x0 DUP2 JUMP JUMPDEST CALLVALUE DUP1 ISZERO PUSH2 0x306 JUMPI PUSH1 0x0 DUP1 REVERT JUMPDEST POP PUSH2 0x37E PUSH1 0x40 DUP1 MLOAD PUSH1 0x60 DUP2 ADD DUP3 MSTORE PUSH1 0x0 DUP1 DUP3 MSTORE PUSH1 0x20 DUP3 ADD DUP2 SWAP1 MSTORE SWAP2 DUP2 ADD SWAP2 SWAP1 SWAP2 MSTORE POP PUSH1 0x40 DUP1 MLOAD PUSH1 0x60 DUP2 ADD DUP3 MSTORE PUSH1 0x5 SLOAD DUP2 MSTORE PUSH1 0x6 SLOAD PUSH20 0xFFFFFFFFFFFFFFFFFFFFFFFFFFFFFFFFFFFFFFFF DUP2 AND PUSH1 0x20 DUP4 ADD MSTORE PUSH21 0x10000000000000000000000000000000000000000 SWAP1 DIV PUSH4 0xFFFFFFFF AND SWAP2 DUP2 ADD SWAP2 SWAP1 SWAP2 MSTORE SWAP1 JUMP JUMPDEST PUSH1 0x40 DUP1 MLOAD DUP3 MLOAD DUP2 MSTORE PUSH1 0x20 DUP1 DUP5 ADD MLOAD PUSH20 0xFFFFFFFFFFFFFFFFFFFFFFFFFFFFFFFFFFFFFFFF AND SWAP1 DUP3 ADD MSTORE SWAP2 DUP2 ADD MLOAD PUSH4 0xFFFFFFFF AND SWAP1 DUP3 ADD MSTORE PUSH1 0x60 ADD PUSH2 0x21A JUMP JUMPDEST CALLVALUE DUP1 ISZERO PUSH2 0x3C8 JUMPI PUSH1 0x0 DUP1 REVERT JUMPDEST POP PUSH2 0x257 PUSH2 0x6D7 JUMP JUMPDEST CALLVALUE DUP1 ISZERO PUSH2 0x3DD JUMPI PUSH1 0x0 DUP1 REVERT JUMPDEST POP PUSH2 0x3F1 PUSH2 0x3EC CALLDATASIZE PUSH1 0x4 PUSH2 0x1646 JUMP JUMPDEST PUSH2 0x7B4 JUMP JUMPDEST PUSH1 0x40 MLOAD SWAP1 ISZERO ISZERO DUP2 MSTORE PUSH1 0x20 ADD PUSH2 0x21A JUMP JUMPDEST CALLVALUE DUP1 ISZERO PUSH2 0x40D JUMPI PUSH1 0x0 DUP1 REVERT JUMPDEST POP PUSH2 0x1BB PUSH2 0x80A JUMP JUMPDEST CALLVALUE DUP1 ISZERO PUSH2 0x422 JUMPI PUSH1 0x0 DUP1 REVERT JUMPDEST POP PUSH2 0x1BB PUSH2 0x90C JUMP JUMPDEST CALLVALUE DUP1 ISZERO PUSH2 0x437 JUMPI PUSH1 0x0 DUP1 REVERT JUMPDEST POP PUSH2 0x1BB PUSH2 0x446 CALLDATASIZE PUSH1 0x4 PUSH2 0x1587 JUMP JUMPDEST PUSH2 0x9A0 JUMP JUMPDEST CALLVALUE DUP1 ISZERO PUSH2 0x457 JUMPI PUSH1 0x0 DUP1 REVERT JUMPDEST POP PUSH1 0x0 SLOAD PUSH20 0xFFFFFFFFFFFFFFFFFFFFFFFFFFFFFFFFFFFFFFFF AND PUSH2 0x1F9 JUMP JUMPDEST CALLVALUE DUP1 ISZERO PUSH2 0x482 JUMPI PUSH1 0x0 DUP1 REVERT JUMPDEST POP PUSH2 0x1BB PUSH2 0x491 CALLDATASIZE PUSH1 0x4 PUSH2 0x1587 JUMP JUMPDEST PUSH2 0xA59 JUMP JUMPDEST CALLVALUE DUP1 ISZERO PUSH2 0x4A2 JUMPI PUSH1 0x0 DUP1 REVERT JUMPDEST POP PUSH2 0x1BB PUSH2 0x4B1 CALLDATASIZE PUSH1 0x4 PUSH2 0x1587 JUMP JUMPDEST PUSH2 0xB0D JUMP JUMPDEST CALLVALUE DUP1 ISZERO PUSH2 0x4C2 JUMPI PUSH1 0x0 DUP1 REVERT JUMPDEST POP PUSH2 0x3F1 PUSH2 0x4D1 CALLDATASIZE PUSH1 0x4 PUSH2 0x1728 JUMP JUMPDEST PUSH2 0xB20 JUMP JUMPDEST CALLVALUE DUP1 ISZERO PUSH2 0x4E2 JUMPI PUSH1 0x0 DUP1 REVERT JUMPDEST POP PUSH1 0x3 SLOAD PUSH20 0xFFFFFFFFFFFFFFFFFFFFFFFFFFFFFFFFFFFFFFFF AND PUSH2 0x1F9 JUMP JUMPDEST CALLVALUE DUP1 ISZERO PUSH2 0x50D JUMPI PUSH1 0x0 DUP1 REVERT JUMPDEST POP PUSH1 0x1 SLOAD PUSH2 0x3F1 SWAP1 PUSH21 0x10000000000000000000000000000000000000000 SWAP1 DIV PUSH1 0xFF AND DUP2 JUMP JUMPDEST CALLVALUE DUP1 ISZERO PUSH2 0x53F JUMPI PUSH1 0x0 DUP1 REVERT JUMPDEST POP PUSH2 0x1BB PUSH2 0x54E CALLDATASIZE PUSH1 0x4 PUSH2 0x1587 JUMP JUMPDEST PUSH2 0xBDB JUMP JUMPDEST CALLVALUE DUP1 ISZERO PUSH2 0x55F JUMPI PUSH1 0x0 DUP1 REVERT JUMPDEST POP PUSH2 0x1BB PUSH2 0x56E CALLDATASIZE PUSH1 0x4 PUSH2 0x1587 JUMP JUMPDEST PUSH2 0xBEC JUMP JUMPDEST CALLVALUE DUP1 ISZERO PUSH2 0x57F JUMPI PUSH1 0x0 DUP1 REVERT JUMPDEST POP PUSH2 0x1F9 PUSH32 0x0 DUP2 JUMP JUMPDEST CALLVALUE DUP1 ISZERO PUSH2 0x5B3 JUMPI PUSH1 0x0 DUP1 REVERT JUMPDEST POP PUSH2 0x3F1 PUSH2 0xBFD JUMP JUMPDEST CALLVALUE DUP1 ISZERO PUSH2 0x5C8 JUMPI PUSH1 0x0 DUP1 REVERT JUMPDEST POP PUSH2 0x1BB PUSH2 0x5D7 CALLDATASIZE PUSH1 0x4 PUSH2 0x175A JUMP JUMPDEST PUSH2 0xD49 JUMP JUMPDEST PUSH2 0x5E4 PUSH2 0xE72 JUMP JUMPDEST PUSH2 0x5ED DUP2 PUSH2 0xEF3 JUMP JUMPDEST POP JUMP JUMPDEST PUSH2 0x5F8 PUSH2 0xE72 JUMP JUMPDEST PUSH1 0x1 SLOAD PUSH21 0x10000000000000000000000000000000000000000 SWAP1 DIV PUSH1 0xFF AND ISZERO PUSH2 0x66D JUMPI PUSH1 0x1 DUP1 SLOAD PUSH32 0xFFFFFFFFFFFFFFFFFFFFFF00FFFFFFFFFFFFFFFFFFFFFFFFFFFFFFFFFFFFFFFF AND SWAP1 SSTORE PUSH1 0x40 MLOAD PUSH32 0x3BE8A977A014527B50AE38ADDA80B56911C267328965C98DDC385D248F539638 SWAP1 PUSH1 0x0 SWAP1 LOG1 JUMPDEST JUMP JUMPDEST PUSH2 0x677 PUSH2 0xE72 JUMP JUMPDEST CALLER SELFBALANCE PUSH2 0x683 DUP3 DUP3 PUSH2 0xF8E JUMP JUMPDEST DUP2 PUSH20 0xFFFFFFFFFFFFFFFFFFFFFFFFFFFFFFFFFFFFFFFF AND PUSH32 0xEAFF4B37086828766AD3268786972C0CD24259D4C87A80F9D3963A3C3D999B0D DUP3 PUSH1 0x40 MLOAD PUSH2 0x6CB SWAP2 DUP2 MSTORE PUSH1 0x20 ADD SWAP1 JUMP JUMPDEST PUSH1 0x40 MLOAD DUP1 SWAP2 SUB SWAP1 LOG2 POP POP JUMP JUMPDEST PUSH1 0x0 DUP1 PUSH1 0x5 PUSH1 0x1 ADD PUSH1 0x0 SWAP1 SLOAD SWAP1 PUSH2 0x100 EXP SWAP1 DIV PUSH20 0xFFFFFFFFFFFFFFFFFFFFFFFFFFFFFFFFFFFFFFFF AND PUSH20 0xFFFFFFFFFFFFFFFFFFFFFFFFFFFFFFFFFFFFFFFF AND PUSH4 0xFEAF968C PUSH1 0x40 MLOAD DUP2 PUSH4 0xFFFFFFFF AND PUSH1 0xE0 SHL DUP2 MSTORE PUSH1 0x4 ADD PUSH1 0xA0 PUSH1 0x40 MLOAD DUP1 DUP4 SUB DUP2 DUP7 GAS STATICCALL ISZERO DUP1 ISZERO PUSH2 0x74A JUMPI RETURNDATASIZE PUSH1 0x0 DUP1 RETURNDATACOPY RETURNDATASIZE PUSH1 0x0 REVERT JUMPDEST POP POP POP POP PUSH1 0x40 MLOAD RETURNDATASIZE PUSH1 0x1F NOT PUSH1 0x1F DUP3 ADD AND DUP3 ADD DUP1 PUSH1 0x40 MSTORE POP DUP2 ADD SWAP1 PUSH2 0x76E SWAP2 SWAP1 PUSH2 0x17C4 JUMP JUMPDEST POP POP PUSH1 0x6 SLOAD SWAP2 SWAP4 POP PUSH1 0x64 SWAP3 POP PUSH2 0x7A4 SWAP2 PUSH21 0x10000000000000000000000000000000000000000 SWAP1 DIV PUSH4 0xFFFFFFFF AND SWAP1 POP DUP4 PUSH2 0x1814 JUMP JUMPDEST PUSH2 0x7AE SWAP2 SWAP1 PUSH2 0x1878 JUMP JUMPDEST SWAP2 POP POP SWAP1 JUMP JUMPDEST PUSH20 0xFFFFFFFFFFFFFFFFFFFFFFFFFFFFFFFFFFFFFFFF DUP3 AND PUSH1 0x0 SWAP1 DUP2 MSTORE PUSH1 0x2 PUSH1 0x20 MSTORE PUSH1 0x40 DUP2 KECCAK256 SLOAD PUSH1 0xFF AND DUP1 PUSH2 0x803 JUMPI POP PUSH1 0x1 SLOAD PUSH21 0x10000000000000000000000000000000000000000 SWAP1 DIV PUSH1 0xFF AND ISZERO JUMPDEST SWAP4 SWAP3 POP POP POP JUMP JUMPDEST PUSH1 0x1 SLOAD PUSH20 0xFFFFFFFFFFFFFFFFFFFFFFFFFFFFFFFFFFFFFFFF AND CALLER EQ PUSH2 0x890 JUMPI PUSH1 0x40 MLOAD PUSH32 0x8C379A000000000000000000000000000000000000000000000000000000000 DUP2 MSTORE PUSH1 0x20 PUSH1 0x4 DUP3 ADD MSTORE PUSH1 0x16 PUSH1 0x24 DUP3 ADD MSTORE PUSH32 0x4D7573742062652070726F706F736564206F776E657200000000000000000000 PUSH1 0x44 DUP3 ADD MSTORE PUSH1 0x64 ADD JUMPDEST PUSH1 0x40 MLOAD DUP1 SWAP2 SUB SWAP1 REVERT JUMPDEST PUSH1 0x0 DUP1 SLOAD CALLER PUSH32 0xFFFFFFFFFFFFFFFFFFFFFFFF0000000000000000000000000000000000000000 DUP1 DUP4 AND DUP3 OR DUP5 SSTORE PUSH1 0x1 DUP1 SLOAD SWAP1 SWAP2 AND SWAP1 SSTORE PUSH1 0x40 MLOAD PUSH20 0xFFFFFFFFFFFFFFFFFFFFFFFFFFFFFFFFFFFFFFFF SWAP1 SWAP3 AND SWAP3 SWAP1 SWAP2 DUP4 SWAP2 PUSH32 0x8BE0079C531659141344CD1FD0A4F28419497F9722A3DAAFE3B4186F6B6457E0 SWAP2 LOG3 POP JUMP JUMPDEST PUSH2 0x914 PUSH2 0xE72 JUMP JUMPDEST PUSH1 0x1 SLOAD PUSH21 0x10000000000000000000000000000000000000000 SWAP1 DIV PUSH1 0xFF AND PUSH2 0x66D JUMPI PUSH1 0x1 DUP1 SLOAD PUSH32 0xFFFFFFFFFFFFFFFFFFFFFF00FFFFFFFFFFFFFFFFFFFFFFFFFFFFFFFFFFFFFFFF AND PUSH21 0x10000000000000000000000000000000000000000 OR SWAP1 SSTORE PUSH1 0x40 MLOAD PUSH32 0xAEBF329500988C6488A0074E5A0A9FF304561FC5C6FC877AEB1D59C8282C3480 SWAP1 PUSH1 0x0 SWAP1 LOG1 JUMP JUMPDEST PUSH2 0x9A8 PUSH2 0xE72 JUMP JUMPDEST PUSH20 0xFFFFFFFFFFFFFFFFFFFFFFFFFFFFFFFFFFFFFFFF DUP2 AND PUSH1 0x0 SWAP1 DUP2 MSTORE PUSH1 0x2 PUSH1 0x20 MSTORE PUSH1 0x40 SWAP1 KECCAK256 SLOAD PUSH1 0xFF AND ISZERO PUSH2 0x5ED JUMPI PUSH20 0xFFFFFFFFFFFFFFFFFFFFFFFFFFFFFFFFFFFFFFFF DUP2 AND PUSH1 0x0 DUP2 DUP2 MSTORE PUSH1 0x2 PUSH1 0x20 SWAP1 DUP2 MSTORE PUSH1 0x40 SWAP2 DUP3 SWAP1 KECCAK256 DUP1 SLOAD PUSH32 0xFFFFFFFFFFFFFFFFFFFFFFFFFFFFFFFFFFFFFFFFFFFFFFFFFFFFFFFFFFFFFF00 AND SWAP1 SSTORE SWAP1 MLOAD SWAP2 DUP3 MSTORE PUSH32 0x3D68A6FCE901D20453D1A7AA06BF3950302A735948037DEB182A8DB66DF2A0D1 SWAP2 ADD JUMPDEST PUSH1 0x40 MLOAD DUP1 SWAP2 SUB SWAP1 LOG1 POP JUMP JUMPDEST PUSH2 0xA61 PUSH2 0xE72 JUMP JUMPDEST PUSH20 0xFFFFFFFFFFFFFFFFFFFFFFFFFFFFFFFFFFFFFFFF DUP2 AND PUSH1 0x0 SWAP1 DUP2 MSTORE PUSH1 0x2 PUSH1 0x20 MSTORE PUSH1 0x40 SWAP1 KECCAK256 SLOAD PUSH1 0xFF AND PUSH2 0x5ED JUMPI PUSH20 0xFFFFFFFFFFFFFFFFFFFFFFFFFFFFFFFFFFFFFFFF DUP2 AND PUSH1 0x0 DUP2 DUP2 MSTORE PUSH1 0x2 PUSH1 0x20 SWAP1 DUP2 MSTORE PUSH1 0x40 SWAP2 DUP3 SWAP1 KECCAK256 DUP1 SLOAD PUSH32 0xFFFFFFFFFFFFFFFFFFFFFFFFFFFFFFFFFFFFFFFFFFFFFFFFFFFFFFFFFFFFFF00 AND PUSH1 0x1 OR SWAP1 SSTORE SWAP1 MLOAD SWAP2 DUP3 MSTORE PUSH32 0x87286AD1F399C8E82BF0C4EF4FCDC570EA2E1E92176E5C848B6413545B885DB4 SWAP2 ADD PUSH2 0xA4E JUMP JUMPDEST PUSH2 0xB15 PUSH2 0xE72 JUMP JUMPDEST SELFBALANCE PUSH2 0x683 DUP3 DUP3 PUSH2 0xF8E JUMP JUMPDEST PUSH1 0x0 PUSH2 0xB63 CALLER PUSH1 0x0 CALLDATASIZE DUP1 DUP1 PUSH1 0x1F ADD PUSH1 0x20 DUP1 SWAP2 DIV MUL PUSH1 0x20 ADD PUSH1 0x40 MLOAD SWAP1 DUP2 ADD PUSH1 0x40 MSTORE DUP1 SWAP4 SWAP3 SWAP2 SWAP1 DUP2 DUP2 MSTORE PUSH1 0x20 ADD DUP4 DUP4 DUP1 DUP3 DUP5 CALLDATACOPY PUSH1 0x0 SWAP3 ADD SWAP2 SWAP1 SWAP2 MSTORE POP PUSH2 0x7B4 SWAP3 POP POP POP JUMP JUMPDEST PUSH2 0xBC9 JUMPI PUSH1 0x40 MLOAD PUSH32 0x8C379A000000000000000000000000000000000000000000000000000000000 DUP2 MSTORE PUSH1 0x20 PUSH1 0x4 DUP3 ADD MSTORE PUSH1 0x9 PUSH1 0x24 DUP3 ADD MSTORE PUSH32 0x4E6F206163636573730000000000000000000000000000000000000000000000 PUSH1 0x44 DUP3 ADD MSTORE PUSH1 0x64 ADD PUSH2 0x887 JUMP JUMPDEST PUSH2 0xBD2 DUP3 PUSH2 0x10E8 JUMP JUMPDEST SWAP6 SWAP5 POP POP POP POP POP JUMP JUMPDEST PUSH2 0xBE3 PUSH2 0xE72 JUMP JUMPDEST PUSH2 0x5ED DUP2 PUSH2 0x1263 JUMP JUMPDEST PUSH2 0xBF4 PUSH2 0xE72 JUMP JUMPDEST PUSH2 0x5ED DUP2 PUSH2 0x134A JUMP JUMPDEST PUSH1 0x0 PUSH2 0xC40 CALLER PUSH1 0x0 CALLDATASIZE DUP1 DUP1 PUSH1 0x1F ADD PUSH1 0x20 DUP1 SWAP2 DIV MUL PUSH1 0x20 ADD PUSH1 0x40 MLOAD SWAP1 DUP2 ADD PUSH1 0x40 MSTORE DUP1 SWAP4 SWAP3 SWAP2 SWAP1 DUP2 DUP2 MSTORE PUSH1 0x20 ADD DUP4 DUP4 DUP1 DUP3 DUP5 CALLDATACOPY PUSH1 0x0 SWAP3 ADD SWAP2 SWAP1 SWAP2 MSTORE POP PUSH2 0x7B4 SWAP3 POP POP POP JUMP JUMPDEST PUSH2 0xCA6 JUMPI PUSH1 0x40 MLOAD PUSH32 0x8C379A000000000000000000000000000000000000000000000000000000000 DUP2 MSTORE PUSH1 0x20 PUSH1 0x4 DUP3 ADD MSTORE PUSH1 0x9 PUSH1 0x24 DUP3 ADD MSTORE PUSH32 0x4E6F206163636573730000000000000000000000000000000000000000000000 PUSH1 0x44 DUP3 ADD MSTORE PUSH1 0x64 ADD PUSH2 0x887 JUMP JUMPDEST PUSH1 0x3 SLOAD PUSH1 0x40 DUP1 MLOAD PUSH32 0xFEAF968C00000000000000000000000000000000000000000000000000000000 DUP2 MSTORE SWAP1 MLOAD PUSH1 0x0 SWAP3 PUSH20 0xFFFFFFFFFFFFFFFFFFFFFFFFFFFFFFFFFFFFFFFF AND SWAP2 PUSH4 0xFEAF968C SWAP2 PUSH1 0x4 DUP1 DUP4 ADD SWAP3 PUSH1 0xA0 SWAP3 SWAP2 SWAP1 DUP3 SWAP1 SUB ADD DUP2 DUP7 GAS STATICCALL ISZERO DUP1 ISZERO PUSH2 0xD16 JUMPI RETURNDATASIZE PUSH1 0x0 DUP1 RETURNDATACOPY RETURNDATASIZE PUSH1 0x0 REVERT JUMPDEST POP POP POP POP PUSH1 0x40 MLOAD RETURNDATASIZE PUSH1 0x1F NOT PUSH1 0x1F DUP3 ADD AND DUP3 ADD DUP1 PUSH1 0x40 MSTORE POP DUP2 ADD SWAP1 PUSH2 0xD3A SWAP2 SWAP1 PUSH2 0x17C4 JUMP JUMPDEST POP POP POP SWAP2 POP POP PUSH2 0x7AE DUP2 PUSH2 0x10E8 JUMP JUMPDEST PUSH1 0x0 SLOAD PUSH20 0xFFFFFFFFFFFFFFFFFFFFFFFFFFFFFFFFFFFFFFFF AND CALLER EQ DUP1 ISZERO SWAP1 PUSH2 0xE2B JUMPI POP PUSH1 0x4 SLOAD PUSH20 0xFFFFFFFFFFFFFFFFFFFFFFFFFFFFFFFFFFFFFFFF AND ISZERO DUP1 ISZERO SWAP1 PUSH2 0xE2B JUMPI POP PUSH1 0x4 DUP1 SLOAD PUSH1 0x40 MLOAD PUSH32 0x6B14DAF800000000000000000000000000000000000000000000000000000000 DUP2 MSTORE PUSH20 0xFFFFFFFFFFFFFFFFFFFFFFFFFFFFFFFFFFFFFFFF SWAP1 SWAP2 AND SWAP2 PUSH4 0x6B14DAF8 SWAP2 PUSH2 0xDE8 SWAP2 CALLER SWAP2 PUSH1 0x0 SWAP2 CALLDATASIZE SWAP2 ADD PUSH2 0x18B3 JUMP JUMPDEST PUSH1 0x20 PUSH1 0x40 MLOAD DUP1 DUP4 SUB DUP2 DUP7 GAS STATICCALL ISZERO DUP1 ISZERO PUSH2 0xE05 JUMPI RETURNDATASIZE PUSH1 0x0 DUP1 RETURNDATACOPY RETURNDATASIZE PUSH1 0x0 REVERT JUMPDEST POP POP POP POP PUSH1 0x40 MLOAD RETURNDATASIZE PUSH1 0x1F NOT PUSH1 0x1F DUP3 ADD AND DUP3 ADD DUP1 PUSH1 0x40 MSTORE POP DUP2 ADD SWAP1 PUSH2 0xE29 SWAP2 SWAP1 PUSH2 0x191D JUMP JUMPDEST ISZERO JUMPDEST ISZERO PUSH2 0xE62 JUMPI PUSH1 0x40 MLOAD PUSH32 0xEF67F5D800000000000000000000000000000000000000000000000000000000 DUP2 MSTORE PUSH1 0x4 ADD PUSH1 0x40 MLOAD DUP1 SWAP2 SUB SWAP1 REVERT JUMPDEST PUSH2 0xE6D DUP4 DUP4 DUP4 PUSH2 0x143F JUMP JUMPDEST POP POP POP JUMP JUMPDEST PUSH1 0x0 SLOAD PUSH20 0xFFFFFFFFFFFFFFFFFFFFFFFFFFFFFFFFFFFFFFFF AND CALLER EQ PUSH2 0x66D JUMPI PUSH1 0x40 MLOAD PUSH32 0x8C379A000000000000000000000000000000000000000000000000000000000 DUP2 MSTORE PUSH1 0x20 PUSH1 0x4 DUP3 ADD MSTORE PUSH1 0x16 PUSH1 0x24 DUP3 ADD MSTORE PUSH32 0x4F6E6C792063616C6C61626C65206279206F776E657200000000000000000000 PUSH1 0x44 DUP3 ADD MSTORE PUSH1 0x64 ADD PUSH2 0x887 JUMP JUMPDEST PUSH1 0x4 SLOAD PUSH20 0xFFFFFFFFFFFFFFFFFFFFFFFFFFFFFFFFFFFFFFFF SWAP1 DUP2 AND SWAP1 DUP3 AND DUP2 EQ PUSH2 0xF8A JUMPI PUSH1 0x4 DUP1 SLOAD PUSH32 0xFFFFFFFFFFFFFFFFFFFFFFFF0000000000000000000000000000000000000000 AND PUSH20 0xFFFFFFFFFFFFFFFFFFFFFFFFFFFFFFFFFFFFFFFF DUP5 DUP2 AND SWAP2 DUP3 OR SWAP1 SWAP3 SSTORE PUSH1 0x40 MLOAD SWAP1 SWAP2 DUP4 AND SWAP1 PUSH32 0x6B0CE63879B19FA36F93DA30A36F44140D8C3C727B6C75A16165C2017037D2CC SWAP1 PUSH1 0x0 SWAP1 LOG3 JUMPDEST POP POP JUMP JUMPDEST DUP1 SELFBALANCE LT ISZERO PUSH2 0xFF8 JUMPI PUSH1 0x40 MLOAD PUSH32 0x8C379A000000000000000000000000000000000000000000000000000000000 DUP2 MSTORE PUSH1 0x20 PUSH1 0x4 DUP3 ADD MSTORE PUSH1 0x1D PUSH1 0x24 DUP3 ADD MSTORE PUSH32 0x416464726573733A20696E73756666696369656E742062616C616E6365000000 PUSH1 0x44 DUP3 ADD MSTORE PUSH1 0x64 ADD PUSH2 0x887 JUMP JUMPDEST PUSH1 0x0 DUP3 PUSH20 0xFFFFFFFFFFFFFFFFFFFFFFFFFFFFFFFFFFFFFFFF AND DUP3 PUSH1 0x40 MLOAD PUSH1 0x0 PUSH1 0x40 MLOAD DUP1 DUP4 SUB DUP2 DUP6 DUP8 GAS CALL SWAP3 POP POP POP RETURNDATASIZE DUP1 PUSH1 0x0 DUP2 EQ PUSH2 0x1052 JUMPI PUSH1 0x40 MLOAD SWAP2 POP PUSH1 0x1F NOT PUSH1 0x3F RETURNDATASIZE ADD AND DUP3 ADD PUSH1 0x40 MSTORE RETURNDATASIZE DUP3 MSTORE RETURNDATASIZE PUSH1 0x0 PUSH1 0x20 DUP5 ADD RETURNDATACOPY PUSH2 0x1057 JUMP JUMPDEST PUSH1 0x60 SWAP2 POP JUMPDEST POP POP SWAP1 POP DUP1 PUSH2 0xE6D JUMPI PUSH1 0x40 MLOAD PUSH32 0x8C379A000000000000000000000000000000000000000000000000000000000 DUP2 MSTORE PUSH1 0x20 PUSH1 0x4 DUP3 ADD MSTORE PUSH1 0x3A PUSH1 0x24 DUP3 ADD MSTORE PUSH32 0x416464726573733A20756E61626C6520746F2073656E642076616C75652C2072 PUSH1 0x44 DUP3 ADD MSTORE PUSH32 0x6563697069656E74206D61792068617665207265766572746564000000000000 PUSH1 0x64 DUP3 ADD MSTORE PUSH1 0x84 ADD PUSH2 0x887 JUMP JUMPDEST PUSH1 0x0 DUP1 PUSH2 0x10F3 PUSH2 0x154A JUMP JUMPDEST PUSH1 0x40 DUP1 MLOAD PUSH1 0x2 DUP1 DUP3 MSTORE PUSH1 0x60 DUP3 ADD DUP4 MSTORE SWAP3 SWAP4 POP PUSH1 0x0 SWAP3 SWAP1 SWAP2 PUSH1 0x20 DUP4 ADD SWAP1 DUP1 CALLDATASIZE DUP4 CALLDATACOPY ADD SWAP1 POP POP SWAP1 POP PUSH1 0x1 DUP5 EQ DUP1 DUP3 PUSH1 0x0 DUP2 MLOAD DUP2 LT PUSH2 0x1131 JUMPI PUSH2 0x1131 PUSH2 0x193F JUMP JUMPDEST PUSH1 0x20 MUL PUSH1 0x20 ADD ADD DUP2 DUP2 MSTORE POP POP TIMESTAMP DUP3 PUSH1 0x1 DUP2 MLOAD DUP2 LT PUSH2 0x1151 JUMPI PUSH2 0x1151 PUSH2 0x193F JUMP JUMPDEST PUSH1 0x20 SWAP1 DUP2 MUL SWAP2 SWAP1 SWAP2 ADD ADD MSTORE PUSH1 0x40 MLOAD PUSH32 0x3E3AA6C500000000000000000000000000000000000000000000000000000000 DUP2 MSTORE PUSH20 0xFFFFFFFFFFFFFFFFFFFFFFFFFFFFFFFFFFFFFFFF PUSH32 0x0 AND SWAP1 PUSH4 0x3E3AA6C5 SWAP1 DUP6 SWAP1 PUSH2 0x1214 SWAP1 PUSH32 0x0 SWAP1 PUSH32 0x0 SWAP1 DUP9 SWAP1 PUSH1 0x4 ADD PUSH2 0x196E JUMP JUMPDEST PUSH1 0x40 DUP1 MLOAD DUP1 DUP4 SUB DUP2 DUP6 DUP9 GAS CALL ISZERO DUP1 ISZERO PUSH2 0x1231 JUMPI RETURNDATASIZE PUSH1 0x0 DUP1 RETURNDATACOPY RETURNDATASIZE PUSH1 0x0 REVERT JUMPDEST POP POP POP POP POP PUSH1 0x40 MLOAD RETURNDATASIZE PUSH1 0x1F NOT PUSH1 0x1F DUP3 ADD AND DUP3 ADD DUP1 PUSH1 0x40 MSTORE POP DUP2 ADD SWAP1 PUSH2 0x1256 SWAP2 SWAP1 PUSH2 0x19C3 JUMP JUMPDEST POP PUSH1 0x1 SWAP7 SWAP6 POP POP POP POP POP POP JUMP JUMPDEST PUSH20 0xFFFFFFFFFFFFFFFFFFFFFFFFFFFFFFFFFFFFFFFF DUP2 AND PUSH2 0x12B0 JUMPI PUSH1 0x40 MLOAD PUSH32 0x2574A1A000000000000000000000000000000000000000000000000000000000 DUP2 MSTORE PUSH1 0x4 ADD PUSH1 0x40 MLOAD DUP1 SWAP2 SUB SWAP1 REVERT JUMPDEST PUSH1 0x3 SLOAD PUSH20 0xFFFFFFFFFFFFFFFFFFFFFFFFFFFFFFFFFFFFFFFF SWAP1 DUP2 AND SWAP1 DUP3 AND DUP2 EQ PUSH2 0xF8A JUMPI PUSH1 0x3 DUP1 SLOAD PUSH32 0xFFFFFFFFFFFFFFFFFFFFFFFF0000000000000000000000000000000000000000 AND PUSH20 0xFFFFFFFFFFFFFFFFFFFFFFFFFFFFFFFFFFFFFFFF DUP5 DUP2 AND SWAP2 DUP3 OR SWAP1 SWAP3 SSTORE PUSH1 0x40 MLOAD SWAP1 SWAP2 DUP4 AND SWAP1 PUSH32 0x5096BA7C83970476520960B162504C4CB0BF39B3388CF27A24A44ACADB18F0F7 SWAP1 PUSH1 0x0 SWAP1 LOG3 POP POP JUMP JUMPDEST CALLER PUSH20 0xFFFFFFFFFFFFFFFFFFFFFFFFFFFFFFFFFFFFFFFF DUP3 AND SUB PUSH2 0x13C9 JUMPI PUSH1 0x40 MLOAD PUSH32 0x8C379A000000000000000000000000000000000000000000000000000000000 DUP2 MSTORE PUSH1 0x20 PUSH1 0x4 DUP3 ADD MSTORE PUSH1 0x17 PUSH1 0x24 DUP3 ADD MSTORE PUSH32 0x43616E6E6F74207472616E7366657220746F2073656C66000000000000000000 PUSH1 0x44 DUP3 ADD MSTORE PUSH1 0x64 ADD PUSH2 0x887 JUMP JUMPDEST PUSH1 0x1 DUP1 SLOAD PUSH32 0xFFFFFFFFFFFFFFFFFFFFFFFF0000000000000000000000000000000000000000 AND PUSH20 0xFFFFFFFFFFFFFFFFFFFFFFFFFFFFFFFFFFFFFFFF DUP4 DUP2 AND SWAP2 DUP3 OR SWAP1 SWAP3 SSTORE PUSH1 0x0 DUP1 SLOAD PUSH1 0x40 MLOAD SWAP3 SWAP4 AND SWAP2 PUSH32 0xED8889F560326EB138920D842192F0EB3DD22B4F139C87A2C57538E05BAE1278 SWAP2 SWAP1 LOG3 POP JUMP JUMPDEST PUSH20 0xFFFFFFFFFFFFFFFFFFFFFFFFFFFFFFFFFFFFFFFF DUP3 AND PUSH2 0x148C JUMPI PUSH1 0x40 MLOAD PUSH32 0xD29F206E00000000000000000000000000000000000000000000000000000000 DUP2 MSTORE PUSH1 0x4 ADD PUSH1 0x40 MLOAD DUP1 SWAP2 SUB SWAP1 REVERT JUMPDEST PUSH1 0x40 DUP1 MLOAD PUSH1 0x60 DUP2 ADD DUP3 MSTORE DUP5 DUP2 MSTORE PUSH20 0xFFFFFFFFFFFFFFFFFFFFFFFFFFFFFFFFFFFFFFFF DUP5 AND PUSH1 0x20 DUP1 DUP4 ADD DUP3 SWAP1 MSTORE PUSH4 0xFFFFFFFF DUP6 AND SWAP3 DUP5 ADD DUP4 SWAP1 MSTORE PUSH1 0x5 DUP8 SWAP1 SSTORE PUSH1 0x6 DUP1 SLOAD PUSH32 0xFFFFFFFFFFFFFFFF000000000000000000000000000000000000000000000000 AND DUP4 OR PUSH21 0x10000000000000000000000000000000000000000 DUP6 MUL OR SWAP1 SSTORE DUP4 MLOAD DUP8 DUP2 MSTORE SWAP1 DUP2 ADD SWAP3 SWAP1 SWAP3 MSTORE SWAP2 PUSH32 0x839A37B5B1CD70BFBEB28899E2AB5FE4CDDB2731435190BD54F2E2924B84B77B SWAP2 ADD PUSH1 0x40 MLOAD DUP1 SWAP2 SUB SWAP1 LOG2 POP POP POP JUMP JUMPDEST PUSH1 0x0 DUP1 PUSH2 0x1555 PUSH2 0x6D7 JUMP JUMPDEST PUSH1 0x5 SLOAD SWAP1 SWAP2 POP PUSH2 0x7AE SWAP1 DUP3 PUSH2 0x1814 JUMP JUMPDEST PUSH20 0xFFFFFFFFFFFFFFFFFFFFFFFFFFFFFFFFFFFFFFFF DUP2 AND DUP2 EQ PUSH2 0x5ED JUMPI PUSH1 0x0 DUP1 REVERT JUMPDEST PUSH1 0x0 PUSH1 0x20 DUP3 DUP5 SUB SLT ISZERO PUSH2 0x1599 JUMPI PUSH1 0x0 DUP1 REVERT JUMPDEST DUP2 CALLDATALOAD PUSH2 0x803 DUP2 PUSH2 0x1565 JUMP JUMPDEST PUSH1 0x0 PUSH1 0x20 DUP1 DUP4 MSTORE DUP4 MLOAD DUP1 DUP3 DUP6 ADD MSTORE PUSH1 0x0 JUMPDEST DUP2 DUP2 LT ISZERO PUSH2 0x15D1 JUMPI DUP6 DUP2 ADD DUP4 ADD MLOAD DUP6 DUP3 ADD PUSH1 0x40 ADD MSTORE DUP3 ADD PUSH2 0x15B5 JUMP JUMPDEST DUP2 DUP2 GT ISZERO PUSH2 0x15E3 JUMPI PUSH1 0x0 PUSH1 0x40 DUP4 DUP8 ADD ADD MSTORE JUMPDEST POP PUSH1 0x1F ADD PUSH32 0xFFFFFFFFFFFFFFFFFFFFFFFFFFFFFFFFFFFFFFFFFFFFFFFFFFFFFFFFFFFFFFE0 AND SWAP3 SWAP1 SWAP3 ADD PUSH1 0x40 ADD SWAP4 SWAP3 POP POP POP JUMP JUMPDEST PUSH32 0x4E487B7100000000000000000000000000000000000000000000000000000000 PUSH1 0x0 MSTORE PUSH1 0x41 PUSH1 0x4 MSTORE PUSH1 0x24 PUSH1 0x0 REVERT JUMPDEST PUSH1 0x0 DUP1 PUSH1 0x40 DUP4 DUP6 SUB SLT ISZERO PUSH2 0x1659 JUMPI PUSH1 0x0 DUP1 REVERT JUMPDEST DUP3 CALLDATALOAD PUSH2 0x1664 DUP2 PUSH2 0x1565 JUMP JUMPDEST SWAP2 POP PUSH1 0x20 DUP4 ADD CALLDATALOAD PUSH8 0xFFFFFFFFFFFFFFFF DUP1 DUP3 GT ISZERO PUSH2 0x1681 JUMPI PUSH1 0x0 DUP1 REVERT JUMPDEST DUP2 DUP6 ADD SWAP2 POP DUP6 PUSH1 0x1F DUP4 ADD SLT PUSH2 0x1695 JUMPI PUSH1 0x0 DUP1 REVERT JUMPDEST DUP2 CALLDATALOAD DUP2 DUP2 GT ISZERO PUSH2 0x16A7 JUMPI PUSH2 0x16A7 PUSH2 0x1617 JUMP JUMPDEST PUSH1 0x40 MLOAD PUSH1 0x1F DUP3 ADD PUSH32 0xFFFFFFFFFFFFFFFFFFFFFFFFFFFFFFFFFFFFFFFFFFFFFFFFFFFFFFFFFFFFFFE0 SWAP1 DUP2 AND PUSH1 0x3F ADD AND DUP2 ADD SWAP1 DUP4 DUP3 GT DUP2 DUP4 LT OR ISZERO PUSH2 0x16ED JUMPI PUSH2 0x16ED PUSH2 0x1617 JUMP JUMPDEST DUP2 PUSH1 0x40 MSTORE DUP3 DUP2 MSTORE DUP9 PUSH1 0x20 DUP5 DUP8 ADD ADD GT ISZERO PUSH2 0x1706 JUMPI PUSH1 0x0 DUP1 REVERT JUMPDEST DUP3 PUSH1 0x20 DUP7 ADD PUSH1 0x20 DUP4 ADD CALLDATACOPY PUSH1 0x0 PUSH1 0x20 DUP5 DUP4 ADD ADD MSTORE DUP1 SWAP6 POP POP POP POP POP POP SWAP3 POP SWAP3 SWAP1 POP JUMP JUMPDEST PUSH1 0x0 DUP1 PUSH1 0x0 DUP1 PUSH1 0x80 DUP6 DUP8 SUB SLT ISZERO PUSH2 0x173E JUMPI PUSH1 0x0 DUP1 REVERT JUMPDEST POP POP DUP3 CALLDATALOAD SWAP5 PUSH1 0x20 DUP5 ADD CALLDATALOAD SWAP5 POP PUSH1 0x40 DUP5 ADD CALLDATALOAD SWAP4 PUSH1 0x60 ADD CALLDATALOAD SWAP3 POP SWAP1 POP JUMP JUMPDEST PUSH1 0x0 DUP1 PUSH1 0x0 PUSH1 0x60 DUP5 DUP7 SUB SLT ISZERO PUSH2 0x176F JUMPI PUSH1 0x0 DUP1 REVERT JUMPDEST DUP4 CALLDATALOAD SWAP3 POP PUSH1 0x20 DUP5 ADD CALLDATALOAD PUSH2 0x1781 DUP2 PUSH2 0x1565 JUMP JUMPDEST SWAP2 POP PUSH1 0x40 DUP5 ADD CALLDATALOAD PUSH4 0xFFFFFFFF DUP2 AND DUP2 EQ PUSH2 0x179A JUMPI PUSH1 0x0 DUP1 REVERT JUMPDEST DUP1 SWAP2 POP POP SWAP3 POP SWAP3 POP SWAP3 JUMP JUMPDEST DUP1 MLOAD PUSH10 0xFFFFFFFFFFFFFFFFFFFF DUP2 AND DUP2 EQ PUSH2 0x17BF JUMPI PUSH1 0x0 DUP1 REVERT JUMPDEST SWAP2 SWAP1 POP JUMP JUMPDEST PUSH1 0x0 DUP1 PUSH1 0x0 DUP1 PUSH1 0x0 PUSH1 0xA0 DUP7 DUP9 SUB SLT ISZERO PUSH2 0x17DC JUMPI PUSH1 0x0 DUP1 REVERT JUMPDEST PUSH2 0x17E5 DUP7 PUSH2 0x17A5 JUMP JUMPDEST SWAP5 POP PUSH1 0x20 DUP7 ADD MLOAD SWAP4 POP PUSH1 0x40 DUP7 ADD MLOAD SWAP3 POP PUSH1 0x60 DUP7 ADD MLOAD SWAP2 POP PUSH2 0x1808 PUSH1 0x80 DUP8 ADD PUSH2 0x17A5 JUMP JUMPDEST SWAP1 POP SWAP3 SWAP6 POP SWAP3 SWAP6 SWAP1 SWAP4 POP JUMP JUMPDEST PUSH1 0x0 DUP2 PUSH32 0xFFFFFFFFFFFFFFFFFFFFFFFFFFFFFFFFFFFFFFFFFFFFFFFFFFFFFFFFFFFFFFFF DIV DUP4 GT DUP3 ISZERO ISZERO AND ISZERO PUSH2 0x1873 JUMPI PUSH32 0x4E487B7100000000000000000000000000000000000000000000000000000000 PUSH1 0x0 MSTORE PUSH1 0x11 PUSH1 0x4 MSTORE PUSH1 0x24 PUSH1 0x0 REVERT JUMPDEST POP MUL SWAP1 JUMP JUMPDEST PUSH1 0x0 DUP3 PUSH2 0x18AE JUMPI PUSH32 0x4E487B7100000000000000000000000000000000000000000000000000000000 PUSH1 0x0 MSTORE PUSH1 0x12 PUSH1 0x4 MSTORE PUSH1 0x24 PUSH1 0x0 REVERT JUMPDEST POP DIV SWAP1 JUMP JUMPDEST PUSH20 0xFFFFFFFFFFFFFFFFFFFFFFFFFFFFFFFFFFFFFFFF DUP5 AND DUP2 MSTORE PUSH1 0x40 PUSH1 0x20 DUP3 ADD MSTORE DUP2 PUSH1 0x40 DUP3 ADD MSTORE DUP2 DUP4 PUSH1 0x60 DUP4 ADD CALLDATACOPY PUSH1 0x0 DUP2 DUP4 ADD PUSH1 0x60 SWAP1 DUP2 ADD SWAP2 SWAP1 SWAP2 MSTORE PUSH1 0x1F SWAP1 SWAP3 ADD PUSH32 0xFFFFFFFFFFFFFFFFFFFFFFFFFFFFFFFFFFFFFFFFFFFFFFFFFFFFFFFFFFFFFFE0 AND ADD ADD SWAP3 SWAP2 POP POP JUMP JUMPDEST PUSH1 0x0 PUSH1 0x20 DUP3 DUP5 SUB SLT ISZERO PUSH2 0x192F JUMPI PUSH1 0x0 DUP1 REVERT JUMPDEST DUP2 MLOAD DUP1 ISZERO ISZERO DUP2 EQ PUSH2 0x803 JUMPI PUSH1 0x0 DUP1 REVERT JUMPDEST PUSH32 0x4E487B7100000000000000000000000000000000000000000000000000000000 PUSH1 0x0 MSTORE PUSH1 0x32 PUSH1 0x4 MSTORE PUSH1 0x24 PUSH1 0x0 REVERT JUMPDEST PUSH1 0x0 PUSH1 0x60 DUP3 ADD DUP6 DUP4 MSTORE PUSH1 0x20 DUP6 DUP2 DUP6 ADD MSTORE PUSH1 0x60 PUSH1 0x40 DUP6 ADD MSTORE DUP2 DUP6 MLOAD DUP1 DUP5 MSTORE PUSH1 0x80 DUP7 ADD SWAP2 POP DUP3 DUP8 ADD SWAP4 POP PUSH1 0x0 JUMPDEST DUP2 DUP2 LT ISZERO PUSH2 0x19B5 JUMPI DUP5 MLOAD DUP4 MSTORE SWAP4 DUP4 ADD SWAP4 SWAP2 DUP4 ADD SWAP2 PUSH1 0x1 ADD PUSH2 0x1999 JUMP JUMPDEST POP SWAP1 SWAP9 SWAP8 POP POP POP POP POP POP POP POP JUMP JUMPDEST PUSH1 0x0 DUP1 PUSH1 0x40 DUP4 DUP6 SUB SLT ISZERO PUSH2 0x19D6 JUMPI PUSH1 0x0 DUP1 REVERT JUMPDEST POP POP DUP1 MLOAD PUSH1 0x20 SWAP1 SWAP2 ADD MLOAD SWAP1 SWAP3 SWAP1 SWAP2 POP JUMP INVALID LOG1 PUSH5 0x736F6C6343 STOP ADDMOD 0xF STOP EXP "},"methodIdentifiers":{"L2_UPTIME_FEED_ADDR()":"122555ff","SELECTOR_STARK_UPDATE_STATUS()":"2eef1711","STARKNET_CROSS_DOMAIN_MESSENGER()":"f6d63790","acceptOwnership()":"79ba5097","addAccess(address)":"a118f249","approximateGasPrice()":"6242a62d","checkEnabled()":"dc7f0124","disableAccessCheck()":"0a756983","enableAccessCheck()":"8038e4a1","getConfigAC()":"1108d587","getGasConfig()":"4b5c54c0","getSourceAggregator()":"cfc6ab87","hasAccess(address,bytes)":"6b14daf8","owner()":"8da5cb5b","removeAccess(address)":"8823da6c","retry()":"fae8fb2c","setConfigAC(address)":"02163e6c","setGasConfig(uint256,address,uint32)":"fe212f7d","setSourceAggregator(address)":"ec86b00c","transferOwnership(address)":"f2fde38b","typeAndVersion()":"181f5a77","validate(uint256,int256,uint256,int256)":"beed9b51","withdrawFunds()":"24600fc3","withdrawFundsTo(address)":"a2e6e0eb"}}}}}