{"vendor/starkware-libs/cairo-lang/src/starkware/starknet/solidity/StarknetMessaging.sol":{"StarknetMessaging":{"abi":[{"anonymous":false,"inputs":[{"indexed":true,"internalType":"uint256","name":"fromAddress","type":"uint256"},{"indexed":true,"internalType":"address","name":"toAddress","type":"address"},{"indexed":false,"internalType":"uint256[]","name":"payload","type":"uint256[]"}],"name":"ConsumedMessageToL1","type":"event"},{"anonymous":false,"inputs":[{"indexed":true,"internalType":"address","name":"fromAddress","type":"address"},{"indexed":true,"internalType":"uint256","name":"toAddress","type":"uint256"},{"indexed":true,"internalType":"uint256","name":"selector","type":"uint256"},{"indexed":false,"internalType":"uint256[]","name":"payload","type":"uint256[]"},{"indexed":false,"internalType":"uint256","name":"nonce","type":"uint256"}],"name":"ConsumedMessageToL2","type":"event"},{"anonymous":false,"inputs":[{"indexed":true,"internalType":"uint256","name":"fromAddress","type":"uint256"},{"indexed":true,"internalType":"address","name":"toAddress","type":"address"},{"indexed":false,"internalType":"uint256[]","name":"payload","type":"uint256[]"}],"name":"LogMessageToL1","type":"event"},{"anonymous":false,"inputs":[{"indexed":true,"internalType":"address","name":"fromAddress","type":"address"},{"indexed":true,"internalType":"uint256","name":"toAddress","type":"uint256"},{"indexed":true,"internalType":"uint256","name":"selector","type":"uint256"},{"indexed":false,"internalType":"uint256[]","name":"payload","type":"uint256[]"},{"indexed":false,"internalType":"uint256","name":"nonce","type":"uint256"},{"indexed":false,"internalType":"uint256","name":"fee","type":"uint256"}],"name":"LogMessageToL2","type":"event"},{"anonymous":false,"inputs":[{"indexed":true,"internalType":"address","name":"fromAddress","type":"address"},{"indexed":true,"internalType":"uint256","name":"toAddress","type":"uint256"},{"indexed":true,"internalType":"uint256","name":"selector","type":"uint256"},{"indexed":false,"internalType":"uint256[]","name":"payload","type":"uint256[]"},{"indexed":false,"internalType":"uint256","name":"nonce","type":"uint256"}],"name":"MessageToL2Canceled","type":"event"},{"anonymous":false,"inputs":[{"indexed":true,"internalType":"address","name":"fromAddress","type":"address"},{"indexed":true,"internalType":"uint256","name":"toAddress","type":"uint256"},{"indexed":true,"internalType":"uint256","name":"selector","type":"uint256"},{"indexed":false,"internalType":"uint256[]","name":"payload","type":"uint256[]"},{"indexed":false,"internalType":"uint256","name":"nonce","type":"uint256"}],"name":"MessageToL2CancellationStarted","type":"event"},{"inputs":[{"internalType":"uint256","name":"toAddress","type":"uint256"},{"internalType":"uint256","name":"selector","type":"uint256"},{"internalType":"uint256[]","name":"payload","type":"uint256[]"},{"internalType":"uint256","name":"nonce","type":"uint256"}],"name":"cancelL1ToL2Message","outputs":[{"internalType":"bytes32","name":"","type":"bytes32"}],"stateMutability":"nonpayable","type":"function"},{"inputs":[{"internalType":"uint256","name":"fromAddress","type":"uint256"},{"internalType":"uint256[]","name":"payload","type":"uint256[]"}],"name":"consumeMessageFromL2","outputs":[{"internalType":"bytes32","name":"","type":"bytes32"}],"stateMutability":"nonpayable","type":"function"},{"inputs":[],"name":"getMaxL1MsgFee","outputs":[{"internalType":"uint256","name":"","type":"uint256"}],"stateMutability":"pure","type":"function"},{"inputs":[{"internalType":"bytes32","name":"msgHash","type":"bytes32"}],"name":"l1ToL2MessageCancellations","outputs":[{"internalType":"uint256","name":"","type":"uint256"}],"stateMutability":"view","type":"function"},{"inputs":[],"name":"l1ToL2MessageNonce","outputs":[{"internalType":"uint256","name":"","type":"uint256"}],"stateMutability":"view","type":"function"},{"inputs":[{"internalType":"bytes32","name":"msgHash","type":"bytes32"}],"name":"l1ToL2Messages","outputs":[{"internalType":"uint256","name":"","type":"uint256"}],"stateMutability":"view","type":"function"},{"inputs":[{"internalType":"bytes32","name":"msgHash","type":"bytes32"}],"name":"l2ToL1Messages","outputs":[{"internalType":"uint256","name":"","type":"uint256"}],"stateMutability":"view","type":"function"},{"inputs":[],"name":"messageCancellationDelay","outputs":[{"internalType":"uint256","name":"","type":"uint256"}],"stateMutability":"view","type":"function"},{"inputs":[{"internalType":"uint256","name":"toAddress","type":"uint256"},{"internalType":"uint256","name":"selector","type":"uint256"},{"internalType":"uint256[]","name":"payload","type":"uint256[]"}],"name":"sendMessageToL2","outputs":[{"internalType":"bytes32","name":"","type":"bytes32"},{"internalType":"uint256","name":"","type":"uint256"}],"stateMutability":"payable","type":"function"},{"inputs":[{"internalType":"uint256","name":"toAddress","type":"uint256"},{"internalType":"uint256","name":"selector","type":"uint256"},{"internalType":"uint256[]","name":"payload","type":"uint256[]"},{"internalType":"uint256","name":"nonce","type":"uint256"}],"name":"startL1ToL2MessageCancellation","outputs":[{"internalType":"bytes32","name":"","type":"bytes32"}],"stateMutability":"nonpayable","type":"function"}],"evm":{"bytecode":{"linkReferences":{},"object":"608060405234801561001057600080fd5b50610f25806100206000396000f3fe6080604052600436106100b15760003560e01c806377c7d7a9116100695780638303bd8a1161004e5780638303bd8a146101a15780639be446bf146101b6578063a46efaf3146101d657600080fd5b806377c7d7a9146101615780637a98660b1461018157600080fd5b80633e3aa6c51161009a5780633e3aa6c5146100fe57806354eccba4146101265780636170ff1b1461014157600080fd5b8063018cccdf146100b65780632c9dd5c0146100de575b600080fd5b3480156100c257600080fd5b506100cb6101f6565b6040519081526020015b60405180910390f35b3480156100ea57600080fd5b506100cb6100f9366004610b68565b61023b565b61011161010c366004610bb4565b610380565b604080519283526020830191909152016100d5565b34801561013257600080fd5b50670de0b6b3a76400006100cb565b34801561014d57600080fd5b506100cb61015c366004610c07565b610572565b34801561016d57600080fd5b506100cb61017c366004610c62565b610840565b34801561018d57600080fd5b506100cb61019c366004610c07565b61085b565b3480156101ad57600080fd5b506100cb610969565b3480156101c257600080fd5b506100cb6101d1366004610c62565b61098c565b3480156101e257600080fd5b506100cb6101f1366004610c62565b610996565b60006102366040518060400160405280602081526020017f535441524b4e45545f312e305f4d5347494e475f4c31544f4c325f4e4f4e43458152506109a0565b905090565b60405160009081906102599086903390869088908290602001610cc1565b604051602081830303815290604052805190602001209050600061027b6109f2565b60008381526020919091526040902054116102f7576040517f08c379a000000000000000000000000000000000000000000000000000000000815260206004820152601a60248201527f494e56414c49445f4d4553534147455f544f5f434f4e53554d4500000000000060448201526064015b60405180910390fd5b3373ffffffffffffffffffffffffffffffffffffffff16857f7a06c571aa77f34d9706c51e5d8122b5595aebeaa34233bfe866f22befb973b18686604051610340929190610d3a565b60405180910390a360016103526109f2565b600083815260200190815260200160002060008282546103729190610d85565b909155509095945050505050565b60008060003411610413576040517f08c379a000000000000000000000000000000000000000000000000000000000815260206004820152602160248201527f4c315f4d53475f4645455f4d5553545f42455f475245415445525f5448414e5f60448201527f300000000000000000000000000000000000000000000000000000000000000060648201526084016102ee565b670de0b6b3a7640000341115610485576040517f08c379a000000000000000000000000000000000000000000000000000000000815260206004820152601760248201527f4d41585f4c315f4d53475f4645455f455843454544454400000000000000000060448201526064016102ee565b600061048f6101f6565b90506104dc6040518060400160405280602081526020017f535441524b4e45545f312e305f4d5347494e475f4c31544f4c325f4e4f4e43458152508260016104d79190610d9c565b610a15565b85873373ffffffffffffffffffffffffffffffffffffffff167fdb80dd488acf86d17c747445b0eabb5d57c541d3bd7b6b87af987858e5066b2b8888863460405161052a9493929190610db4565b60405180910390a460006105418888888886610a48565b905061054e346001610d9c565b610556610a89565b6000838152602091909152604090205597909650945050505050565b600084863373ffffffffffffffffffffffffffffffffffffffff167f8abd2ec2e0a10c82f5b60ea00455fa96c41fd144f225fcc52b8d83d94f803ed88787876040516105c093929190610ddb565b60405180910390a460006105d78787878787610a48565b905060006105e3610a89565b60008381526020919091526040812054915081900361065e576040517f08c379a000000000000000000000000000000000000000000000000000000000815260206004820152601460248201527f4e4f5f4d4553534147455f544f5f43414e43454c00000000000000000000000060448201526064016102ee565b6000610668610aac565b600084815260209190915260408120549150819003610709576040517f08c379a000000000000000000000000000000000000000000000000000000000815260206004820152602260248201527f4d4553534147455f43414e43454c4c4154494f4e5f4e4f545f5245515545535460448201527f454400000000000000000000000000000000000000000000000000000000000060648201526084016102ee565b6000610713610969565b61071d9083610d9c565b905081811015610789576040517f08c379a000000000000000000000000000000000000000000000000000000000815260206004820152601c60248201527f43414e43454c5f414c4c4f5745445f54494d455f4f564552464c4f570000000060448201526064016102ee565b80421015610818576040517f08c379a0000000000000000000000000000000000000000000000000000000008152602060048201526024808201527f4d4553534147455f43414e43454c4c4154494f4e5f4e4f545f414c4c4f57454460448201527f5f5945540000000000000000000000000000000000000000000000000000000060648201526084016102ee565b6000610822610a89565b60008681526020919091526040902055509198975050505050505050565b600061084a610a89565b600092835260205250604090205490565b600084863373ffffffffffffffffffffffffffffffffffffffff167f2e00dccd686fd6823ec7dc3e125582aa82881b6ff5f6b5a73856e1ea8338a3be8787876040516108a993929190610ddb565b60405180910390a460006108c08787878787610a48565b905060006108cc610a89565b60008381526020919091526040902054905080610945576040517f08c379a000000000000000000000000000000000000000000000000000000000815260206004820152601460248201527f4e4f5f4d4553534147455f544f5f43414e43454c00000000000000000000000060448201526064016102ee565b4261094e610aac565b60008481526020919091526040902055509695505050505050565b60006102366040518060600160405280602d8152602001610ea3602d91396109a0565b600061084a610aac565b600061084a6109f2565b600080826040516020016109b49190610dff565b604080517fffffffffffffffffffffffffffffffffffffffffffffffffffffffffffffffe08184030181529190528051602090910120549392505050565b6000610236604051806060016040528060238152602001610ed060239139610acb565b600082604051602001610a289190610dff565b604051602081830303815290604052805190602001209050818155505050565b604051600090610a6890339088908590899088908a908290602001610e3a565b60405160208183030381529060405280519060200120905095945050505050565b6000610236604051806060016040528060268152602001610ef360269139610acb565b6000610236604051806060016040528060308152602001610e73603091395b60008082604051602001610adf9190610dff565b604080517fffffffffffffffffffffffffffffffffffffffffffffffffffffffffffffffe081840301815291905280516020909101209392505050565b60008083601f840112610b2e57600080fd5b50813567ffffffffffffffff811115610b4657600080fd5b6020830191508360208260051b8501011115610b6157600080fd5b9250929050565b600080600060408486031215610b7d57600080fd5b83359250602084013567ffffffffffffffff811115610b9b57600080fd5b610ba786828701610b1c565b9497909650939450505050565b60008060008060608587031215610bca57600080fd5b8435935060208501359250604085013567ffffffffffffffff811115610bef57600080fd5b610bfb87828801610b1c565b95989497509550505050565b600080600080600060808688031215610c1f57600080fd5b8535945060208601359350604086013567ffffffffffffffff811115610c4457600080fd5b610c5088828901610b1c565b96999598509660600135949350505050565b600060208284031215610c7457600080fd5b5035919050565b60007f07ffffffffffffffffffffffffffffffffffffffffffffffffffffffffffffff831115610caa57600080fd5b8260051b8083863760009401938452509192915050565b8581528460208201528360408201526000610ce0606083018486610c7b565b979650505050505050565b81835260007f07ffffffffffffffffffffffffffffffffffffffffffffffffffffffffffffff831115610d1d57600080fd5b8260051b8083602087013760009401602001938452509192915050565b602081526000610d4e602083018486610ceb565b949350505050565b7f4e487b7100000000000000000000000000000000000000000000000000000000600052601160045260246000fd5b600082821015610d9757610d97610d56565b500390565b60008219821115610daf57610daf610d56565b500190565b606081526000610dc8606083018688610ceb565b6020830194909452506040015292915050565b604081526000610def604083018587610ceb565b9050826020830152949350505050565b6000825160005b81811015610e205760208186018101518583015201610e06565b81811115610e2f576000828501525b509190910192915050565b8781528660208201528560408201528460608201528360808201526000610e6560a083018486610c7b565b999850505050505050505056fe535441524b4e45545f312e305f4d5347494e475f4c31544f4c325f43414e43454c4c4154494f4e5f4d41505050494e47535441524b4e45545f312e305f4d5347494e475f4c31544f4c325f43414e43454c4c4154494f4e5f44454c4159535441524b4e45545f312e305f4d5347494e475f4c32544f4c315f4d41505050494e47535441524b4e45545f312e305f4d5347494e475f4c31544f4c325f4d41505050494e475f5632a164736f6c634300080f000a","opcodes":"PUSH1 0x80 PUSH1 0x40 MSTORE CALLVALUE DUP1 ISZERO PUSH2 0x10 JUMPI PUSH1 0x0 DUP1 REVERT JUMPDEST POP PUSH2 0xF25 DUP1 PUSH2 0x20 PUSH1 0x0 CODECOPY PUSH1 0x0 RETURN INVALID PUSH1 0x80 PUSH1 0x40 MSTORE PUSH1 0x4 CALLDATASIZE LT PUSH2 0xB1 JUMPI PUSH1 0x0 CALLDATALOAD PUSH1 0xE0 SHR DUP1 PUSH4 0x77C7D7A9 GT PUSH2 0x69 JUMPI DUP1 PUSH4 0x8303BD8A GT PUSH2 0x4E JUMPI DUP1 PUSH4 0x8303BD8A EQ PUSH2 0x1A1 JUMPI DUP1 PUSH4 0x9BE446BF EQ PUSH2 0x1B6 JUMPI DUP1 PUSH4 0xA46EFAF3 EQ PUSH2 0x1D6 JUMPI PUSH1 0x0 DUP1 REVERT JUMPDEST DUP1 PUSH4 0x77C7D7A9 EQ PUSH2 0x161 JUMPI DUP1 PUSH4 0x7A98660B EQ PUSH2 0x181 JUMPI PUSH1 0x0 DUP1 REVERT JUMPDEST DUP1 PUSH4 0x3E3AA6C5 GT PUSH2 0x9A JUMPI DUP1 PUSH4 0x3E3AA6C5 EQ PUSH2 0xFE JUMPI DUP1 PUSH4 0x54ECCBA4 EQ PUSH2 0x126 JUMPI DUP1 PUSH4 0x6170FF1B EQ PUSH2 0x141 JUMPI PUSH1 0x0 DUP1 REVERT JUMPDEST DUP1 PUSH4 0x18CCCDF EQ PUSH2 0xB6 JUMPI DUP1 PUSH4 0x2C9DD5C0 EQ PUSH2 0xDE JUMPI JUMPDEST PUSH1 0x0 DUP1 REVERT JUMPDEST CALLVALUE DUP1 ISZERO PUSH2 0xC2 JUMPI PUSH1 0x0 DUP1 REVERT JUMPDEST POP PUSH2 0xCB PUSH2 0x1F6 JUMP JUMPDEST PUSH1 0x40 MLOAD SWAP1 DUP2 MSTORE PUSH1 0x20 ADD JUMPDEST PUSH1 0x40 MLOAD DUP1 SWAP2 SUB SWAP1 RETURN JUMPDEST CALLVALUE DUP1 ISZERO PUSH2 0xEA JUMPI PUSH1 0x0 DUP1 REVERT JUMPDEST POP PUSH2 0xCB PUSH2 0xF9 CALLDATASIZE PUSH1 0x4 PUSH2 0xB68 JUMP JUMPDEST PUSH2 0x23B JUMP JUMPDEST PUSH2 0x111 PUSH2 0x10C CALLDATASIZE PUSH1 0x4 PUSH2 0xBB4 JUMP JUMPDEST PUSH2 0x380 JUMP JUMPDEST PUSH1 0x40 DUP1 MLOAD SWAP3 DUP4 MSTORE PUSH1 0x20 DUP4 ADD SWAP2 SWAP1 SWAP2 MSTORE ADD PUSH2 0xD5 JUMP JUMPDEST CALLVALUE DUP1 ISZERO PUSH2 0x132 JUMPI PUSH1 0x0 DUP1 REVERT JUMPDEST POP PUSH8 0xDE0B6B3A7640000 PUSH2 0xCB JUMP JUMPDEST CALLVALUE DUP1 ISZERO PUSH2 0x14D JUMPI PUSH1 0x0 DUP1 REVERT JUMPDEST POP PUSH2 0xCB PUSH2 0x15C CALLDATASIZE PUSH1 0x4 PUSH2 0xC07 JUMP JUMPDEST PUSH2 0x572 JUMP JUMPDEST CALLVALUE DUP1 ISZERO PUSH2 0x16D JUMPI PUSH1 0x0 DUP1 REVERT JUMPDEST POP PUSH2 0xCB PUSH2 0x17C CALLDATASIZE PUSH1 0x4 PUSH2 0xC62 JUMP JUMPDEST PUSH2 0x840 JUMP JUMPDEST CALLVALUE DUP1 ISZERO PUSH2 0x18D JUMPI PUSH1 0x0 DUP1 REVERT JUMPDEST POP PUSH2 0xCB PUSH2 0x19C CALLDATASIZE PUSH1 0x4 PUSH2 0xC07 JUMP JUMPDEST PUSH2 0x85B JUMP JUMPDEST CALLVALUE DUP1 ISZERO PUSH2 0x1AD JUMPI PUSH1 0x0 DUP1 REVERT JUMPDEST POP PUSH2 0xCB PUSH2 0x969 JUMP JUMPDEST CALLVALUE DUP1 ISZERO PUSH2 0x1C2 JUMPI PUSH1 0x0 DUP1 REVERT JUMPDEST POP PUSH2 0xCB PUSH2 0x1D1 CALLDATASIZE PUSH1 0x4 PUSH2 0xC62 JUMP JUMPDEST PUSH2 0x98C JUMP JUMPDEST CALLVALUE DUP1 ISZERO PUSH2 0x1E2 JUMPI PUSH1 0x0 DUP1 REVERT JUMPDEST POP PUSH2 0xCB PUSH2 0x1F1 CALLDATASIZE PUSH1 0x4 PUSH2 0xC62 JUMP JUMPDEST PUSH2 0x996 JUMP JUMPDEST PUSH1 0x0 PUSH2 0x236 PUSH1 0x40 MLOAD DUP1 PUSH1 0x40 ADD PUSH1 0x40 MSTORE DUP1 PUSH1 0x20 DUP2 MSTORE PUSH1 0x20 ADD PUSH32 0x535441524B4E45545F312E305F4D5347494E475F4C31544F4C325F4E4F4E4345 DUP2 MSTORE POP PUSH2 0x9A0 JUMP JUMPDEST SWAP1 POP SWAP1 JUMP JUMPDEST PUSH1 0x40 MLOAD PUSH1 0x0 SWAP1 DUP2 SWAP1 PUSH2 0x259 SWAP1 DUP7 SWAP1 CALLER SWAP1 DUP7 SWAP1 DUP9 SWAP1 DUP3 SWAP1 PUSH1 0x20 ADD PUSH2 0xCC1 JUMP JUMPDEST PUSH1 0x40 MLOAD PUSH1 0x20 DUP2 DUP4 SUB SUB DUP2 MSTORE SWAP1 PUSH1 0x40 MSTORE DUP1 MLOAD SWAP1 PUSH1 0x20 ADD KECCAK256 SWAP1 POP PUSH1 0x0 PUSH2 0x27B PUSH2 0x9F2 JUMP JUMPDEST PUSH1 0x0 DUP4 DUP2 MSTORE PUSH1 0x20 SWAP2 SWAP1 SWAP2 MSTORE PUSH1 0x40 SWAP1 KECCAK256 SLOAD GT PUSH2 0x2F7 JUMPI PUSH1 0x40 MLOAD PUSH32 0x8C379A000000000000000000000000000000000000000000000000000000000 DUP2 MSTORE PUSH1 0x20 PUSH1 0x4 DUP3 ADD MSTORE PUSH1 0x1A PUSH1 0x24 DUP3 ADD MSTORE PUSH32 0x494E56414C49445F4D4553534147455F544F5F434F4E53554D45000000000000 PUSH1 0x44 DUP3 ADD MSTORE PUSH1 0x64 ADD JUMPDEST PUSH1 0x40 MLOAD DUP1 SWAP2 SUB SWAP1 REVERT JUMPDEST CALLER PUSH20 0xFFFFFFFFFFFFFFFFFFFFFFFFFFFFFFFFFFFFFFFF AND DUP6 PUSH32 0x7A06C571AA77F34D9706C51E5D8122B5595AEBEAA34233BFE866F22BEFB973B1 DUP7 DUP7 PUSH1 0x40 MLOAD PUSH2 0x340 SWAP3 SWAP2 SWAP1 PUSH2 0xD3A JUMP JUMPDEST PUSH1 0x40 MLOAD DUP1 SWAP2 SUB SWAP1 LOG3 PUSH1 0x1 PUSH2 0x352 PUSH2 0x9F2 JUMP JUMPDEST PUSH1 0x0 DUP4 DUP2 MSTORE PUSH1 0x20 ADD SWAP1 DUP2 MSTORE PUSH1 0x20 ADD PUSH1 0x0 KECCAK256 PUSH1 0x0 DUP3 DUP3 SLOAD PUSH2 0x372 SWAP2 SWAP1 PUSH2 0xD85 JUMP JUMPDEST SWAP1 SWAP2 SSTORE POP SWAP1 SWAP6 SWAP5 POP POP POP POP POP JUMP JUMPDEST PUSH1 0x0 DUP1 PUSH1 0x0 CALLVALUE GT PUSH2 0x413 JUMPI PUSH1 0x40 MLOAD PUSH32 0x8C379A000000000000000000000000000000000000000000000000000000000 DUP2 MSTORE PUSH1 0x20 PUSH1 0x4 DUP3 ADD MSTORE PUSH1 0x21 PUSH1 0x24 DUP3 ADD MSTORE PUSH32 0x4C315F4D53475F4645455F4D5553545F42455F475245415445525F5448414E5F PUSH1 0x44 DUP3 ADD MSTORE PUSH32 0x3000000000000000000000000000000000000000000000000000000000000000 PUSH1 0x64 DUP3 ADD MSTORE PUSH1 0x84 ADD PUSH2 0x2EE JUMP JUMPDEST PUSH8 0xDE0B6B3A7640000 CALLVALUE GT ISZERO PUSH2 0x485 JUMPI PUSH1 0x40 MLOAD PUSH32 0x8C379A000000000000000000000000000000000000000000000000000000000 DUP2 MSTORE PUSH1 0x20 PUSH1 0x4 DUP3 ADD MSTORE PUSH1 0x17 PUSH1 0x24 DUP3 ADD MSTORE PUSH32 0x4D41585F4C315F4D53475F4645455F4558434545444544000000000000000000 PUSH1 0x44 DUP3 ADD MSTORE PUSH1 0x64 ADD PUSH2 0x2EE JUMP JUMPDEST PUSH1 0x0 PUSH2 0x48F PUSH2 0x1F6 JUMP JUMPDEST SWAP1 POP PUSH2 0x4DC PUSH1 0x40 MLOAD DUP1 PUSH1 0x40 ADD PUSH1 0x40 MSTORE DUP1 PUSH1 0x20 DUP2 MSTORE PUSH1 0x20 ADD PUSH32 0x535441524B4E45545F312E305F4D5347494E475F4C31544F4C325F4E4F4E4345 DUP2 MSTORE POP DUP3 PUSH1 0x1 PUSH2 0x4D7 SWAP2 SWAP1 PUSH2 0xD9C JUMP JUMPDEST PUSH2 0xA15 JUMP JUMPDEST DUP6 DUP8 CALLER PUSH20 0xFFFFFFFFFFFFFFFFFFFFFFFFFFFFFFFFFFFFFFFF AND PUSH32 0xDB80DD488ACF86D17C747445B0EABB5D57C541D3BD7B6B87AF987858E5066B2B DUP9 DUP9 DUP7 CALLVALUE PUSH1 0x40 MLOAD PUSH2 0x52A SWAP5 SWAP4 SWAP3 SWAP2 SWAP1 PUSH2 0xDB4 JUMP JUMPDEST PUSH1 0x40 MLOAD DUP1 SWAP2 SUB SWAP1 LOG4 PUSH1 0x0 PUSH2 0x541 DUP9 DUP9 DUP9 DUP9 DUP7 PUSH2 0xA48 JUMP JUMPDEST SWAP1 POP PUSH2 0x54E CALLVALUE PUSH1 0x1 PUSH2 0xD9C JUMP JUMPDEST PUSH2 0x556 PUSH2 0xA89 JUMP JUMPDEST PUSH1 0x0 DUP4 DUP2 MSTORE PUSH1 0x20 SWAP2 SWAP1 SWAP2 MSTORE PUSH1 0x40 SWAP1 KECCAK256 SSTORE SWAP8 SWAP1 SWAP7 POP SWAP5 POP POP POP POP POP JUMP JUMPDEST PUSH1 0x0 DUP5 DUP7 CALLER PUSH20 0xFFFFFFFFFFFFFFFFFFFFFFFFFFFFFFFFFFFFFFFF AND PUSH32 0x8ABD2EC2E0A10C82F5B60EA00455FA96C41FD144F225FCC52B8D83D94F803ED8 DUP8 DUP8 DUP8 PUSH1 0x40 MLOAD PUSH2 0x5C0 SWAP4 SWAP3 SWAP2 SWAP1 PUSH2 0xDDB JUMP JUMPDEST PUSH1 0x40 MLOAD DUP1 SWAP2 SUB SWAP1 LOG4 PUSH1 0x0 PUSH2 0x5D7 DUP8 DUP8 DUP8 DUP8 DUP8 PUSH2 0xA48 JUMP JUMPDEST SWAP1 POP PUSH1 0x0 PUSH2 0x5E3 PUSH2 0xA89 JUMP JUMPDEST PUSH1 0x0 DUP4 DUP2 MSTORE PUSH1 0x20 SWAP2 SWAP1 SWAP2 MSTORE PUSH1 0x40 DUP2 KECCAK256 SLOAD SWAP2 POP DUP2 SWAP1 SUB PUSH2 0x65E JUMPI PUSH1 0x40 MLOAD PUSH32 0x8C379A000000000000000000000000000000000000000000000000000000000 DUP2 MSTORE PUSH1 0x20 PUSH1 0x4 DUP3 ADD MSTORE PUSH1 0x14 PUSH1 0x24 DUP3 ADD MSTORE PUSH32 0x4E4F5F4D4553534147455F544F5F43414E43454C000000000000000000000000 PUSH1 0x44 DUP3 ADD MSTORE PUSH1 0x64 ADD PUSH2 0x2EE JUMP JUMPDEST PUSH1 0x0 PUSH2 0x668 PUSH2 0xAAC JUMP JUMPDEST PUSH1 0x0 DUP5 DUP2 MSTORE PUSH1 0x20 SWAP2 SWAP1 SWAP2 MSTORE PUSH1 0x40 DUP2 KECCAK256 SLOAD SWAP2 POP DUP2 SWAP1 SUB PUSH2 0x709 JUMPI PUSH1 0x40 MLOAD PUSH32 0x8C379A000000000000000000000000000000000000000000000000000000000 DUP2 MSTORE PUSH1 0x20 PUSH1 0x4 DUP3 ADD MSTORE PUSH1 0x22 PUSH1 0x24 DUP3 ADD MSTORE PUSH32 0x4D4553534147455F43414E43454C4C4154494F4E5F4E4F545F52455155455354 PUSH1 0x44 DUP3 ADD MSTORE PUSH32 0x4544000000000000000000000000000000000000000000000000000000000000 PUSH1 0x64 DUP3 ADD MSTORE PUSH1 0x84 ADD PUSH2 0x2EE JUMP JUMPDEST PUSH1 0x0 PUSH2 0x713 PUSH2 0x969 JUMP JUMPDEST PUSH2 0x71D SWAP1 DUP4 PUSH2 0xD9C JUMP JUMPDEST SWAP1 POP DUP2 DUP2 LT ISZERO PUSH2 0x789 JUMPI PUSH1 0x40 MLOAD PUSH32 0x8C379A000000000000000000000000000000000000000000000000000000000 DUP2 MSTORE PUSH1 0x20 PUSH1 0x4 DUP3 ADD MSTORE PUSH1 0x1C PUSH1 0x24 DUP3 ADD MSTORE PUSH32 0x43414E43454C5F414C4C4F5745445F54494D455F4F564552464C4F5700000000 PUSH1 0x44 DUP3 ADD MSTORE PUSH1 0x64 ADD PUSH2 0x2EE JUMP JUMPDEST DUP1 TIMESTAMP LT ISZERO PUSH2 0x818 JUMPI PUSH1 0x40 MLOAD PUSH32 0x8C379A000000000000000000000000000000000000000000000000000000000 DUP2 MSTORE PUSH1 0x20 PUSH1 0x4 DUP3 ADD MSTORE PUSH1 0x24 DUP1 DUP3 ADD MSTORE PUSH32 0x4D4553534147455F43414E43454C4C4154494F4E5F4E4F545F414C4C4F574544 PUSH1 0x44 DUP3 ADD MSTORE PUSH32 0x5F59455400000000000000000000000000000000000000000000000000000000 PUSH1 0x64 DUP3 ADD MSTORE PUSH1 0x84 ADD PUSH2 0x2EE JUMP JUMPDEST PUSH1 0x0 PUSH2 0x822 PUSH2 0xA89 JUMP JUMPDEST PUSH1 0x0 DUP7 DUP2 MSTORE PUSH1 0x20 SWAP2 SWAP1 SWAP2 MSTORE PUSH1 0x40 SWAP1 KECCAK256 SSTORE POP SWAP2 SWAP9 SWAP8 POP POP POP POP POP POP POP POP JUMP JUMPDEST PUSH1 0x0 PUSH2 0x84A PUSH2 0xA89 JUMP JUMPDEST PUSH1 0x0 SWAP3 DUP4 MSTORE PUSH1 0x20 MSTORE POP PUSH1 0x40 SWAP1 KECCAK256 SLOAD SWAP1 JUMP JUMPDEST PUSH1 0x0 DUP5 DUP7 CALLER PUSH20 0xFFFFFFFFFFFFFFFFFFFFFFFFFFFFFFFFFFFFFFFF AND PUSH32 0x2E00DCCD686FD6823EC7DC3E125582AA82881B6FF5F6B5A73856E1EA8338A3BE DUP8 DUP8 DUP8 PUSH1 0x40 MLOAD PUSH2 0x8A9 SWAP4 SWAP3 SWAP2 SWAP1 PUSH2 0xDDB JUMP JUMPDEST PUSH1 0x40 MLOAD DUP1 SWAP2 SUB SWAP1 LOG4 PUSH1 0x0 PUSH2 0x8C0 DUP8 DUP8 DUP8 DUP8 DUP8 PUSH2 0xA48 JUMP JUMPDEST SWAP1 POP PUSH1 0x0 PUSH2 0x8CC PUSH2 0xA89 JUMP JUMPDEST PUSH1 0x0 DUP4 DUP2 MSTORE PUSH1 0x20 SWAP2 SWAP1 SWAP2 MSTORE PUSH1 0x40 SWAP1 KECCAK256 SLOAD SWAP1 POP DUP1 PUSH2 0x945 JUMPI PUSH1 0x40 MLOAD PUSH32 0x8C379A000000000000000000000000000000000000000000000000000000000 DUP2 MSTORE PUSH1 0x20 PUSH1 0x4 DUP3 ADD MSTORE PUSH1 0x14 PUSH1 0x24 DUP3 ADD MSTORE PUSH32 0x4E4F5F4D4553534147455F544F5F43414E43454C000000000000000000000000 PUSH1 0x44 DUP3 ADD MSTORE PUSH1 0x64 ADD PUSH2 0x2EE JUMP JUMPDEST TIMESTAMP PUSH2 0x94E PUSH2 0xAAC JUMP JUMPDEST PUSH1 0x0 DUP5 DUP2 MSTORE PUSH1 0x20 SWAP2 SWAP1 SWAP2 MSTORE PUSH1 0x40 SWAP1 KECCAK256 SSTORE POP SWAP7 SWAP6 POP POP POP POP POP POP JUMP JUMPDEST PUSH1 0x0 PUSH2 0x236 PUSH1 0x40 MLOAD DUP1 PUSH1 0x60 ADD PUSH1 0x40 MSTORE DUP1 PUSH1 0x2D DUP2 MSTORE PUSH1 0x20 ADD PUSH2 0xEA3 PUSH1 0x2D SWAP2 CODECOPY PUSH2 0x9A0 JUMP JUMPDEST PUSH1 0x0 PUSH2 0x84A PUSH2 0xAAC JUMP JUMPDEST PUSH1 0x0 PUSH2 0x84A PUSH2 0x9F2 JUMP JUMPDEST PUSH1 0x0 DUP1 DUP3 PUSH1 0x40 MLOAD PUSH1 0x20 ADD PUSH2 0x9B4 SWAP2 SWAP1 PUSH2 0xDFF JUMP JUMPDEST PUSH1 0x40 DUP1 MLOAD PUSH32 0xFFFFFFFFFFFFFFFFFFFFFFFFFFFFFFFFFFFFFFFFFFFFFFFFFFFFFFFFFFFFFFE0 DUP2 DUP5 SUB ADD DUP2 MSTORE SWAP2 SWAP1 MSTORE DUP1 MLOAD PUSH1 0x20 SWAP1 SWAP2 ADD KECCAK256 SLOAD SWAP4 SWAP3 POP POP POP JUMP JUMPDEST PUSH1 0x0 PUSH2 0x236 PUSH1 0x40 MLOAD DUP1 PUSH1 0x60 ADD PUSH1 0x40 MSTORE DUP1 PUSH1 0x23 DUP2 MSTORE PUSH1 0x20 ADD PUSH2 0xED0 PUSH1 0x23 SWAP2 CODECOPY PUSH2 0xACB JUMP JUMPDEST PUSH1 0x0 DUP3 PUSH1 0x40 MLOAD PUSH1 0x20 ADD PUSH2 0xA28 SWAP2 SWAP1 PUSH2 0xDFF JUMP JUMPDEST PUSH1 0x40 MLOAD PUSH1 0x20 DUP2 DUP4 SUB SUB DUP2 MSTORE SWAP1 PUSH1 0x40 MSTORE DUP1 MLOAD SWAP1 PUSH1 0x20 ADD KECCAK256 SWAP1 POP DUP2 DUP2 SSTORE POP POP POP JUMP JUMPDEST PUSH1 0x40 MLOAD PUSH1 0x0 SWAP1 PUSH2 0xA68 SWAP1 CALLER SWAP1 DUP9 SWAP1 DUP6 SWAP1 DUP10 SWAP1 DUP9 SWAP1 DUP11 SWAP1 DUP3 SWAP1 PUSH1 0x20 ADD PUSH2 0xE3A JUMP JUMPDEST PUSH1 0x40 MLOAD PUSH1 0x20 DUP2 DUP4 SUB SUB DUP2 MSTORE SWAP1 PUSH1 0x40 MSTORE DUP1 MLOAD SWAP1 PUSH1 0x20 ADD KECCAK256 SWAP1 POP SWAP6 SWAP5 POP POP POP POP POP JUMP JUMPDEST PUSH1 0x0 PUSH2 0x236 PUSH1 0x40 MLOAD DUP1 PUSH1 0x60 ADD PUSH1 0x40 MSTORE DUP1 PUSH1 0x26 DUP2 MSTORE PUSH1 0x20 ADD PUSH2 0xEF3 PUSH1 0x26 SWAP2 CODECOPY PUSH2 0xACB JUMP JUMPDEST PUSH1 0x0 PUSH2 0x236 PUSH1 0x40 MLOAD DUP1 PUSH1 0x60 ADD PUSH1 0x40 MSTORE DUP1 PUSH1 0x30 DUP2 MSTORE PUSH1 0x20 ADD PUSH2 0xE73 PUSH1 0x30 SWAP2 CODECOPY JUMPDEST PUSH1 0x0 DUP1 DUP3 PUSH1 0x40 MLOAD PUSH1 0x20 ADD PUSH2 0xADF SWAP2 SWAP1 PUSH2 0xDFF JUMP JUMPDEST PUSH1 0x40 DUP1 MLOAD PUSH32 0xFFFFFFFFFFFFFFFFFFFFFFFFFFFFFFFFFFFFFFFFFFFFFFFFFFFFFFFFFFFFFFE0 DUP2 DUP5 SUB ADD DUP2 MSTORE SWAP2 SWAP1 MSTORE DUP1 MLOAD PUSH1 0x20 SWAP1 SWAP2 ADD KECCAK256 SWAP4 SWAP3 POP POP POP JUMP JUMPDEST PUSH1 0x0 DUP1 DUP4 PUSH1 0x1F DUP5 ADD SLT PUSH2 0xB2E JUMPI PUSH1 0x0 DUP1 REVERT JUMPDEST POP DUP2 CALLDATALOAD PUSH8 0xFFFFFFFFFFFFFFFF DUP2 GT ISZERO PUSH2 0xB46 JUMPI PUSH1 0x0 DUP1 REVERT JUMPDEST PUSH1 0x20 DUP4 ADD SWAP2 POP DUP4 PUSH1 0x20 DUP3 PUSH1 0x5 SHL DUP6 ADD ADD GT ISZERO PUSH2 0xB61 JUMPI PUSH1 0x0 DUP1 REVERT JUMPDEST SWAP3 POP SWAP3 SWAP1 POP JUMP JUMPDEST PUSH1 0x0 DUP1 PUSH1 0x0 PUSH1 0x40 DUP5 DUP7 SUB SLT ISZERO PUSH2 0xB7D JUMPI PUSH1 0x0 DUP1 REVERT JUMPDEST DUP4 CALLDATALOAD SWAP3 POP PUSH1 0x20 DUP5 ADD CALLDATALOAD PUSH8 0xFFFFFFFFFFFFFFFF DUP2 GT ISZERO PUSH2 0xB9B JUMPI PUSH1 0x0 DUP1 REVERT JUMPDEST PUSH2 0xBA7 DUP7 DUP3 DUP8 ADD PUSH2 0xB1C JUMP JUMPDEST SWAP5 SWAP8 SWAP1 SWAP7 POP SWAP4 SWAP5 POP POP POP POP JUMP JUMPDEST PUSH1 0x0 DUP1 PUSH1 0x0 DUP1 PUSH1 0x60 DUP6 DUP8 SUB SLT ISZERO PUSH2 0xBCA JUMPI PUSH1 0x0 DUP1 REVERT JUMPDEST DUP5 CALLDATALOAD SWAP4 POP PUSH1 0x20 DUP6 ADD CALLDATALOAD SWAP3 POP PUSH1 0x40 DUP6 ADD CALLDATALOAD PUSH8 0xFFFFFFFFFFFFFFFF DUP2 GT ISZERO PUSH2 0xBEF JUMPI PUSH1 0x0 DUP1 REVERT JUMPDEST PUSH2 0xBFB DUP8 DUP3 DUP9 ADD PUSH2 0xB1C JUMP JUMPDEST SWAP6 SWAP9 SWAP5 SWAP8 POP SWAP6 POP POP POP POP JUMP JUMPDEST PUSH1 0x0 DUP1 PUSH1 0x0 DUP1 PUSH1 0x0 PUSH1 0x80 DUP7 DUP9 SUB SLT ISZERO PUSH2 0xC1F JUMPI PUSH1 0x0 DUP1 REVERT JUMPDEST DUP6 CALLDATALOAD SWAP5 POP PUSH1 0x20 DUP7 ADD CALLDATALOAD SWAP4 POP PUSH1 0x40 DUP7 ADD CALLDATALOAD PUSH8 0xFFFFFFFFFFFFFFFF DUP2 GT ISZERO PUSH2 0xC44 JUMPI PUSH1 0x0 DUP1 REVERT JUMPDEST PUSH2 0xC50 DUP9 DUP3 DUP10 ADD PUSH2 0xB1C JUMP JUMPDEST SWAP7 SWAP10 SWAP6 SWAP9 POP SWAP7 PUSH1 0x60 ADD CALLDATALOAD SWAP5 SWAP4 POP POP POP POP JUMP JUMPDEST PUSH1 0x0 PUSH1 0x20 DUP3 DUP5 SUB SLT ISZERO PUSH2 0xC74 JUMPI PUSH1 0x0 DUP1 REVERT JUMPDEST POP CALLDATALOAD SWAP2 SWAP1 POP JUMP JUMPDEST PUSH1 0x0 PUSH32 0x7FFFFFFFFFFFFFFFFFFFFFFFFFFFFFFFFFFFFFFFFFFFFFFFFFFFFFFFFFFFFFF DUP4 GT ISZERO PUSH2 0xCAA JUMPI PUSH1 0x0 DUP1 REVERT JUMPDEST DUP3 PUSH1 0x5 SHL DUP1 DUP4 DUP7 CALLDATACOPY PUSH1 0x0 SWAP5 ADD SWAP4 DUP5 MSTORE POP SWAP2 SWAP3 SWAP2 POP POP JUMP JUMPDEST DUP6 DUP2 MSTORE DUP5 PUSH1 0x20 DUP3 ADD MSTORE DUP4 PUSH1 0x40 DUP3 ADD MSTORE PUSH1 0x0 PUSH2 0xCE0 PUSH1 0x60 DUP4 ADD DUP5 DUP7 PUSH2 0xC7B JUMP JUMPDEST SWAP8 SWAP7 POP POP POP POP POP POP POP JUMP JUMPDEST DUP2 DUP4 MSTORE PUSH1 0x0 PUSH32 0x7FFFFFFFFFFFFFFFFFFFFFFFFFFFFFFFFFFFFFFFFFFFFFFFFFFFFFFFFFFFFFF DUP4 GT ISZERO PUSH2 0xD1D JUMPI PUSH1 0x0 DUP1 REVERT JUMPDEST DUP3 PUSH1 0x5 SHL DUP1 DUP4 PUSH1 0x20 DUP8 ADD CALLDATACOPY PUSH1 0x0 SWAP5 ADD PUSH1 0x20 ADD SWAP4 DUP5 MSTORE POP SWAP2 SWAP3 SWAP2 POP POP JUMP JUMPDEST PUSH1 0x20 DUP2 MSTORE PUSH1 0x0 PUSH2 0xD4E PUSH1 0x20 DUP4 ADD DUP5 DUP7 PUSH2 0xCEB JUMP JUMPDEST SWAP5 SWAP4 POP POP POP POP JUMP JUMPDEST PUSH32 0x4E487B7100000000000000000000000000000000000000000000000000000000 PUSH1 0x0 MSTORE PUSH1 0x11 PUSH1 0x4 MSTORE PUSH1 0x24 PUSH1 0x0 REVERT JUMPDEST PUSH1 0x0 DUP3 DUP3 LT ISZERO PUSH2 0xD97 JUMPI PUSH2 0xD97 PUSH2 0xD56 JUMP JUMPDEST POP SUB SWAP1 JUMP JUMPDEST PUSH1 0x0 DUP3 NOT DUP3 GT ISZERO PUSH2 0xDAF JUMPI PUSH2 0xDAF PUSH2 0xD56 JUMP JUMPDEST POP ADD SWAP1 JUMP JUMPDEST PUSH1 0x60 DUP2 MSTORE PUSH1 0x0 PUSH2 0xDC8 PUSH1 0x60 DUP4 ADD DUP7 DUP9 PUSH2 0xCEB JUMP JUMPDEST PUSH1 0x20 DUP4 ADD SWAP5 SWAP1 SWAP5 MSTORE POP PUSH1 0x40 ADD MSTORE SWAP3 SWAP2 POP POP JUMP JUMPDEST PUSH1 0x40 DUP2 MSTORE PUSH1 0x0 PUSH2 0xDEF PUSH1 0x40 DUP4 ADD DUP6 DUP8 PUSH2 0xCEB JUMP JUMPDEST SWAP1 POP DUP3 PUSH1 0x20 DUP4 ADD MSTORE SWAP5 SWAP4 POP POP POP POP JUMP JUMPDEST PUSH1 0x0 DUP3 MLOAD PUSH1 0x0 JUMPDEST DUP2 DUP2 LT ISZERO PUSH2 0xE20 JUMPI PUSH1 0x20 DUP2 DUP7 ADD DUP2 ADD MLOAD DUP6 DUP4 ADD MSTORE ADD PUSH2 0xE06 JUMP JUMPDEST DUP2 DUP2 GT ISZERO PUSH2 0xE2F JUMPI PUSH1 0x0 DUP3 DUP6 ADD MSTORE JUMPDEST POP SWAP2 SWAP1 SWAP2 ADD SWAP3 SWAP2 POP POP JUMP JUMPDEST DUP8 DUP2 MSTORE DUP7 PUSH1 0x20 DUP3 ADD MSTORE DUP6 PUSH1 0x40 DUP3 ADD MSTORE DUP5 PUSH1 0x60 DUP3 ADD MSTORE DUP4 PUSH1 0x80 DUP3 ADD MSTORE PUSH1 0x0 PUSH2 0xE65 PUSH1 0xA0 DUP4 ADD DUP5 DUP7 PUSH2 0xC7B JUMP JUMPDEST SWAP10 SWAP9 POP POP POP POP POP POP POP POP POP JUMP INVALID MSTORE8 SLOAD COINBASE MSTORE 0x4B 0x4E GASLIMIT SLOAD 0x5F BALANCE 0x2E ADDRESS 0x5F 0x4D MSTORE8 SELFBALANCE 0x49 0x4E SELFBALANCE 0x5F 0x4C BALANCE SLOAD 0x4F 0x4C ORIGIN 0x5F NUMBER COINBASE 0x4E NUMBER GASLIMIT 0x4C 0x4C COINBASE SLOAD 0x49 0x4F 0x4E 0x5F 0x4D COINBASE POP POP POP 0x49 0x4E SELFBALANCE MSTORE8 SLOAD COINBASE MSTORE 0x4B 0x4E GASLIMIT SLOAD 0x5F BALANCE 0x2E ADDRESS 0x5F 0x4D MSTORE8 SELFBALANCE 0x49 0x4E SELFBALANCE 0x5F 0x4C BALANCE SLOAD 0x4F 0x4C ORIGIN 0x5F NUMBER COINBASE 0x4E NUMBER GASLIMIT 0x4C 0x4C COINBASE SLOAD 0x49 0x4F 0x4E 0x5F DIFFICULTY GASLIMIT 0x4C COINBASE MSIZE MSTORE8 SLOAD COINBASE MSTORE 0x4B 0x4E GASLIMIT SLOAD 0x5F BALANCE 0x2E ADDRESS 0x5F 0x4D MSTORE8 SELFBALANCE 0x49 0x4E SELFBALANCE 0x5F 0x4C ORIGIN SLOAD 0x4F 0x4C BALANCE 0x5F 0x4D COINBASE POP POP POP 0x49 0x4E SELFBALANCE MSTORE8 SLOAD COINBASE MSTORE 0x4B 0x4E GASLIMIT SLOAD 0x5F BALANCE 0x2E ADDRESS 0x5F 0x4D MSTORE8 SELFBALANCE 0x49 0x4E SELFBALANCE 0x5F 0x4C BALANCE SLOAD 0x4F 0x4C ORIGIN 0x5F 0x4D COINBASE POP POP POP 0x49 0x4E SELFBALANCE 0x5F JUMP ORIGIN LOG1 PUSH5 0x736F6C6343 STOP ADDMOD 0xF STOP EXP "},"methodIdentifiers":{"cancelL1ToL2Message(uint256,uint256,uint256[],uint256)":"6170ff1b","consumeMessageFromL2(uint256,uint256[])":"2c9dd5c0","getMaxL1MsgFee()":"54eccba4","l1ToL2MessageCancellations(bytes32)":"9be446bf","l1ToL2MessageNonce()":"018cccdf","l1ToL2Messages(bytes32)":"77c7d7a9","l2ToL1Messages(bytes32)":"a46efaf3","messageCancellationDelay()":"8303bd8a","sendMessageToL2(uint256,uint256,uint256[])":"3e3aa6c5","startL1ToL2MessageCancellation(uint256,uint256,uint256[],uint256)":"7a98660b"}}}}}