{"solidity/mocks/MockStarknetMessaging.sol":{"MockStarknetMessaging":{"abi":[{"inputs":[{"internalType":"uint256","name":"MessageCancellationDelay","type":"uint256"}],"stateMutability":"nonpayable","type":"constructor"},{"anonymous":false,"inputs":[{"indexed":true,"internalType":"uint256","name":"fromAddress","type":"uint256"},{"indexed":true,"internalType":"address","name":"toAddress","type":"address"},{"indexed":false,"internalType":"uint256[]","name":"payload","type":"uint256[]"}],"name":"ConsumedMessageToL1","type":"event"},{"anonymous":false,"inputs":[{"indexed":true,"internalType":"address","name":"fromAddress","type":"address"},{"indexed":true,"internalType":"uint256","name":"toAddress","type":"uint256"},{"indexed":true,"internalType":"uint256","name":"selector","type":"uint256"},{"indexed":false,"internalType":"uint256[]","name":"payload","type":"uint256[]"},{"indexed":false,"internalType":"uint256","name":"nonce","type":"uint256"}],"name":"ConsumedMessageToL2","type":"event"},{"anonymous":false,"inputs":[{"indexed":true,"internalType":"uint256","name":"fromAddress","type":"uint256"},{"indexed":true,"internalType":"address","name":"toAddress","type":"address"},{"indexed":false,"internalType":"uint256[]","name":"payload","type":"uint256[]"}],"name":"LogMessageToL1","type":"event"},{"anonymous":false,"inputs":[{"indexed":true,"internalType":"address","name":"fromAddress","type":"address"},{"indexed":true,"internalType":"uint256","name":"toAddress","type":"uint256"},{"indexed":true,"internalType":"uint256","name":"selector","type":"uint256"},{"indexed":false,"internalType":"uint256[]","name":"payload","type":"uint256[]"},{"indexed":false,"internalType":"uint256","name":"nonce","type":"uint256"},{"indexed":false,"internalType":"uint256","name":"fee","type":"uint256"}],"name":"LogMessageToL2","type":"event"},{"anonymous":false,"inputs":[{"indexed":true,"internalType":"address","name":"fromAddress","type":"address"},{"indexed":true,"internalType":"uint256","name":"toAddress","type":"uint256"},{"indexed":true,"internalType":"uint256","name":"selector","type":"uint256"},{"indexed":false,"internalType":"uint256[]","name":"payload","type":"uint256[]"},{"indexed":false,"internalType":"uint256","name":"nonce","type":"uint256"}],"name":"MessageToL2Canceled","type":"event"},{"anonymous":false,"inputs":[{"indexed":true,"internalType":"address","name":"fromAddress","type":"address"},{"indexed":true,"internalType":"uint256","name":"toAddress","type":"uint256"},{"indexed":true,"internalType":"uint256","name":"selector","type":"uint256"},{"indexed":false,"internalType":"uint256[]","name":"payload","type":"uint256[]"},{"indexed":false,"internalType":"uint256","name":"nonce","type":"uint256"}],"name":"MessageToL2CancellationStarted","type":"event"},{"inputs":[{"internalType":"uint256","name":"toAddress","type":"uint256"},{"internalType":"uint256","name":"selector","type":"uint256"},{"internalType":"uint256[]","name":"payload","type":"uint256[]"},{"internalType":"uint256","name":"nonce","type":"uint256"}],"name":"cancelL1ToL2Message","outputs":[{"internalType":"bytes32","name":"","type":"bytes32"}],"stateMutability":"nonpayable","type":"function"},{"inputs":[{"internalType":"uint256","name":"fromAddress","type":"uint256"},{"internalType":"uint256[]","name":"payload","type":"uint256[]"}],"name":"consumeMessageFromL2","outputs":[{"internalType":"bytes32","name":"","type":"bytes32"}],"stateMutability":"nonpayable","type":"function"},{"inputs":[],"name":"getMaxL1MsgFee","outputs":[{"internalType":"uint256","name":"","type":"uint256"}],"stateMutability":"pure","type":"function"},{"inputs":[{"internalType":"bytes32","name":"msgHash","type":"bytes32"}],"name":"l1ToL2MessageCancellations","outputs":[{"internalType":"uint256","name":"","type":"uint256"}],"stateMutability":"view","type":"function"},{"inputs":[],"name":"l1ToL2MessageNonce","outputs":[{"internalType":"uint256","name":"","type":"uint256"}],"stateMutability":"view","type":"function"},{"inputs":[{"internalType":"bytes32","name":"msgHash","type":"bytes32"}],"name":"l1ToL2Messages","outputs":[{"internalType":"uint256","name":"","type":"uint256"}],"stateMutability":"view","type":"function"},{"inputs":[{"internalType":"bytes32","name":"msgHash","type":"bytes32"}],"name":"l2ToL1Messages","outputs":[{"internalType":"uint256","name":"","type":"uint256"}],"stateMutability":"view","type":"function"},{"inputs":[],"name":"messageCancellationDelay","outputs":[{"internalType":"uint256","name":"","type":"uint256"}],"stateMutability":"view","type":"function"},{"inputs":[{"internalType":"uint256","name":"fromAddress","type":"uint256"},{"internalType":"uint256","name":"toAddress","type":"uint256"},{"internalType":"uint256","name":"selector","type":"uint256"},{"internalType":"uint256[]","name":"payload","type":"uint256[]"},{"internalType":"uint256","name":"nonce","type":"uint256"}],"name":"mockConsumeMessageToL2","outputs":[],"stateMutability":"nonpayable","type":"function"},{"inputs":[{"internalType":"uint256","name":"fromAddress","type":"uint256"},{"internalType":"uint256","name":"toAddress","type":"uint256"},{"internalType":"uint256[]","name":"payload","type":"uint256[]"}],"name":"mockSendMessageFromL2","outputs":[],"stateMutability":"nonpayable","type":"function"},{"inputs":[{"internalType":"uint256","name":"toAddress","type":"uint256"},{"internalType":"uint256","name":"selector","type":"uint256"},{"internalType":"uint256[]","name":"payload","type":"uint256[]"}],"name":"sendMessageToL2","outputs":[{"internalType":"bytes32","name":"","type":"bytes32"},{"internalType":"uint256","name":"","type":"uint256"}],"stateMutability":"payable","type":"function"},{"inputs":[{"internalType":"uint256","name":"toAddress","type":"uint256"},{"internalType":"uint256","name":"selector","type":"uint256"},{"internalType":"uint256[]","name":"payload","type":"uint256[]"},{"internalType":"uint256","name":"nonce","type":"uint256"}],"name":"startL1ToL2MessageCancellation","outputs":[{"internalType":"bytes32","name":"","type":"bytes32"}],"stateMutability":"nonpayable","type":"function"}],"evm":{"bytecode":{"linkReferences":{},"object":"60806040523480156200001157600080fd5b506040516200126c3803806200126c8339810160408190526200003491620000ae565b6200003f8162000046565b5062000106565b620000766040518060600160405280602d81526020016200123f602d9139826200007960201b62000b3b1760201c565b50565b6000826040516020016200008e9190620000c8565b604051602081830303815290604052805190602001209050818155505050565b600060208284031215620000c157600080fd5b5051919050565b6000825160005b81811015620000eb5760208186018101518583015201620000cf565b81811115620000fb576000828501525b509190910192915050565b61112980620001166000396000f3fe6080604052600436106100c75760003560e01c806377c7d7a9116100745780639be446bf1161004e5780639be446bf146101ee578063a46efaf31461020e578063d1fb15091461022e57600080fd5b806377c7d7a9146101995780637a98660b146101b95780638303bd8a146101d957600080fd5b80633e3aa6c5116100a55780633e3aa6c51461013657806354eccba41461015e5780636170ff1b1461017957600080fd5b8063018cccdf146100cc578063067aba99146100f45780632c9dd5c014610116575b600080fd5b3480156100d857600080fd5b506100e161024e565b6040519081526020015b60405180910390f35b34801561010057600080fd5b5061011461010f366004610d03565b610293565b005b34801561012257600080fd5b506100e1610131366004610d6c565b610371565b610149610144366004610db8565b6104b1565b604080519283526020830191909152016100eb565b34801561016a57600080fd5b50670de0b6b3a76400006100e1565b34801561018557600080fd5b506100e1610194366004610e0b565b6106a3565b3480156101a557600080fd5b506100e16101b4366004610e66565b610971565b3480156101c557600080fd5b506100e16101d4366004610e0b565b61098c565b3480156101e557600080fd5b506100e1610a9a565b3480156101fa57600080fd5b506100e1610209366004610e66565b610abd565b34801561021a57600080fd5b506100e1610229366004610e66565b610ac7565b34801561023a57600080fd5b50610114610249366004610db8565b610ad1565b600061028e6040518060400160405280602081526020017f535441524b4e45545f312e305f4d5347494e475f4c31544f4c325f4e4f4e4345815250610b6e565b905090565b6040516000906102b390889088908590899088908a908290602001610ec5565b60405160208183030381529060405280519060200120905060006102d5610bc0565b6000838152602091909152604090205411610351576040517f08c379a000000000000000000000000000000000000000000000000000000000815260206004820152601a60248201527f494e56414c49445f4d4553534147455f544f5f434f4e53554d4500000000000060448201526064015b60405180910390fd5b600061035b610bc0565b6000928352602052604090912055505050505050565b604051600090819061038f9086903390869088908290602001610efd565b60405160208183030381529060405280519060200120905060006103b1610be3565b6000838152602091909152604090205411610428576040517f08c379a000000000000000000000000000000000000000000000000000000000815260206004820152601a60248201527f494e56414c49445f4d4553534147455f544f5f434f4e53554d450000000000006044820152606401610348565b3373ffffffffffffffffffffffffffffffffffffffff16857f7a06c571aa77f34d9706c51e5d8122b5595aebeaa34233bfe866f22befb973b18686604051610471929190610f76565b60405180910390a36001610483610be3565b600083815260200190815260200160002060008282546104a39190610fc1565b909155509095945050505050565b60008060003411610544576040517f08c379a000000000000000000000000000000000000000000000000000000000815260206004820152602160248201527f4c315f4d53475f4645455f4d5553545f42455f475245415445525f5448414e5f60448201527f30000000000000000000000000000000000000000000000000000000000000006064820152608401610348565b670de0b6b3a76400003411156105b6576040517f08c379a000000000000000000000000000000000000000000000000000000000815260206004820152601760248201527f4d41585f4c315f4d53475f4645455f45584345454445440000000000000000006044820152606401610348565b60006105c061024e565b905061060d6040518060400160405280602081526020017f535441524b4e45545f312e305f4d5347494e475f4c31544f4c325f4e4f4e43458152508260016106089190610fd8565b610b3b565b85873373ffffffffffffffffffffffffffffffffffffffff167fdb80dd488acf86d17c747445b0eabb5d57c541d3bd7b6b87af987858e5066b2b8888863460405161065b9493929190610ff0565b60405180910390a460006106728888888886610c06565b905061067f346001610fd8565b610687610bc0565b6000838152602091909152604090205597909650945050505050565b600084863373ffffffffffffffffffffffffffffffffffffffff167f8abd2ec2e0a10c82f5b60ea00455fa96c41fd144f225fcc52b8d83d94f803ed88787876040516106f193929190611017565b60405180910390a460006107088787878787610c06565b90506000610714610bc0565b60008381526020919091526040812054915081900361078f576040517f08c379a000000000000000000000000000000000000000000000000000000000815260206004820152601460248201527f4e4f5f4d4553534147455f544f5f43414e43454c0000000000000000000000006044820152606401610348565b6000610799610c47565b60008481526020919091526040812054915081900361083a576040517f08c379a000000000000000000000000000000000000000000000000000000000815260206004820152602260248201527f4d4553534147455f43414e43454c4c4154494f4e5f4e4f545f5245515545535460448201527f45440000000000000000000000000000000000000000000000000000000000006064820152608401610348565b6000610844610a9a565b61084e9083610fd8565b9050818110156108ba576040517f08c379a000000000000000000000000000000000000000000000000000000000815260206004820152601c60248201527f43414e43454c5f414c4c4f5745445f54494d455f4f564552464c4f57000000006044820152606401610348565b80421015610949576040517f08c379a0000000000000000000000000000000000000000000000000000000008152602060048201526024808201527f4d4553534147455f43414e43454c4c4154494f4e5f4e4f545f414c4c4f57454460448201527f5f594554000000000000000000000000000000000000000000000000000000006064820152608401610348565b6000610953610bc0565b60008681526020919091526040902055509198975050505050505050565b600061097b610bc0565b600092835260205250604090205490565b600084863373ffffffffffffffffffffffffffffffffffffffff167f2e00dccd686fd6823ec7dc3e125582aa82881b6ff5f6b5a73856e1ea8338a3be8787876040516109da93929190611017565b60405180910390a460006109f18787878787610c06565b905060006109fd610bc0565b60008381526020919091526040902054905080610a76576040517f08c379a000000000000000000000000000000000000000000000000000000000815260206004820152601460248201527f4e4f5f4d4553534147455f544f5f43414e43454c0000000000000000000000006044820152606401610348565b42610a7f610c47565b60008481526020919091526040902055509695505050505050565b600061028e6040518060600160405280602d81526020016110a7602d9139610b6e565b600061097b610c47565b600061097b610be3565b604051600090610aed9086908690859087908290602001610efd565b6040516020818303038152906040528051906020012090506001610b0f610be3565b60008381526020019081526020016000206000828254610b2f9190610fd8565b90915550505050505050565b600082604051602001610b4e919061103b565b604051602081830303815290604052805190602001209050818155505050565b60008082604051602001610b82919061103b565b604080517fffffffffffffffffffffffffffffffffffffffffffffffffffffffffffffffe08184030181529190528051602090910120549392505050565b600061028e6040518060600160405280602681526020016110f760269139610c66565b600061028e6040518060600160405280602381526020016110d460239139610c66565b604051600090610c2690339088908590899088908a908290602001610ec5565b60405160208183030381529060405280519060200120905095945050505050565b600061028e604051806060016040528060308152602001611077603091395b60008082604051602001610c7a919061103b565b604080517fffffffffffffffffffffffffffffffffffffffffffffffffffffffffffffffe081840301815291905280516020909101209392505050565b60008083601f840112610cc957600080fd5b50813567ffffffffffffffff811115610ce157600080fd5b6020830191508360208260051b8501011115610cfc57600080fd5b9250929050565b60008060008060008060a08789031215610d1c57600080fd5b863595506020870135945060408701359350606087013567ffffffffffffffff811115610d4857600080fd5b610d5489828a01610cb7565b979a9699509497949695608090950135949350505050565b600080600060408486031215610d8157600080fd5b83359250602084013567ffffffffffffffff811115610d9f57600080fd5b610dab86828701610cb7565b9497909650939450505050565b60008060008060608587031215610dce57600080fd5b8435935060208501359250604085013567ffffffffffffffff811115610df357600080fd5b610dff87828801610cb7565b95989497509550505050565b600080600080600060808688031215610e2357600080fd5b8535945060208601359350604086013567ffffffffffffffff811115610e4857600080fd5b610e5488828901610cb7565b96999598509660600135949350505050565b600060208284031215610e7857600080fd5b5035919050565b60007f07ffffffffffffffffffffffffffffffffffffffffffffffffffffffffffffff831115610eae57600080fd5b8260051b8083863760009401938452509192915050565b8781528660208201528560408201528460608201528360808201526000610ef060a083018486610e7f565b9998505050505050505050565b8581528460208201528360408201526000610f1c606083018486610e7f565b979650505050505050565b81835260007f07ffffffffffffffffffffffffffffffffffffffffffffffffffffffffffffff831115610f5957600080fd5b8260051b8083602087013760009401602001938452509192915050565b602081526000610f8a602083018486610f27565b949350505050565b7f4e487b7100000000000000000000000000000000000000000000000000000000600052601160045260246000fd5b600082821015610fd357610fd3610f92565b500390565b60008219821115610feb57610feb610f92565b500190565b606081526000611004606083018688610f27565b6020830194909452506040015292915050565b60408152600061102b604083018587610f27565b9050826020830152949350505050565b6000825160005b8181101561105c5760208186018101518583015201611042565b8181111561106b576000828501525b50919091019291505056fe535441524b4e45545f312e305f4d5347494e475f4c31544f4c325f43414e43454c4c4154494f4e5f4d41505050494e47535441524b4e45545f312e305f4d5347494e475f4c31544f4c325f43414e43454c4c4154494f4e5f44454c4159535441524b4e45545f312e305f4d5347494e475f4c32544f4c315f4d41505050494e47535441524b4e45545f312e305f4d5347494e475f4c31544f4c325f4d41505050494e475f5632a164736f6c634300080f000a535441524b4e45545f312e305f4d5347494e475f4c31544f4c325f43414e43454c4c4154494f4e5f44454c4159","opcodes":"PUSH1 0x80 PUSH1 0x40 MSTORE CALLVALUE DUP1 ISZERO PUSH3 0x11 JUMPI PUSH1 0x0 DUP1 REVERT JUMPDEST POP PUSH1 0x40 MLOAD PUSH3 0x126C CODESIZE SUB DUP1 PUSH3 0x126C DUP4 CODECOPY DUP2 ADD PUSH1 0x40 DUP2 SWAP1 MSTORE PUSH3 0x34 SWAP2 PUSH3 0xAE JUMP JUMPDEST PUSH3 0x3F DUP2 PUSH3 0x46 JUMP JUMPDEST POP PUSH3 0x106 JUMP JUMPDEST PUSH3 0x76 PUSH1 0x40 MLOAD DUP1 PUSH1 0x60 ADD PUSH1 0x40 MSTORE DUP1 PUSH1 0x2D DUP2 MSTORE PUSH1 0x20 ADD PUSH3 0x123F PUSH1 0x2D SWAP2 CODECOPY DUP3 PUSH3 0x79 PUSH1 0x20 SHL PUSH3 0xB3B OR PUSH1 0x20 SHR JUMP JUMPDEST POP JUMP JUMPDEST PUSH1 0x0 DUP3 PUSH1 0x40 MLOAD PUSH1 0x20 ADD PUSH3 0x8E SWAP2 SWAP1 PUSH3 0xC8 JUMP JUMPDEST PUSH1 0x40 MLOAD PUSH1 0x20 DUP2 DUP4 SUB SUB DUP2 MSTORE SWAP1 PUSH1 0x40 MSTORE DUP1 MLOAD SWAP1 PUSH1 0x20 ADD KECCAK256 SWAP1 POP DUP2 DUP2 SSTORE POP POP POP JUMP JUMPDEST PUSH1 0x0 PUSH1 0x20 DUP3 DUP5 SUB SLT ISZERO PUSH3 0xC1 JUMPI PUSH1 0x0 DUP1 REVERT JUMPDEST POP MLOAD SWAP2 SWAP1 POP JUMP JUMPDEST PUSH1 0x0 DUP3 MLOAD PUSH1 0x0 JUMPDEST DUP2 DUP2 LT ISZERO PUSH3 0xEB JUMPI PUSH1 0x20 DUP2 DUP7 ADD DUP2 ADD MLOAD DUP6 DUP4 ADD MSTORE ADD PUSH3 0xCF JUMP JUMPDEST DUP2 DUP2 GT ISZERO PUSH3 0xFB JUMPI PUSH1 0x0 DUP3 DUP6 ADD MSTORE JUMPDEST POP SWAP2 SWAP1 SWAP2 ADD SWAP3 SWAP2 POP POP JUMP JUMPDEST PUSH2 0x1129 DUP1 PUSH3 0x116 PUSH1 0x0 CODECOPY PUSH1 0x0 RETURN INVALID PUSH1 0x80 PUSH1 0x40 MSTORE PUSH1 0x4 CALLDATASIZE LT PUSH2 0xC7 JUMPI PUSH1 0x0 CALLDATALOAD PUSH1 0xE0 SHR DUP1 PUSH4 0x77C7D7A9 GT PUSH2 0x74 JUMPI DUP1 PUSH4 0x9BE446BF GT PUSH2 0x4E JUMPI DUP1 PUSH4 0x9BE446BF EQ PUSH2 0x1EE JUMPI DUP1 PUSH4 0xA46EFAF3 EQ PUSH2 0x20E JUMPI DUP1 PUSH4 0xD1FB1509 EQ PUSH2 0x22E JUMPI PUSH1 0x0 DUP1 REVERT JUMPDEST DUP1 PUSH4 0x77C7D7A9 EQ PUSH2 0x199 JUMPI DUP1 PUSH4 0x7A98660B EQ PUSH2 0x1B9 JUMPI DUP1 PUSH4 0x8303BD8A EQ PUSH2 0x1D9 JUMPI PUSH1 0x0 DUP1 REVERT JUMPDEST DUP1 PUSH4 0x3E3AA6C5 GT PUSH2 0xA5 JUMPI DUP1 PUSH4 0x3E3AA6C5 EQ PUSH2 0x136 JUMPI DUP1 PUSH4 0x54ECCBA4 EQ PUSH2 0x15E JUMPI DUP1 PUSH4 0x6170FF1B EQ PUSH2 0x179 JUMPI PUSH1 0x0 DUP1 REVERT JUMPDEST DUP1 PUSH4 0x18CCCDF EQ PUSH2 0xCC JUMPI DUP1 PUSH4 0x67ABA99 EQ PUSH2 0xF4 JUMPI DUP1 PUSH4 0x2C9DD5C0 EQ PUSH2 0x116 JUMPI JUMPDEST PUSH1 0x0 DUP1 REVERT JUMPDEST CALLVALUE DUP1 ISZERO PUSH2 0xD8 JUMPI PUSH1 0x0 DUP1 REVERT JUMPDEST POP PUSH2 0xE1 PUSH2 0x24E JUMP JUMPDEST PUSH1 0x40 MLOAD SWAP1 DUP2 MSTORE PUSH1 0x20 ADD JUMPDEST PUSH1 0x40 MLOAD DUP1 SWAP2 SUB SWAP1 RETURN JUMPDEST CALLVALUE DUP1 ISZERO PUSH2 0x100 JUMPI PUSH1 0x0 DUP1 REVERT JUMPDEST POP PUSH2 0x114 PUSH2 0x10F CALLDATASIZE PUSH1 0x4 PUSH2 0xD03 JUMP JUMPDEST PUSH2 0x293 JUMP JUMPDEST STOP JUMPDEST CALLVALUE DUP1 ISZERO PUSH2 0x122 JUMPI PUSH1 0x0 DUP1 REVERT JUMPDEST POP PUSH2 0xE1 PUSH2 0x131 CALLDATASIZE PUSH1 0x4 PUSH2 0xD6C JUMP JUMPDEST PUSH2 0x371 JUMP JUMPDEST PUSH2 0x149 PUSH2 0x144 CALLDATASIZE PUSH1 0x4 PUSH2 0xDB8 JUMP JUMPDEST PUSH2 0x4B1 JUMP JUMPDEST PUSH1 0x40 DUP1 MLOAD SWAP3 DUP4 MSTORE PUSH1 0x20 DUP4 ADD SWAP2 SWAP1 SWAP2 MSTORE ADD PUSH2 0xEB JUMP JUMPDEST CALLVALUE DUP1 ISZERO PUSH2 0x16A JUMPI PUSH1 0x0 DUP1 REVERT JUMPDEST POP PUSH8 0xDE0B6B3A7640000 PUSH2 0xE1 JUMP JUMPDEST CALLVALUE DUP1 ISZERO PUSH2 0x185 JUMPI PUSH1 0x0 DUP1 REVERT JUMPDEST POP PUSH2 0xE1 PUSH2 0x194 CALLDATASIZE PUSH1 0x4 PUSH2 0xE0B JUMP JUMPDEST PUSH2 0x6A3 JUMP JUMPDEST CALLVALUE DUP1 ISZERO PUSH2 0x1A5 JUMPI PUSH1 0x0 DUP1 REVERT JUMPDEST POP PUSH2 0xE1 PUSH2 0x1B4 CALLDATASIZE PUSH1 0x4 PUSH2 0xE66 JUMP JUMPDEST PUSH2 0x971 JUMP JUMPDEST CALLVALUE DUP1 ISZERO PUSH2 0x1C5 JUMPI PUSH1 0x0 DUP1 REVERT JUMPDEST POP PUSH2 0xE1 PUSH2 0x1D4 CALLDATASIZE PUSH1 0x4 PUSH2 0xE0B JUMP JUMPDEST PUSH2 0x98C JUMP JUMPDEST CALLVALUE DUP1 ISZERO PUSH2 0x1E5 JUMPI PUSH1 0x0 DUP1 REVERT JUMPDEST POP PUSH2 0xE1 PUSH2 0xA9A JUMP JUMPDEST CALLVALUE DUP1 ISZERO PUSH2 0x1FA JUMPI PUSH1 0x0 DUP1 REVERT JUMPDEST POP PUSH2 0xE1 PUSH2 0x209 CALLDATASIZE PUSH1 0x4 PUSH2 0xE66 JUMP JUMPDEST PUSH2 0xABD JUMP JUMPDEST CALLVALUE DUP1 ISZERO PUSH2 0x21A JUMPI PUSH1 0x0 DUP1 REVERT JUMPDEST POP PUSH2 0xE1 PUSH2 0x229 CALLDATASIZE PUSH1 0x4 PUSH2 0xE66 JUMP JUMPDEST PUSH2 0xAC7 JUMP JUMPDEST CALLVALUE DUP1 ISZERO PUSH2 0x23A JUMPI PUSH1 0x0 DUP1 REVERT JUMPDEST POP PUSH2 0x114 PUSH2 0x249 CALLDATASIZE PUSH1 0x4 PUSH2 0xDB8 JUMP JUMPDEST PUSH2 0xAD1 JUMP JUMPDEST PUSH1 0x0 PUSH2 0x28E PUSH1 0x40 MLOAD DUP1 PUSH1 0x40 ADD PUSH1 0x40 MSTORE DUP1 PUSH1 0x20 DUP2 MSTORE PUSH1 0x20 ADD PUSH32 0x535441524B4E45545F312E305F4D5347494E475F4C31544F4C325F4E4F4E4345 DUP2 MSTORE POP PUSH2 0xB6E JUMP JUMPDEST SWAP1 POP SWAP1 JUMP JUMPDEST PUSH1 0x40 MLOAD PUSH1 0x0 SWAP1 PUSH2 0x2B3 SWAP1 DUP9 SWAP1 DUP9 SWAP1 DUP6 SWAP1 DUP10 SWAP1 DUP9 SWAP1 DUP11 SWAP1 DUP3 SWAP1 PUSH1 0x20 ADD PUSH2 0xEC5 JUMP JUMPDEST PUSH1 0x40 MLOAD PUSH1 0x20 DUP2 DUP4 SUB SUB DUP2 MSTORE SWAP1 PUSH1 0x40 MSTORE DUP1 MLOAD SWAP1 PUSH1 0x20 ADD KECCAK256 SWAP1 POP PUSH1 0x0 PUSH2 0x2D5 PUSH2 0xBC0 JUMP JUMPDEST PUSH1 0x0 DUP4 DUP2 MSTORE PUSH1 0x20 SWAP2 SWAP1 SWAP2 MSTORE PUSH1 0x40 SWAP1 KECCAK256 SLOAD GT PUSH2 0x351 JUMPI PUSH1 0x40 MLOAD PUSH32 0x8C379A000000000000000000000000000000000000000000000000000000000 DUP2 MSTORE PUSH1 0x20 PUSH1 0x4 DUP3 ADD MSTORE PUSH1 0x1A PUSH1 0x24 DUP3 ADD MSTORE PUSH32 0x494E56414C49445F4D4553534147455F544F5F434F4E53554D45000000000000 PUSH1 0x44 DUP3 ADD MSTORE PUSH1 0x64 ADD JUMPDEST PUSH1 0x40 MLOAD DUP1 SWAP2 SUB SWAP1 REVERT JUMPDEST PUSH1 0x0 PUSH2 0x35B PUSH2 0xBC0 JUMP JUMPDEST PUSH1 0x0 SWAP3 DUP4 MSTORE PUSH1 0x20 MSTORE PUSH1 0x40 SWAP1 SWAP2 KECCAK256 SSTORE POP POP POP POP POP POP JUMP JUMPDEST PUSH1 0x40 MLOAD PUSH1 0x0 SWAP1 DUP2 SWAP1 PUSH2 0x38F SWAP1 DUP7 SWAP1 CALLER SWAP1 DUP7 SWAP1 DUP9 SWAP1 DUP3 SWAP1 PUSH1 0x20 ADD PUSH2 0xEFD JUMP JUMPDEST PUSH1 0x40 MLOAD PUSH1 0x20 DUP2 DUP4 SUB SUB DUP2 MSTORE SWAP1 PUSH1 0x40 MSTORE DUP1 MLOAD SWAP1 PUSH1 0x20 ADD KECCAK256 SWAP1 POP PUSH1 0x0 PUSH2 0x3B1 PUSH2 0xBE3 JUMP JUMPDEST PUSH1 0x0 DUP4 DUP2 MSTORE PUSH1 0x20 SWAP2 SWAP1 SWAP2 MSTORE PUSH1 0x40 SWAP1 KECCAK256 SLOAD GT PUSH2 0x428 JUMPI PUSH1 0x40 MLOAD PUSH32 0x8C379A000000000000000000000000000000000000000000000000000000000 DUP2 MSTORE PUSH1 0x20 PUSH1 0x4 DUP3 ADD MSTORE PUSH1 0x1A PUSH1 0x24 DUP3 ADD MSTORE PUSH32 0x494E56414C49445F4D4553534147455F544F5F434F4E53554D45000000000000 PUSH1 0x44 DUP3 ADD MSTORE PUSH1 0x64 ADD PUSH2 0x348 JUMP JUMPDEST CALLER PUSH20 0xFFFFFFFFFFFFFFFFFFFFFFFFFFFFFFFFFFFFFFFF AND DUP6 PUSH32 0x7A06C571AA77F34D9706C51E5D8122B5595AEBEAA34233BFE866F22BEFB973B1 DUP7 DUP7 PUSH1 0x40 MLOAD PUSH2 0x471 SWAP3 SWAP2 SWAP1 PUSH2 0xF76 JUMP JUMPDEST PUSH1 0x40 MLOAD DUP1 SWAP2 SUB SWAP1 LOG3 PUSH1 0x1 PUSH2 0x483 PUSH2 0xBE3 JUMP JUMPDEST PUSH1 0x0 DUP4 DUP2 MSTORE PUSH1 0x20 ADD SWAP1 DUP2 MSTORE PUSH1 0x20 ADD PUSH1 0x0 KECCAK256 PUSH1 0x0 DUP3 DUP3 SLOAD PUSH2 0x4A3 SWAP2 SWAP1 PUSH2 0xFC1 JUMP JUMPDEST SWAP1 SWAP2 SSTORE POP SWAP1 SWAP6 SWAP5 POP POP POP POP POP JUMP JUMPDEST PUSH1 0x0 DUP1 PUSH1 0x0 CALLVALUE GT PUSH2 0x544 JUMPI PUSH1 0x40 MLOAD PUSH32 0x8C379A000000000000000000000000000000000000000000000000000000000 DUP2 MSTORE PUSH1 0x20 PUSH1 0x4 DUP3 ADD MSTORE PUSH1 0x21 PUSH1 0x24 DUP3 ADD MSTORE PUSH32 0x4C315F4D53475F4645455F4D5553545F42455F475245415445525F5448414E5F PUSH1 0x44 DUP3 ADD MSTORE PUSH32 0x3000000000000000000000000000000000000000000000000000000000000000 PUSH1 0x64 DUP3 ADD MSTORE PUSH1 0x84 ADD PUSH2 0x348 JUMP JUMPDEST PUSH8 0xDE0B6B3A7640000 CALLVALUE GT ISZERO PUSH2 0x5B6 JUMPI PUSH1 0x40 MLOAD PUSH32 0x8C379A000000000000000000000000000000000000000000000000000000000 DUP2 MSTORE PUSH1 0x20 PUSH1 0x4 DUP3 ADD MSTORE PUSH1 0x17 PUSH1 0x24 DUP3 ADD MSTORE PUSH32 0x4D41585F4C315F4D53475F4645455F4558434545444544000000000000000000 PUSH1 0x44 DUP3 ADD MSTORE PUSH1 0x64 ADD PUSH2 0x348 JUMP JUMPDEST PUSH1 0x0 PUSH2 0x5C0 PUSH2 0x24E JUMP JUMPDEST SWAP1 POP PUSH2 0x60D PUSH1 0x40 MLOAD DUP1 PUSH1 0x40 ADD PUSH1 0x40 MSTORE DUP1 PUSH1 0x20 DUP2 MSTORE PUSH1 0x20 ADD PUSH32 0x535441524B4E45545F312E305F4D5347494E475F4C31544F4C325F4E4F4E4345 DUP2 MSTORE POP DUP3 PUSH1 0x1 PUSH2 0x608 SWAP2 SWAP1 PUSH2 0xFD8 JUMP JUMPDEST PUSH2 0xB3B JUMP JUMPDEST DUP6 DUP8 CALLER PUSH20 0xFFFFFFFFFFFFFFFFFFFFFFFFFFFFFFFFFFFFFFFF AND PUSH32 0xDB80DD488ACF86D17C747445B0EABB5D57C541D3BD7B6B87AF987858E5066B2B DUP9 DUP9 DUP7 CALLVALUE PUSH1 0x40 MLOAD PUSH2 0x65B SWAP5 SWAP4 SWAP3 SWAP2 SWAP1 PUSH2 0xFF0 JUMP JUMPDEST PUSH1 0x40 MLOAD DUP1 SWAP2 SUB SWAP1 LOG4 PUSH1 0x0 PUSH2 0x672 DUP9 DUP9 DUP9 DUP9 DUP7 PUSH2 0xC06 JUMP JUMPDEST SWAP1 POP PUSH2 0x67F CALLVALUE PUSH1 0x1 PUSH2 0xFD8 JUMP JUMPDEST PUSH2 0x687 PUSH2 0xBC0 JUMP JUMPDEST PUSH1 0x0 DUP4 DUP2 MSTORE PUSH1 0x20 SWAP2 SWAP1 SWAP2 MSTORE PUSH1 0x40 SWAP1 KECCAK256 SSTORE SWAP8 SWAP1 SWAP7 POP SWAP5 POP POP POP POP POP JUMP JUMPDEST PUSH1 0x0 DUP5 DUP7 CALLER PUSH20 0xFFFFFFFFFFFFFFFFFFFFFFFFFFFFFFFFFFFFFFFF AND PUSH32 0x8ABD2EC2E0A10C82F5B60EA00455FA96C41FD144F225FCC52B8D83D94F803ED8 DUP8 DUP8 DUP8 PUSH1 0x40 MLOAD PUSH2 0x6F1 SWAP4 SWAP3 SWAP2 SWAP1 PUSH2 0x1017 JUMP JUMPDEST PUSH1 0x40 MLOAD DUP1 SWAP2 SUB SWAP1 LOG4 PUSH1 0x0 PUSH2 0x708 DUP8 DUP8 DUP8 DUP8 DUP8 PUSH2 0xC06 JUMP JUMPDEST SWAP1 POP PUSH1 0x0 PUSH2 0x714 PUSH2 0xBC0 JUMP JUMPDEST PUSH1 0x0 DUP4 DUP2 MSTORE PUSH1 0x20 SWAP2 SWAP1 SWAP2 MSTORE PUSH1 0x40 DUP2 KECCAK256 SLOAD SWAP2 POP DUP2 SWAP1 SUB PUSH2 0x78F JUMPI PUSH1 0x40 MLOAD PUSH32 0x8C379A000000000000000000000000000000000000000000000000000000000 DUP2 MSTORE PUSH1 0x20 PUSH1 0x4 DUP3 ADD MSTORE PUSH1 0x14 PUSH1 0x24 DUP3 ADD MSTORE PUSH32 0x4E4F5F4D4553534147455F544F5F43414E43454C000000000000000000000000 PUSH1 0x44 DUP3 ADD MSTORE PUSH1 0x64 ADD PUSH2 0x348 JUMP JUMPDEST PUSH1 0x0 PUSH2 0x799 PUSH2 0xC47 JUMP JUMPDEST PUSH1 0x0 DUP5 DUP2 MSTORE PUSH1 0x20 SWAP2 SWAP1 SWAP2 MSTORE PUSH1 0x40 DUP2 KECCAK256 SLOAD SWAP2 POP DUP2 SWAP1 SUB PUSH2 0x83A JUMPI PUSH1 0x40 MLOAD PUSH32 0x8C379A000000000000000000000000000000000000000000000000000000000 DUP2 MSTORE PUSH1 0x20 PUSH1 0x4 DUP3 ADD MSTORE PUSH1 0x22 PUSH1 0x24 DUP3 ADD MSTORE PUSH32 0x4D4553534147455F43414E43454C4C4154494F4E5F4E4F545F52455155455354 PUSH1 0x44 DUP3 ADD MSTORE PUSH32 0x4544000000000000000000000000000000000000000000000000000000000000 PUSH1 0x64 DUP3 ADD MSTORE PUSH1 0x84 ADD PUSH2 0x348 JUMP JUMPDEST PUSH1 0x0 PUSH2 0x844 PUSH2 0xA9A JUMP JUMPDEST PUSH2 0x84E SWAP1 DUP4 PUSH2 0xFD8 JUMP JUMPDEST SWAP1 POP DUP2 DUP2 LT ISZERO PUSH2 0x8BA JUMPI PUSH1 0x40 MLOAD PUSH32 0x8C379A000000000000000000000000000000000000000000000000000000000 DUP2 MSTORE PUSH1 0x20 PUSH1 0x4 DUP3 ADD MSTORE PUSH1 0x1C PUSH1 0x24 DUP3 ADD MSTORE PUSH32 0x43414E43454C5F414C4C4F5745445F54494D455F4F564552464C4F5700000000 PUSH1 0x44 DUP3 ADD MSTORE PUSH1 0x64 ADD PUSH2 0x348 JUMP JUMPDEST DUP1 TIMESTAMP LT ISZERO PUSH2 0x949 JUMPI PUSH1 0x40 MLOAD PUSH32 0x8C379A000000000000000000000000000000000000000000000000000000000 DUP2 MSTORE PUSH1 0x20 PUSH1 0x4 DUP3 ADD MSTORE PUSH1 0x24 DUP1 DUP3 ADD MSTORE PUSH32 0x4D4553534147455F43414E43454C4C4154494F4E5F4E4F545F414C4C4F574544 PUSH1 0x44 DUP3 ADD MSTORE PUSH32 0x5F59455400000000000000000000000000000000000000000000000000000000 PUSH1 0x64 DUP3 ADD MSTORE PUSH1 0x84 ADD PUSH2 0x348 JUMP JUMPDEST PUSH1 0x0 PUSH2 0x953 PUSH2 0xBC0 JUMP JUMPDEST PUSH1 0x0 DUP7 DUP2 MSTORE PUSH1 0x20 SWAP2 SWAP1 SWAP2 MSTORE PUSH1 0x40 SWAP1 KECCAK256 SSTORE POP SWAP2 SWAP9 SWAP8 POP POP POP POP POP POP POP POP JUMP JUMPDEST PUSH1 0x0 PUSH2 0x97B PUSH2 0xBC0 JUMP JUMPDEST PUSH1 0x0 SWAP3 DUP4 MSTORE PUSH1 0x20 MSTORE POP PUSH1 0x40 SWAP1 KECCAK256 SLOAD SWAP1 JUMP JUMPDEST PUSH1 0x0 DUP5 DUP7 CALLER PUSH20 0xFFFFFFFFFFFFFFFFFFFFFFFFFFFFFFFFFFFFFFFF AND PUSH32 0x2E00DCCD686FD6823EC7DC3E125582AA82881B6FF5F6B5A73856E1EA8338A3BE DUP8 DUP8 DUP8 PUSH1 0x40 MLOAD PUSH2 0x9DA SWAP4 SWAP3 SWAP2 SWAP1 PUSH2 0x1017 JUMP JUMPDEST PUSH1 0x40 MLOAD DUP1 SWAP2 SUB SWAP1 LOG4 PUSH1 0x0 PUSH2 0x9F1 DUP8 DUP8 DUP8 DUP8 DUP8 PUSH2 0xC06 JUMP JUMPDEST SWAP1 POP PUSH1 0x0 PUSH2 0x9FD PUSH2 0xBC0 JUMP JUMPDEST PUSH1 0x0 DUP4 DUP2 MSTORE PUSH1 0x20 SWAP2 SWAP1 SWAP2 MSTORE PUSH1 0x40 SWAP1 KECCAK256 SLOAD SWAP1 POP DUP1 PUSH2 0xA76 JUMPI PUSH1 0x40 MLOAD PUSH32 0x8C379A000000000000000000000000000000000000000000000000000000000 DUP2 MSTORE PUSH1 0x20 PUSH1 0x4 DUP3 ADD MSTORE PUSH1 0x14 PUSH1 0x24 DUP3 ADD MSTORE PUSH32 0x4E4F5F4D4553534147455F544F5F43414E43454C000000000000000000000000 PUSH1 0x44 DUP3 ADD MSTORE PUSH1 0x64 ADD PUSH2 0x348 JUMP JUMPDEST TIMESTAMP PUSH2 0xA7F PUSH2 0xC47 JUMP JUMPDEST PUSH1 0x0 DUP5 DUP2 MSTORE PUSH1 0x20 SWAP2 SWAP1 SWAP2 MSTORE PUSH1 0x40 SWAP1 KECCAK256 SSTORE POP SWAP7 SWAP6 POP POP POP POP POP POP JUMP JUMPDEST PUSH1 0x0 PUSH2 0x28E PUSH1 0x40 MLOAD DUP1 PUSH1 0x60 ADD PUSH1 0x40 MSTORE DUP1 PUSH1 0x2D DUP2 MSTORE PUSH1 0x20 ADD PUSH2 0x10A7 PUSH1 0x2D SWAP2 CODECOPY PUSH2 0xB6E JUMP JUMPDEST PUSH1 0x0 PUSH2 0x97B PUSH2 0xC47 JUMP JUMPDEST PUSH1 0x0 PUSH2 0x97B PUSH2 0xBE3 JUMP JUMPDEST PUSH1 0x40 MLOAD PUSH1 0x0 SWAP1 PUSH2 0xAED SWAP1 DUP7 SWAP1 DUP7 SWAP1 DUP6 SWAP1 DUP8 SWAP1 DUP3 SWAP1 PUSH1 0x20 ADD PUSH2 0xEFD JUMP JUMPDEST PUSH1 0x40 MLOAD PUSH1 0x20 DUP2 DUP4 SUB SUB DUP2 MSTORE SWAP1 PUSH1 0x40 MSTORE DUP1 MLOAD SWAP1 PUSH1 0x20 ADD KECCAK256 SWAP1 POP PUSH1 0x1 PUSH2 0xB0F PUSH2 0xBE3 JUMP JUMPDEST PUSH1 0x0 DUP4 DUP2 MSTORE PUSH1 0x20 ADD SWAP1 DUP2 MSTORE PUSH1 0x20 ADD PUSH1 0x0 KECCAK256 PUSH1 0x0 DUP3 DUP3 SLOAD PUSH2 0xB2F SWAP2 SWAP1 PUSH2 0xFD8 JUMP JUMPDEST SWAP1 SWAP2 SSTORE POP POP POP POP POP POP POP JUMP JUMPDEST PUSH1 0x0 DUP3 PUSH1 0x40 MLOAD PUSH1 0x20 ADD PUSH2 0xB4E SWAP2 SWAP1 PUSH2 0x103B JUMP JUMPDEST PUSH1 0x40 MLOAD PUSH1 0x20 DUP2 DUP4 SUB SUB DUP2 MSTORE SWAP1 PUSH1 0x40 MSTORE DUP1 MLOAD SWAP1 PUSH1 0x20 ADD KECCAK256 SWAP1 POP DUP2 DUP2 SSTORE POP POP POP JUMP JUMPDEST PUSH1 0x0 DUP1 DUP3 PUSH1 0x40 MLOAD PUSH1 0x20 ADD PUSH2 0xB82 SWAP2 SWAP1 PUSH2 0x103B JUMP JUMPDEST PUSH1 0x40 DUP1 MLOAD PUSH32 0xFFFFFFFFFFFFFFFFFFFFFFFFFFFFFFFFFFFFFFFFFFFFFFFFFFFFFFFFFFFFFFE0 DUP2 DUP5 SUB ADD DUP2 MSTORE SWAP2 SWAP1 MSTORE DUP1 MLOAD PUSH1 0x20 SWAP1 SWAP2 ADD KECCAK256 SLOAD SWAP4 SWAP3 POP POP POP JUMP JUMPDEST PUSH1 0x0 PUSH2 0x28E PUSH1 0x40 MLOAD DUP1 PUSH1 0x60 ADD PUSH1 0x40 MSTORE DUP1 PUSH1 0x26 DUP2 MSTORE PUSH1 0x20 ADD PUSH2 0x10F7 PUSH1 0x26 SWAP2 CODECOPY PUSH2 0xC66 JUMP JUMPDEST PUSH1 0x0 PUSH2 0x28E PUSH1 0x40 MLOAD DUP1 PUSH1 0x60 ADD PUSH1 0x40 MSTORE DUP1 PUSH1 0x23 DUP2 MSTORE PUSH1 0x20 ADD PUSH2 0x10D4 PUSH1 0x23 SWAP2 CODECOPY PUSH2 0xC66 JUMP JUMPDEST PUSH1 0x40 MLOAD PUSH1 0x0 SWAP1 PUSH2 0xC26 SWAP1 CALLER SWAP1 DUP9 SWAP1 DUP6 SWAP1 DUP10 SWAP1 DUP9 SWAP1 DUP11 SWAP1 DUP3 SWAP1 PUSH1 0x20 ADD PUSH2 0xEC5 JUMP JUMPDEST PUSH1 0x40 MLOAD PUSH1 0x20 DUP2 DUP4 SUB SUB DUP2 MSTORE SWAP1 PUSH1 0x40 MSTORE DUP1 MLOAD SWAP1 PUSH1 0x20 ADD KECCAK256 SWAP1 POP SWAP6 SWAP5 POP POP POP POP POP JUMP JUMPDEST PUSH1 0x0 PUSH2 0x28E PUSH1 0x40 MLOAD DUP1 PUSH1 0x60 ADD PUSH1 0x40 MSTORE DUP1 PUSH1 0x30 DUP2 MSTORE PUSH1 0x20 ADD PUSH2 0x1077 PUSH1 0x30 SWAP2 CODECOPY JUMPDEST PUSH1 0x0 DUP1 DUP3 PUSH1 0x40 MLOAD PUSH1 0x20 ADD PUSH2 0xC7A SWAP2 SWAP1 PUSH2 0x103B JUMP JUMPDEST PUSH1 0x40 DUP1 MLOAD PUSH32 0xFFFFFFFFFFFFFFFFFFFFFFFFFFFFFFFFFFFFFFFFFFFFFFFFFFFFFFFFFFFFFFE0 DUP2 DUP5 SUB ADD DUP2 MSTORE SWAP2 SWAP1 MSTORE DUP1 MLOAD PUSH1 0x20 SWAP1 SWAP2 ADD KECCAK256 SWAP4 SWAP3 POP POP POP JUMP JUMPDEST PUSH1 0x0 DUP1 DUP4 PUSH1 0x1F DUP5 ADD SLT PUSH2 0xCC9 JUMPI PUSH1 0x0 DUP1 REVERT JUMPDEST POP DUP2 CALLDATALOAD PUSH8 0xFFFFFFFFFFFFFFFF DUP2 GT ISZERO PUSH2 0xCE1 JUMPI PUSH1 0x0 DUP1 REVERT JUMPDEST PUSH1 0x20 DUP4 ADD SWAP2 POP DUP4 PUSH1 0x20 DUP3 PUSH1 0x5 SHL DUP6 ADD ADD GT ISZERO PUSH2 0xCFC JUMPI PUSH1 0x0 DUP1 REVERT JUMPDEST SWAP3 POP SWAP3 SWAP1 POP JUMP JUMPDEST PUSH1 0x0 DUP1 PUSH1 0x0 DUP1 PUSH1 0x0 DUP1 PUSH1 0xA0 DUP8 DUP10 SUB SLT ISZERO PUSH2 0xD1C JUMPI PUSH1 0x0 DUP1 REVERT JUMPDEST DUP7 CALLDATALOAD SWAP6 POP PUSH1 0x20 DUP8 ADD CALLDATALOAD SWAP5 POP PUSH1 0x40 DUP8 ADD CALLDATALOAD SWAP4 POP PUSH1 0x60 DUP8 ADD CALLDATALOAD PUSH8 0xFFFFFFFFFFFFFFFF DUP2 GT ISZERO PUSH2 0xD48 JUMPI PUSH1 0x0 DUP1 REVERT JUMPDEST PUSH2 0xD54 DUP10 DUP3 DUP11 ADD PUSH2 0xCB7 JUMP JUMPDEST SWAP8 SWAP11 SWAP7 SWAP10 POP SWAP5 SWAP8 SWAP5 SWAP7 SWAP6 PUSH1 0x80 SWAP1 SWAP6 ADD CALLDATALOAD SWAP5 SWAP4 POP POP POP POP JUMP JUMPDEST PUSH1 0x0 DUP1 PUSH1 0x0 PUSH1 0x40 DUP5 DUP7 SUB SLT ISZERO PUSH2 0xD81 JUMPI PUSH1 0x0 DUP1 REVERT JUMPDEST DUP4 CALLDATALOAD SWAP3 POP PUSH1 0x20 DUP5 ADD CALLDATALOAD PUSH8 0xFFFFFFFFFFFFFFFF DUP2 GT ISZERO PUSH2 0xD9F JUMPI PUSH1 0x0 DUP1 REVERT JUMPDEST PUSH2 0xDAB DUP7 DUP3 DUP8 ADD PUSH2 0xCB7 JUMP JUMPDEST SWAP5 SWAP8 SWAP1 SWAP7 POP SWAP4 SWAP5 POP POP POP POP JUMP JUMPDEST PUSH1 0x0 DUP1 PUSH1 0x0 DUP1 PUSH1 0x60 DUP6 DUP8 SUB SLT ISZERO PUSH2 0xDCE JUMPI PUSH1 0x0 DUP1 REVERT JUMPDEST DUP5 CALLDATALOAD SWAP4 POP PUSH1 0x20 DUP6 ADD CALLDATALOAD SWAP3 POP PUSH1 0x40 DUP6 ADD CALLDATALOAD PUSH8 0xFFFFFFFFFFFFFFFF DUP2 GT ISZERO PUSH2 0xDF3 JUMPI PUSH1 0x0 DUP1 REVERT JUMPDEST PUSH2 0xDFF DUP8 DUP3 DUP9 ADD PUSH2 0xCB7 JUMP JUMPDEST SWAP6 SWAP9 SWAP5 SWAP8 POP SWAP6 POP POP POP POP JUMP JUMPDEST PUSH1 0x0 DUP1 PUSH1 0x0 DUP1 PUSH1 0x0 PUSH1 0x80 DUP7 DUP9 SUB SLT ISZERO PUSH2 0xE23 JUMPI PUSH1 0x0 DUP1 REVERT JUMPDEST DUP6 CALLDATALOAD SWAP5 POP PUSH1 0x20 DUP7 ADD CALLDATALOAD SWAP4 POP PUSH1 0x40 DUP7 ADD CALLDATALOAD PUSH8 0xFFFFFFFFFFFFFFFF DUP2 GT ISZERO PUSH2 0xE48 JUMPI PUSH1 0x0 DUP1 REVERT JUMPDEST PUSH2 0xE54 DUP9 DUP3 DUP10 ADD PUSH2 0xCB7 JUMP JUMPDEST SWAP7 SWAP10 SWAP6 SWAP9 POP SWAP7 PUSH1 0x60 ADD CALLDATALOAD SWAP5 SWAP4 POP POP POP POP JUMP JUMPDEST PUSH1 0x0 PUSH1 0x20 DUP3 DUP5 SUB SLT ISZERO PUSH2 0xE78 JUMPI PUSH1 0x0 DUP1 REVERT JUMPDEST POP CALLDATALOAD SWAP2 SWAP1 POP JUMP JUMPDEST PUSH1 0x0 PUSH32 0x7FFFFFFFFFFFFFFFFFFFFFFFFFFFFFFFFFFFFFFFFFFFFFFFFFFFFFFFFFFFFFF DUP4 GT ISZERO PUSH2 0xEAE JUMPI PUSH1 0x0 DUP1 REVERT JUMPDEST DUP3 PUSH1 0x5 SHL DUP1 DUP4 DUP7 CALLDATACOPY PUSH1 0x0 SWAP5 ADD SWAP4 DUP5 MSTORE POP SWAP2 SWAP3 SWAP2 POP POP JUMP JUMPDEST DUP8 DUP2 MSTORE DUP7 PUSH1 0x20 DUP3 ADD MSTORE DUP6 PUSH1 0x40 DUP3 ADD MSTORE DUP5 PUSH1 0x60 DUP3 ADD MSTORE DUP4 PUSH1 0x80 DUP3 ADD MSTORE PUSH1 0x0 PUSH2 0xEF0 PUSH1 0xA0 DUP4 ADD DUP5 DUP7 PUSH2 0xE7F JUMP JUMPDEST SWAP10 SWAP9 POP POP POP POP POP POP POP POP POP JUMP JUMPDEST DUP6 DUP2 MSTORE DUP5 PUSH1 0x20 DUP3 ADD MSTORE DUP4 PUSH1 0x40 DUP3 ADD MSTORE PUSH1 0x0 PUSH2 0xF1C PUSH1 0x60 DUP4 ADD DUP5 DUP7 PUSH2 0xE7F JUMP JUMPDEST SWAP8 SWAP7 POP POP POP POP POP POP POP JUMP JUMPDEST DUP2 DUP4 MSTORE PUSH1 0x0 PUSH32 0x7FFFFFFFFFFFFFFFFFFFFFFFFFFFFFFFFFFFFFFFFFFFFFFFFFFFFFFFFFFFFFF DUP4 GT ISZERO PUSH2 0xF59 JUMPI PUSH1 0x0 DUP1 REVERT JUMPDEST DUP3 PUSH1 0x5 SHL DUP1 DUP4 PUSH1 0x20 DUP8 ADD CALLDATACOPY PUSH1 0x0 SWAP5 ADD PUSH1 0x20 ADD SWAP4 DUP5 MSTORE POP SWAP2 SWAP3 SWAP2 POP POP JUMP JUMPDEST PUSH1 0x20 DUP2 MSTORE PUSH1 0x0 PUSH2 0xF8A PUSH1 0x20 DUP4 ADD DUP5 DUP7 PUSH2 0xF27 JUMP JUMPDEST SWAP5 SWAP4 POP POP POP POP JUMP JUMPDEST PUSH32 0x4E487B7100000000000000000000000000000000000000000000000000000000 PUSH1 0x0 MSTORE PUSH1 0x11 PUSH1 0x4 MSTORE PUSH1 0x24 PUSH1 0x0 REVERT JUMPDEST PUSH1 0x0 DUP3 DUP3 LT ISZERO PUSH2 0xFD3 JUMPI PUSH2 0xFD3 PUSH2 0xF92 JUMP JUMPDEST POP SUB SWAP1 JUMP JUMPDEST PUSH1 0x0 DUP3 NOT DUP3 GT ISZERO PUSH2 0xFEB JUMPI PUSH2 0xFEB PUSH2 0xF92 JUMP JUMPDEST POP ADD SWAP1 JUMP JUMPDEST PUSH1 0x60 DUP2 MSTORE PUSH1 0x0 PUSH2 0x1004 PUSH1 0x60 DUP4 ADD DUP7 DUP9 PUSH2 0xF27 JUMP JUMPDEST PUSH1 0x20 DUP4 ADD SWAP5 SWAP1 SWAP5 MSTORE POP PUSH1 0x40 ADD MSTORE SWAP3 SWAP2 POP POP JUMP JUMPDEST PUSH1 0x40 DUP2 MSTORE PUSH1 0x0 PUSH2 0x102B PUSH1 0x40 DUP4 ADD DUP6 DUP8 PUSH2 0xF27 JUMP JUMPDEST SWAP1 POP DUP3 PUSH1 0x20 DUP4 ADD MSTORE SWAP5 SWAP4 POP POP POP POP JUMP JUMPDEST PUSH1 0x0 DUP3 MLOAD PUSH1 0x0 JUMPDEST DUP2 DUP2 LT ISZERO PUSH2 0x105C JUMPI PUSH1 0x20 DUP2 DUP7 ADD DUP2 ADD MLOAD DUP6 DUP4 ADD MSTORE ADD PUSH2 0x1042 JUMP JUMPDEST DUP2 DUP2 GT ISZERO PUSH2 0x106B JUMPI PUSH1 0x0 DUP3 DUP6 ADD MSTORE JUMPDEST POP SWAP2 SWAP1 SWAP2 ADD SWAP3 SWAP2 POP POP JUMP INVALID MSTORE8 SLOAD COINBASE MSTORE 0x4B 0x4E GASLIMIT SLOAD 0x5F BALANCE 0x2E ADDRESS 0x5F 0x4D MSTORE8 SELFBALANCE 0x49 0x4E SELFBALANCE 0x5F 0x4C BALANCE SLOAD 0x4F 0x4C ORIGIN 0x5F NUMBER COINBASE 0x4E NUMBER GASLIMIT 0x4C 0x4C COINBASE SLOAD 0x49 0x4F 0x4E 0x5F 0x4D COINBASE POP POP POP 0x49 0x4E SELFBALANCE MSTORE8 SLOAD COINBASE MSTORE 0x4B 0x4E GASLIMIT SLOAD 0x5F BALANCE 0x2E ADDRESS 0x5F 0x4D MSTORE8 SELFBALANCE 0x49 0x4E SELFBALANCE 0x5F 0x4C BALANCE SLOAD 0x4F 0x4C ORIGIN 0x5F NUMBER COINBASE 0x4E NUMBER GASLIMIT 0x4C 0x4C COINBASE SLOAD 0x49 0x4F 0x4E 0x5F DIFFICULTY GASLIMIT 0x4C COINBASE MSIZE MSTORE8 SLOAD COINBASE MSTORE 0x4B 0x4E GASLIMIT SLOAD 0x5F BALANCE 0x2E ADDRESS 0x5F 0x4D MSTORE8 SELFBALANCE 0x49 0x4E SELFBALANCE 0x5F 0x4C ORIGIN SLOAD 0x4F 0x4C BALANCE 0x5F 0x4D COINBASE POP POP POP 0x49 0x4E SELFBALANCE MSTORE8 SLOAD COINBASE MSTORE 0x4B 0x4E GASLIMIT SLOAD 0x5F BALANCE 0x2E ADDRESS 0x5F 0x4D MSTORE8 SELFBALANCE 0x49 0x4E SELFBALANCE 0x5F 0x4C BALANCE SLOAD 0x4F 0x4C ORIGIN 0x5F 0x4D COINBASE POP POP POP 0x49 0x4E SELFBALANCE 0x5F JUMP ORIGIN LOG1 PUSH5 0x736F6C6343 STOP ADDMOD 0xF STOP EXP MSTORE8 SLOAD COINBASE MSTORE 0x4B 0x4E GASLIMIT SLOAD 0x5F BALANCE 0x2E ADDRESS 0x5F 0x4D MSTORE8 SELFBALANCE 0x49 0x4E SELFBALANCE 0x5F 0x4C BALANCE SLOAD 0x4F 0x4C ORIGIN 0x5F NUMBER COINBASE 0x4E NUMBER GASLIMIT 0x4C 0x4C COINBASE SLOAD 0x49 0x4F 0x4E 0x5F DIFFICULTY GASLIMIT 0x4C COINBASE MSIZE "},"methodIdentifiers":{"cancelL1ToL2Message(uint256,uint256,uint256[],uint256)":"6170ff1b","consumeMessageFromL2(uint256,uint256[])":"2c9dd5c0","getMaxL1MsgFee()":"54eccba4","l1ToL2MessageCancellations(bytes32)":"9be446bf","l1ToL2MessageNonce()":"018cccdf","l1ToL2Messages(bytes32)":"77c7d7a9","l2ToL1Messages(bytes32)":"a46efaf3","messageCancellationDelay()":"8303bd8a","mockConsumeMessageToL2(uint256,uint256,uint256,uint256[],uint256)":"067aba99","mockSendMessageFromL2(uint256,uint256,uint256[])":"d1fb1509","sendMessageToL2(uint256,uint256,uint256[])":"3e3aa6c5","startL1ToL2MessageCancellation(uint256,uint256,uint256[],uint256)":"7a98660b"}}}}}