{
  "_format": "hh-sol-artifact-1",
  "contractName": "StarknetValidator",
  "sourceName": "solidity/emergency/StarknetValidator.sol",
  "abi": [
    {
      "inputs": [
        {
          "internalType": "address",
          "name": "starknetMessaging",
          "type": "address"
        },
        {
          "internalType": "address",
          "name": "configAC",
          "type": "address"
        },
        {
          "internalType": "address",
          "name": "gasPriceL1Feed",
          "type": "address"
        },
        {
          "internalType": "address",
          "name": "source",
          "type": "address"
        },
        {
          "internalType": "uint256",
          "name": "l2Feed",
          "type": "uint256"
        },
        {
          "internalType": "uint256",
          "name": "gasEstimate",
          "type": "uint256"
        },
        {
          "internalType": "uint32",
          "name": "gasAdjustment",
          "type": "uint32"
        }
      ],
      "stateMutability": "nonpayable",
      "type": "constructor"
    },
    {
      "inputs": [],
      "name": "AccessForbidden",
      "type": "error"
    },
    {
      "inputs": [],
      "name": "InvalidGasPriceL1FeedAddress",
      "type": "error"
    },
    {
      "inputs": [],
      "name": "InvalidL2FeedAddress",
      "type": "error"
    },
    {
      "inputs": [],
      "name": "InvalidSourceAggregatorAddress",
      "type": "error"
    },
    {
      "inputs": [],
      "name": "InvalidStarknetMessagingAddress",
      "type": "error"
    },
    {
      "anonymous": false,
      "inputs": [
        {
          "indexed": false,
          "internalType": "address",
          "name": "user",
          "type": "address"
        }
      ],
      "name": "AddedAccess",
      "type": "event"
    },
    {
      "anonymous": false,
      "inputs": [],
      "name": "CheckAccessDisabled",
      "type": "event"
    },
    {
      "anonymous": false,
      "inputs": [],
      "name": "CheckAccessEnabled",
      "type": "event"
    },
    {
      "anonymous": false,
      "inputs": [
        {
          "indexed": true,
          "internalType": "address",
          "name": "previous",
          "type": "address"
        },
        {
          "indexed": true,
          "internalType": "address",
          "name": "current",
          "type": "address"
        }
      ],
      "name": "ConfigACSet",
      "type": "event"
    },
    {
      "anonymous": false,
      "inputs": [
        {
          "indexed": true,
          "internalType": "address",
          "name": "recipient",
          "type": "address"
        },
        {
          "indexed": false,
          "internalType": "uint256",
          "name": "amount",
          "type": "uint256"
        }
      ],
      "name": "FundsWithdrawn",
      "type": "event"
    },
    {
      "anonymous": false,
      "inputs": [
        {
          "indexed": false,
          "internalType": "uint256",
          "name": "gasEstimate",
          "type": "uint256"
        },
        {
          "indexed": true,
          "internalType": "address",
          "name": "gasPriceL1Feed",
          "type": "address"
        },
        {
          "indexed": false,
          "internalType": "uint32",
          "name": "gasAdjustment",
          "type": "uint32"
        }
      ],
      "name": "GasConfigSet",
      "type": "event"
    },
    {
      "anonymous": false,
      "inputs": [
        {
          "indexed": true,
          "internalType": "address",
          "name": "from",
          "type": "address"
        },
        {
          "indexed": true,
          "internalType": "address",
          "name": "to",
          "type": "address"
        }
      ],
      "name": "OwnershipTransferRequested",
      "type": "event"
    },
    {
      "anonymous": false,
      "inputs": [
        {
          "indexed": true,
          "internalType": "address",
          "name": "from",
          "type": "address"
        },
        {
          "indexed": true,
          "internalType": "address",
          "name": "to",
          "type": "address"
        }
      ],
      "name": "OwnershipTransferred",
      "type": "event"
    },
    {
      "anonymous": false,
      "inputs": [
        {
          "indexed": false,
          "internalType": "address",
          "name": "user",
          "type": "address"
        }
      ],
      "name": "RemovedAccess",
      "type": "event"
    },
    {
      "anonymous": false,
      "inputs": [
        {
          "indexed": true,
          "internalType": "address",
          "name": "previous",
          "type": "address"
        },
        {
          "indexed": true,
          "internalType": "address",
          "name": "current",
          "type": "address"
        }
      ],
      "name": "SourceAggregatorSet",
      "type": "event"
    },
    {
      "inputs": [],
      "name": "L2_UPTIME_FEED_ADDR",
      "outputs": [
        {
          "internalType": "uint256",
          "name": "",
          "type": "uint256"
        }
      ],
      "stateMutability": "view",
      "type": "function"
    },
    {
      "inputs": [],
      "name": "SELECTOR_STARK_UPDATE_STATUS",
      "outputs": [
        {
          "internalType": "uint256",
          "name": "",
          "type": "uint256"
        }
      ],
      "stateMutability": "view",
      "type": "function"
    },
    {
      "inputs": [],
      "name": "STARKNET_CROSS_DOMAIN_MESSENGER",
      "outputs": [
        {
          "internalType": "contract IStarknetMessaging",
          "name": "",
          "type": "address"
        }
      ],
      "stateMutability": "view",
      "type": "function"
    },
    {
      "inputs": [],
      "name": "acceptOwnership",
      "outputs": [],
      "stateMutability": "nonpayable",
      "type": "function"
    },
    {
      "inputs": [
        {
          "internalType": "address",
          "name": "_user",
          "type": "address"
        }
      ],
      "name": "addAccess",
      "outputs": [],
      "stateMutability": "nonpayable",
      "type": "function"
    },
    {
      "inputs": [],
      "name": "approximateGasPrice",
      "outputs": [
        {
          "internalType": "uint256",
          "name": "",
          "type": "uint256"
        }
      ],
      "stateMutability": "view",
      "type": "function"
    },
    {
      "inputs": [],
      "name": "checkEnabled",
      "outputs": [
        {
          "internalType": "bool",
          "name": "",
          "type": "bool"
        }
      ],
      "stateMutability": "view",
      "type": "function"
    },
    {
      "inputs": [],
      "name": "disableAccessCheck",
      "outputs": [],
      "stateMutability": "nonpayable",
      "type": "function"
    },
    {
      "inputs": [],
      "name": "enableAccessCheck",
      "outputs": [],
      "stateMutability": "nonpayable",
      "type": "function"
    },
    {
      "inputs": [],
      "name": "getConfigAC",
      "outputs": [
        {
          "internalType": "address",
          "name": "",
          "type": "address"
        }
      ],
      "stateMutability": "view",
      "type": "function"
    },
    {
      "inputs": [],
      "name": "getGasConfig",
      "outputs": [
        {
          "components": [
            {
              "internalType": "uint256",
              "name": "gasEstimate",
              "type": "uint256"
            },
            {
              "internalType": "address",
              "name": "gasPriceL1Feed",
              "type": "address"
            },
            {
              "internalType": "uint32",
              "name": "gasAdjustment",
              "type": "uint32"
            }
          ],
          "internalType": "struct StarknetValidator.GasConfig",
          "name": "",
          "type": "tuple"
        }
      ],
      "stateMutability": "view",
      "type": "function"
    },
    {
      "inputs": [],
      "name": "getSourceAggregator",
      "outputs": [
        {
          "internalType": "address",
          "name": "",
          "type": "address"
        }
      ],
      "stateMutability": "view",
      "type": "function"
    },
    {
      "inputs": [
        {
          "internalType": "address",
          "name": "_user",
          "type": "address"
        },
        {
          "internalType": "bytes",
          "name": "",
          "type": "bytes"
        }
      ],
      "name": "hasAccess",
      "outputs": [
        {
          "internalType": "bool",
          "name": "",
          "type": "bool"
        }
      ],
      "stateMutability": "view",
      "type": "function"
    },
    {
      "inputs": [],
      "name": "owner",
      "outputs": [
        {
          "internalType": "address",
          "name": "",
          "type": "address"
        }
      ],
      "stateMutability": "view",
      "type": "function"
    },
    {
      "inputs": [
        {
          "internalType": "address",
          "name": "_user",
          "type": "address"
        }
      ],
      "name": "removeAccess",
      "outputs": [],
      "stateMutability": "nonpayable",
      "type": "function"
    },
    {
      "inputs": [],
      "name": "retry",
      "outputs": [
        {
          "internalType": "bool",
          "name": "",
          "type": "bool"
        }
      ],
      "stateMutability": "nonpayable",
      "type": "function"
    },
    {
      "inputs": [
        {
          "internalType": "address",
          "name": "accessController",
          "type": "address"
        }
      ],
      "name": "setConfigAC",
      "outputs": [],
      "stateMutability": "nonpayable",
      "type": "function"
    },
    {
      "inputs": [
        {
          "internalType": "uint256",
          "name": "gasEstimate",
          "type": "uint256"
        },
        {
          "internalType": "address",
          "name": "gasPriceL1Feed",
          "type": "address"
        },
        {
          "internalType": "uint32",
          "name": "gasAdjustment",
          "type": "uint32"
        }
      ],
      "name": "setGasConfig",
      "outputs": [],
      "stateMutability": "nonpayable",
      "type": "function"
    },
    {
      "inputs": [
        {
          "internalType": "address",
          "name": "source",
          "type": "address"
        }
      ],
      "name": "setSourceAggregator",
      "outputs": [],
      "stateMutability": "nonpayable",
      "type": "function"
    },
    {
      "inputs": [
        {
          "internalType": "address",
          "name": "to",
          "type": "address"
        }
      ],
      "name": "transferOwnership",
      "outputs": [],
      "stateMutability": "nonpayable",
      "type": "function"
    },
    {
      "inputs": [],
      "name": "typeAndVersion",
      "outputs": [
        {
          "internalType": "string",
          "name": "",
          "type": "string"
        }
      ],
      "stateMutability": "pure",
      "type": "function"
    },
    {
      "inputs": [
        {
          "internalType": "uint256",
          "name": "",
          "type": "uint256"
        },
        {
          "internalType": "int256",
          "name": "",
          "type": "int256"
        },
        {
          "internalType": "uint256",
          "name": "",
          "type": "uint256"
        },
        {
          "internalType": "int256",
          "name": "currentAnswer",
          "type": "int256"
        }
      ],
      "name": "validate",
      "outputs": [
        {
          "internalType": "bool",
          "name": "",
          "type": "bool"
        }
      ],
      "stateMutability": "nonpayable",
      "type": "function"
    },
    {
      "inputs": [],
      "name": "withdrawFunds",
      "outputs": [],
      "stateMutability": "nonpayable",
      "type": "function"
    },
    {
      "inputs": [
        {
          "internalType": "address payable",
          "name": "recipient",
          "type": "address"
        }
      ],
      "name": "withdrawFundsTo",
      "outputs": [],
      "stateMutability": "nonpayable",
      "type": "function"
    },
    {
      "stateMutability": "payable",
      "type": "receive"
    }
  ],
  "bytecode": "0x610120604052600d60e09081526c7570646174655f73746174757360981b610100526200002c906200018b565b6080523480156200003c57600080fd5b5060405162001f6e38038062001f6e8339810160408190526200005f9162000445565b3380600081620000b65760405162461bcd60e51b815260206004820152601860248201527f43616e6e6f7420736574206f776e657220746f207a65726f000000000000000060448201526064015b60405180910390fd5b600080546001600160a01b0319166001600160a01b0384811691909117909155811615620000e957620000e981620001d2565b50506001805460ff60a01b1916600160a01b179055506001600160a01b03871662000127576040516380d0cc4760e01b815260040160405180910390fd5b8260000362000149576040516340507b9360e11b815260040160405180910390fd5b6001600160a01b03871660c05260a083905262000166846200027d565b62000171866200030f565b6200017e82868362000378565b5050505050505062000535565b60008082604051602001620001a19190620004d4565b60408051601f1981840301815291905280516020909101209050620001cb600160fa1b8262000512565b9392505050565b336001600160a01b038216036200022c5760405162461bcd60e51b815260206004820152601760248201527f43616e6e6f74207472616e7366657220746f2073656c660000000000000000006044820152606401620000ad565b600180546001600160a01b0319166001600160a01b0383811691821790925560008054604051929316917fed8889f560326eb138920d842192f0eb3dd22b4f139c87a2c57538e05bae12789190a350565b6001600160a01b038116620002a55760405163012ba50d60e51b815260040160405180910390fd5b6003546001600160a01b0390811690821681146200030b57600380546001600160a01b0319166001600160a01b0384811691821790925560405190918316907f5096ba7c83970476520960b162504c4cb0bf39b3388cf27a24a44acadb18f0f790600090a35b5050565b6004546001600160a01b0390811690821681146200030b57600480546001600160a01b0319166001600160a01b0384811691821790925560405190918316907f6b0ce63879b19fa36f93da30a36f44140d8c3c727b6c75a16165c2017037d2cc90600090a35050565b6001600160a01b038216620003a05760405163694f903760e11b815260040160405180910390fd5b604080516060810182528481526001600160a01b038416602080830182905263ffffffff85169284018390526005879055600680546001600160c01b0319168317600160a01b8502179055835187815290810192909252917f839a37b5b1cd70bfbeb28899e2ab5fe4cddb2731435190bd54f2e2924b84b77b910160405180910390a2505050565b80516001600160a01b03811681146200044057600080fd5b919050565b600080600080600080600060e0888a0312156200046157600080fd5b6200046c8862000428565b96506200047c6020890162000428565b95506200048c6040890162000428565b94506200049c6060890162000428565b93506080880151925060a0880151915060c088015163ffffffff81168114620004c457600080fd5b8091505092959891949750929550565b6000825160005b81811015620004f75760208186018101518583015201620004db565b8181111562000507576000828501525b509190910192915050565b6000826200053057634e487b7160e01b600052601260045260246000fd5b500690565b60805160a05160c0516119f46200057a60003960008181610585015261119901526000818161023501526111c80152600081816102d801526111ea01526119f46000f3fe60806040526004361061018f5760003560e01c80638823da6c116100d6578063dc7f01241161007f578063f6d6379011610059578063f6d6379014610573578063fae8fb2c146105a7578063fe212f7d146105bc57600080fd5b8063dc7f012414610501578063ec86b00c14610533578063f2fde38b1461055357600080fd5b8063a2e6e0eb116100b0578063a2e6e0eb14610496578063beed9b51146104b6578063cfc6ab87146104d657600080fd5b80638823da6c1461042b5780638da5cb5b1461044b578063a118f2491461047657600080fd5b80632eef1711116101385780636b14daf8116101125780636b14daf8146103d157806379ba5097146104015780638038e4a11461041657600080fd5b80632eef1711146102c65780634b5c54c0146102fa5780636242a62d146103bc57600080fd5b8063122555ff11610169578063122555ff14610223578063181f5a771461026557806324600fc3146102b157600080fd5b806302163e6c1461019b5780630a756983146101bd5780631108d587146101d257600080fd5b3661019657005b600080fd5b3480156101a757600080fd5b506101bb6101b6366004611587565b6105dc565b005b3480156101c957600080fd5b506101bb6105f0565b3480156101de57600080fd5b5060045473ffffffffffffffffffffffffffffffffffffffff165b60405173ffffffffffffffffffffffffffffffffffffffff90911681526020015b60405180910390f35b34801561022f57600080fd5b506102577f000000000000000000000000000000000000000000000000000000000000000081565b60405190815260200161021a565b34801561027157600080fd5b50604080518082018252601781527f537461726b6e657456616c696461746f7220302e312e300000000000000000006020820152905161021a91906115a4565b3480156102bd57600080fd5b506101bb61066f565b3480156102d257600080fd5b506102577f000000000000000000000000000000000000000000000000000000000000000081565b34801561030657600080fd5b5061037e60408051606081018252600080825260208201819052918101919091525060408051606081018252600554815260065473ffffffffffffffffffffffffffffffffffffffff8116602083015274010000000000000000000000000000000000000000900463ffffffff169181019190915290565b604080518251815260208084015173ffffffffffffffffffffffffffffffffffffffff16908201529181015163ffffffff169082015260600161021a565b3480156103c857600080fd5b506102576106d7565b3480156103dd57600080fd5b506103f16103ec366004611646565b6107b4565b604051901515815260200161021a565b34801561040d57600080fd5b506101bb61080a565b34801561042257600080fd5b506101bb61090c565b34801561043757600080fd5b506101bb610446366004611587565b6109a0565b34801561045757600080fd5b5060005473ffffffffffffffffffffffffffffffffffffffff166101f9565b34801561048257600080fd5b506101bb610491366004611587565b610a59565b3480156104a257600080fd5b506101bb6104b1366004611587565b610b0d565b3480156104c257600080fd5b506103f16104d1366004611728565b610b20565b3480156104e257600080fd5b5060035473ffffffffffffffffffffffffffffffffffffffff166101f9565b34801561050d57600080fd5b506001546103f19074010000000000000000000000000000000000000000900460ff1681565b34801561053f57600080fd5b506101bb61054e366004611587565b610bdb565b34801561055f57600080fd5b506101bb61056e366004611587565b610bec565b34801561057f57600080fd5b506101f97f000000000000000000000000000000000000000000000000000000000000000081565b3480156105b357600080fd5b506103f1610bfd565b3480156105c857600080fd5b506101bb6105d736600461175a565b610d49565b6105e4610e72565b6105ed81610ef3565b50565b6105f8610e72565b60015474010000000000000000000000000000000000000000900460ff161561066d57600180547fffffffffffffffffffffff00ffffffffffffffffffffffffffffffffffffffff1690556040517f3be8a977a014527b50ae38adda80b56911c267328965c98ddc385d248f53963890600090a15b565b610677610e72565b33476106838282610f8e565b8173ffffffffffffffffffffffffffffffffffffffff167feaff4b37086828766ad3268786972c0cd24259d4c87a80f9d3963a3c3d999b0d826040516106cb91815260200190565b60405180910390a25050565b600080600560010160009054906101000a900473ffffffffffffffffffffffffffffffffffffffff1673ffffffffffffffffffffffffffffffffffffffff1663feaf968c6040518163ffffffff1660e01b815260040160a060405180830381865afa15801561074a573d6000803e3d6000fd5b505050506040513d601f19601f8201168201806040525081019061076e91906117c4565b5050600654919350606492506107a49174010000000000000000000000000000000000000000900463ffffffff16905083611814565b6107ae9190611878565b91505090565b73ffffffffffffffffffffffffffffffffffffffff821660009081526002602052604081205460ff1680610803575060015474010000000000000000000000000000000000000000900460ff16155b9392505050565b60015473ffffffffffffffffffffffffffffffffffffffff163314610890576040517f08c379a000000000000000000000000000000000000000000000000000000000815260206004820152601660248201527f4d7573742062652070726f706f736564206f776e65720000000000000000000060448201526064015b60405180910390fd5b60008054337fffffffffffffffffffffffff00000000000000000000000000000000000000008083168217845560018054909116905560405173ffffffffffffffffffffffffffffffffffffffff90921692909183917f8be0079c531659141344cd1fd0a4f28419497f9722a3daafe3b4186f6b6457e091a350565b610914610e72565b60015474010000000000000000000000000000000000000000900460ff1661066d57600180547fffffffffffffffffffffff00ffffffffffffffffffffffffffffffffffffffff16740100000000000000000000000000000000000000001790556040517faebf329500988c6488a0074e5a0a9ff304561fc5c6fc877aeb1d59c8282c348090600090a1565b6109a8610e72565b73ffffffffffffffffffffffffffffffffffffffff811660009081526002602052604090205460ff16156105ed5773ffffffffffffffffffffffffffffffffffffffff811660008181526002602090815260409182902080547fffffffffffffffffffffffffffffffffffffffffffffffffffffffffffffff0016905590519182527f3d68a6fce901d20453d1a7aa06bf3950302a735948037deb182a8db66df2a0d191015b60405180910390a150565b610a61610e72565b73ffffffffffffffffffffffffffffffffffffffff811660009081526002602052604090205460ff166105ed5773ffffffffffffffffffffffffffffffffffffffff811660008181526002602090815260409182902080547fffffffffffffffffffffffffffffffffffffffffffffffffffffffffffffff0016600117905590519182527f87286ad1f399c8e82bf0c4ef4fcdc570ea2e1e92176e5c848b6413545b885db49101610a4e565b610b15610e72565b476106838282610f8e565b6000610b63336000368080601f0160208091040260200160405190810160405280939291908181526020018383808284376000920191909152506107b492505050565b610bc9576040517f08c379a000000000000000000000000000000000000000000000000000000000815260206004820152600960248201527f4e6f2061636365737300000000000000000000000000000000000000000000006044820152606401610887565b610bd2826110e8565b95945050505050565b610be3610e72565b6105ed81611263565b610bf4610e72565b6105ed8161134a565b6000610c40336000368080601f0160208091040260200160405190810160405280939291908181526020018383808284376000920191909152506107b492505050565b610ca6576040517f08c379a000000000000000000000000000000000000000000000000000000000815260206004820152600960248201527f4e6f2061636365737300000000000000000000000000000000000000000000006044820152606401610887565b600354604080517ffeaf968c000000000000000000000000000000000000000000000000000000008152905160009273ffffffffffffffffffffffffffffffffffffffff169163feaf968c9160048083019260a09291908290030181865afa158015610d16573d6000803e3d6000fd5b505050506040513d601f19601f82011682018060405250810190610d3a91906117c4565b5050509150506107ae816110e8565b60005473ffffffffffffffffffffffffffffffffffffffff163314801590610e2b575060045473ffffffffffffffffffffffffffffffffffffffff1615801590610e2b5750600480546040517f6b14daf800000000000000000000000000000000000000000000000000000000815273ffffffffffffffffffffffffffffffffffffffff90911691636b14daf891610de89133916000913691016118b3565b602060405180830381865afa158015610e05573d6000803e3d6000fd5b505050506040513d601f19601f82011682018060405250810190610e29919061191d565b155b15610e62576040517fef67f5d800000000000000000000000000000000000000000000000000000000815260040160405180910390fd5b610e6d83838361143f565b505050565b60005473ffffffffffffffffffffffffffffffffffffffff16331461066d576040517f08c379a000000000000000000000000000000000000000000000000000000000815260206004820152601660248201527f4f6e6c792063616c6c61626c65206279206f776e6572000000000000000000006044820152606401610887565b60045473ffffffffffffffffffffffffffffffffffffffff9081169082168114610f8a57600480547fffffffffffffffffffffffff00000000000000000000000000000000000000001673ffffffffffffffffffffffffffffffffffffffff84811691821790925560405190918316907f6b0ce63879b19fa36f93da30a36f44140d8c3c727b6c75a16165c2017037d2cc90600090a35b5050565b80471015610ff8576040517f08c379a000000000000000000000000000000000000000000000000000000000815260206004820152601d60248201527f416464726573733a20696e73756666696369656e742062616c616e63650000006044820152606401610887565b60008273ffffffffffffffffffffffffffffffffffffffff168260405160006040518083038185875af1925050503d8060008114611052576040519150601f19603f3d011682016040523d82523d6000602084013e611057565b606091505b5050905080610e6d576040517f08c379a000000000000000000000000000000000000000000000000000000000815260206004820152603a60248201527f416464726573733a20756e61626c6520746f2073656e642076616c75652c207260448201527f6563697069656e74206d617920686176652072657665727465640000000000006064820152608401610887565b6000806110f361154a565b60408051600280825260608201835292935060009290916020830190803683370190505090506001841480826000815181106111315761113161193f565b60200260200101818152505042826001815181106111515761115161193f565b60209081029190910101526040517f3e3aa6c500000000000000000000000000000000000000000000000000000000815273ffffffffffffffffffffffffffffffffffffffff7f00000000000000000000000000000000000000000000000000000000000000001690633e3aa6c5908590611214907f0000000000000000000000000000000000000000000000000000000000000000907f000000000000000000000000000000000000000000000000000000000000000090889060040161196e565b604080518083038185885af1158015611231573d6000803e3d6000fd5b50505050506040513d601f19601f8201168201806040525081019061125691906119c3565b5060019695505050505050565b73ffffffffffffffffffffffffffffffffffffffff81166112b0576040517f2574a1a000000000000000000000000000000000000000000000000000000000815260040160405180910390fd5b60035473ffffffffffffffffffffffffffffffffffffffff9081169082168114610f8a57600380547fffffffffffffffffffffffff00000000000000000000000000000000000000001673ffffffffffffffffffffffffffffffffffffffff84811691821790925560405190918316907f5096ba7c83970476520960b162504c4cb0bf39b3388cf27a24a44acadb18f0f790600090a35050565b3373ffffffffffffffffffffffffffffffffffffffff8216036113c9576040517f08c379a000000000000000000000000000000000000000000000000000000000815260206004820152601760248201527f43616e6e6f74207472616e7366657220746f2073656c660000000000000000006044820152606401610887565b600180547fffffffffffffffffffffffff00000000000000000000000000000000000000001673ffffffffffffffffffffffffffffffffffffffff83811691821790925560008054604051929316917fed8889f560326eb138920d842192f0eb3dd22b4f139c87a2c57538e05bae12789190a350565b73ffffffffffffffffffffffffffffffffffffffff821661148c576040517fd29f206e00000000000000000000000000000000000000000000000000000000815260040160405180910390fd5b6040805160608101825284815273ffffffffffffffffffffffffffffffffffffffff8416602080830182905263ffffffff85169284018390526005879055600680547fffffffffffffffff000000000000000000000000000000000000000000000000168317740100000000000000000000000000000000000000008502179055835187815290810192909252917f839a37b5b1cd70bfbeb28899e2ab5fe4cddb2731435190bd54f2e2924b84b77b910160405180910390a2505050565b6000806115556106d7565b6005549091506107ae9082611814565b73ffffffffffffffffffffffffffffffffffffffff811681146105ed57600080fd5b60006020828403121561159957600080fd5b813561080381611565565b600060208083528351808285015260005b818110156115d1578581018301518582016040015282016115b5565b818111156115e3576000604083870101525b50601f017fffffffffffffffffffffffffffffffffffffffffffffffffffffffffffffffe016929092016040019392505050565b7f4e487b7100000000000000000000000000000000000000000000000000000000600052604160045260246000fd5b6000806040838503121561165957600080fd5b823561166481611565565b9150602083013567ffffffffffffffff8082111561168157600080fd5b818501915085601f83011261169557600080fd5b8135818111156116a7576116a7611617565b604051601f82017fffffffffffffffffffffffffffffffffffffffffffffffffffffffffffffffe0908116603f011681019083821181831017156116ed576116ed611617565b8160405282815288602084870101111561170657600080fd5b8260208601602083013760006020848301015280955050505050509250929050565b6000806000806080858703121561173e57600080fd5b5050823594602084013594506040840135936060013592509050565b60008060006060848603121561176f57600080fd5b83359250602084013561178181611565565b9150604084013563ffffffff8116811461179a57600080fd5b809150509250925092565b805169ffffffffffffffffffff811681146117bf57600080fd5b919050565b600080600080600060a086880312156117dc57600080fd5b6117e5866117a5565b9450602086015193506040860151925060608601519150611808608087016117a5565b90509295509295909350565b6000817fffffffffffffffffffffffffffffffffffffffffffffffffffffffffffffffff0483118215151615611873577f4e487b7100000000000000000000000000000000000000000000000000000000600052601160045260246000fd5b500290565b6000826118ae577f4e487b7100000000000000000000000000000000000000000000000000000000600052601260045260246000fd5b500490565b73ffffffffffffffffffffffffffffffffffffffff8416815260406020820152816040820152818360608301376000818301606090810191909152601f9092017fffffffffffffffffffffffffffffffffffffffffffffffffffffffffffffffe016010192915050565b60006020828403121561192f57600080fd5b8151801515811461080357600080fd5b7f4e487b7100000000000000000000000000000000000000000000000000000000600052603260045260246000fd5b6000606082018583526020858185015260606040850152818551808452608086019150828701935060005b818110156119b557845183529383019391830191600101611999565b509098975050505050505050565b600080604083850312156119d657600080fd5b50508051602090910151909290915056fea164736f6c634300080f000a",
  "linkReferences": {},
  "deployedLinkReferences": {}
}