{
  "_format": "hh-sol-artifact-1",
  "contractName": "StarknetMessaging",
  "sourceName": "vendor/starkware-libs/cairo-lang/src/starkware/starknet/solidity/StarknetMessaging.sol",
  "abi": [
    {
      "anonymous": false,
      "inputs": [
        {
          "indexed": true,
          "internalType": "uint256",
          "name": "fromAddress",
          "type": "uint256"
        },
        {
          "indexed": true,
          "internalType": "address",
          "name": "toAddress",
          "type": "address"
        },
        {
          "indexed": false,
          "internalType": "uint256[]",
          "name": "payload",
          "type": "uint256[]"
        }
      ],
      "name": "ConsumedMessageToL1",
      "type": "event"
    },
    {
      "anonymous": false,
      "inputs": [
        {
          "indexed": true,
          "internalType": "address",
          "name": "fromAddress",
          "type": "address"
        },
        {
          "indexed": true,
          "internalType": "uint256",
          "name": "toAddress",
          "type": "uint256"
        },
        {
          "indexed": true,
          "internalType": "uint256",
          "name": "selector",
          "type": "uint256"
        },
        {
          "indexed": false,
          "internalType": "uint256[]",
          "name": "payload",
          "type": "uint256[]"
        },
        {
          "indexed": false,
          "internalType": "uint256",
          "name": "nonce",
          "type": "uint256"
        }
      ],
      "name": "ConsumedMessageToL2",
      "type": "event"
    },
    {
      "anonymous": false,
      "inputs": [
        {
          "indexed": true,
          "internalType": "uint256",
          "name": "fromAddress",
          "type": "uint256"
        },
        {
          "indexed": true,
          "internalType": "address",
          "name": "toAddress",
          "type": "address"
        },
        {
          "indexed": false,
          "internalType": "uint256[]",
          "name": "payload",
          "type": "uint256[]"
        }
      ],
      "name": "LogMessageToL1",
      "type": "event"
    },
    {
      "anonymous": false,
      "inputs": [
        {
          "indexed": true,
          "internalType": "address",
          "name": "fromAddress",
          "type": "address"
        },
        {
          "indexed": true,
          "internalType": "uint256",
          "name": "toAddress",
          "type": "uint256"
        },
        {
          "indexed": true,
          "internalType": "uint256",
          "name": "selector",
          "type": "uint256"
        },
        {
          "indexed": false,
          "internalType": "uint256[]",
          "name": "payload",
          "type": "uint256[]"
        },
        {
          "indexed": false,
          "internalType": "uint256",
          "name": "nonce",
          "type": "uint256"
        },
        {
          "indexed": false,
          "internalType": "uint256",
          "name": "fee",
          "type": "uint256"
        }
      ],
      "name": "LogMessageToL2",
      "type": "event"
    },
    {
      "anonymous": false,
      "inputs": [
        {
          "indexed": true,
          "internalType": "address",
          "name": "fromAddress",
          "type": "address"
        },
        {
          "indexed": true,
          "internalType": "uint256",
          "name": "toAddress",
          "type": "uint256"
        },
        {
          "indexed": true,
          "internalType": "uint256",
          "name": "selector",
          "type": "uint256"
        },
        {
          "indexed": false,
          "internalType": "uint256[]",
          "name": "payload",
          "type": "uint256[]"
        },
        {
          "indexed": false,
          "internalType": "uint256",
          "name": "nonce",
          "type": "uint256"
        }
      ],
      "name": "MessageToL2Canceled",
      "type": "event"
    },
    {
      "anonymous": false,
      "inputs": [
        {
          "indexed": true,
          "internalType": "address",
          "name": "fromAddress",
          "type": "address"
        },
        {
          "indexed": true,
          "internalType": "uint256",
          "name": "toAddress",
          "type": "uint256"
        },
        {
          "indexed": true,
          "internalType": "uint256",
          "name": "selector",
          "type": "uint256"
        },
        {
          "indexed": false,
          "internalType": "uint256[]",
          "name": "payload",
          "type": "uint256[]"
        },
        {
          "indexed": false,
          "internalType": "uint256",
          "name": "nonce",
          "type": "uint256"
        }
      ],
      "name": "MessageToL2CancellationStarted",
      "type": "event"
    },
    {
      "inputs": [
        {
          "internalType": "uint256",
          "name": "toAddress",
          "type": "uint256"
        },
        {
          "internalType": "uint256",
          "name": "selector",
          "type": "uint256"
        },
        {
          "internalType": "uint256[]",
          "name": "payload",
          "type": "uint256[]"
        },
        {
          "internalType": "uint256",
          "name": "nonce",
          "type": "uint256"
        }
      ],
      "name": "cancelL1ToL2Message",
      "outputs": [
        {
          "internalType": "bytes32",
          "name": "",
          "type": "bytes32"
        }
      ],
      "stateMutability": "nonpayable",
      "type": "function"
    },
    {
      "inputs": [
        {
          "internalType": "uint256",
          "name": "fromAddress",
          "type": "uint256"
        },
        {
          "internalType": "uint256[]",
          "name": "payload",
          "type": "uint256[]"
        }
      ],
      "name": "consumeMessageFromL2",
      "outputs": [
        {
          "internalType": "bytes32",
          "name": "",
          "type": "bytes32"
        }
      ],
      "stateMutability": "nonpayable",
      "type": "function"
    },
    {
      "inputs": [],
      "name": "getMaxL1MsgFee",
      "outputs": [
        {
          "internalType": "uint256",
          "name": "",
          "type": "uint256"
        }
      ],
      "stateMutability": "pure",
      "type": "function"
    },
    {
      "inputs": [
        {
          "internalType": "bytes32",
          "name": "msgHash",
          "type": "bytes32"
        }
      ],
      "name": "l1ToL2MessageCancellations",
      "outputs": [
        {
          "internalType": "uint256",
          "name": "",
          "type": "uint256"
        }
      ],
      "stateMutability": "view",
      "type": "function"
    },
    {
      "inputs": [],
      "name": "l1ToL2MessageNonce",
      "outputs": [
        {
          "internalType": "uint256",
          "name": "",
          "type": "uint256"
        }
      ],
      "stateMutability": "view",
      "type": "function"
    },
    {
      "inputs": [
        {
          "internalType": "bytes32",
          "name": "msgHash",
          "type": "bytes32"
        }
      ],
      "name": "l1ToL2Messages",
      "outputs": [
        {
          "internalType": "uint256",
          "name": "",
          "type": "uint256"
        }
      ],
      "stateMutability": "view",
      "type": "function"
    },
    {
      "inputs": [
        {
          "internalType": "bytes32",
          "name": "msgHash",
          "type": "bytes32"
        }
      ],
      "name": "l2ToL1Messages",
      "outputs": [
        {
          "internalType": "uint256",
          "name": "",
          "type": "uint256"
        }
      ],
      "stateMutability": "view",
      "type": "function"
    },
    {
      "inputs": [],
      "name": "messageCancellationDelay",
      "outputs": [
        {
          "internalType": "uint256",
          "name": "",
          "type": "uint256"
        }
      ],
      "stateMutability": "view",
      "type": "function"
    },
    {
      "inputs": [
        {
          "internalType": "uint256",
          "name": "toAddress",
          "type": "uint256"
        },
        {
          "internalType": "uint256",
          "name": "selector",
          "type": "uint256"
        },
        {
          "internalType": "uint256[]",
          "name": "payload",
          "type": "uint256[]"
        }
      ],
      "name": "sendMessageToL2",
      "outputs": [
        {
          "internalType": "bytes32",
          "name": "",
          "type": "bytes32"
        },
        {
          "internalType": "uint256",
          "name": "",
          "type": "uint256"
        }
      ],
      "stateMutability": "payable",
      "type": "function"
    },
    {
      "inputs": [
        {
          "internalType": "uint256",
          "name": "toAddress",
          "type": "uint256"
        },
        {
          "internalType": "uint256",
          "name": "selector",
          "type": "uint256"
        },
        {
          "internalType": "uint256[]",
          "name": "payload",
          "type": "uint256[]"
        },
        {
          "internalType": "uint256",
          "name": "nonce",
          "type": "uint256"
        }
      ],
      "name": "startL1ToL2MessageCancellation",
      "outputs": [
        {
          "internalType": "bytes32",
          "name": "",
          "type": "bytes32"
        }
      ],
      "stateMutability": "nonpayable",
      "type": "function"
    }
  ],
  "bytecode": "0x608060405234801561001057600080fd5b50610f25806100206000396000f3fe6080604052600436106100b15760003560e01c806377c7d7a9116100695780638303bd8a1161004e5780638303bd8a146101a15780639be446bf146101b6578063a46efaf3146101d657600080fd5b806377c7d7a9146101615780637a98660b1461018157600080fd5b80633e3aa6c51161009a5780633e3aa6c5146100fe57806354eccba4146101265780636170ff1b1461014157600080fd5b8063018cccdf146100b65780632c9dd5c0146100de575b600080fd5b3480156100c257600080fd5b506100cb6101f6565b6040519081526020015b60405180910390f35b3480156100ea57600080fd5b506100cb6100f9366004610b68565b61023b565b61011161010c366004610bb4565b610380565b604080519283526020830191909152016100d5565b34801561013257600080fd5b50670de0b6b3a76400006100cb565b34801561014d57600080fd5b506100cb61015c366004610c07565b610572565b34801561016d57600080fd5b506100cb61017c366004610c62565b610840565b34801561018d57600080fd5b506100cb61019c366004610c07565b61085b565b3480156101ad57600080fd5b506100cb610969565b3480156101c257600080fd5b506100cb6101d1366004610c62565b61098c565b3480156101e257600080fd5b506100cb6101f1366004610c62565b610996565b60006102366040518060400160405280602081526020017f535441524b4e45545f312e305f4d5347494e475f4c31544f4c325f4e4f4e43458152506109a0565b905090565b60405160009081906102599086903390869088908290602001610cc1565b604051602081830303815290604052805190602001209050600061027b6109f2565b60008381526020919091526040902054116102f7576040517f08c379a000000000000000000000000000000000000000000000000000000000815260206004820152601a60248201527f494e56414c49445f4d4553534147455f544f5f434f4e53554d4500000000000060448201526064015b60405180910390fd5b3373ffffffffffffffffffffffffffffffffffffffff16857f7a06c571aa77f34d9706c51e5d8122b5595aebeaa34233bfe866f22befb973b18686604051610340929190610d3a565b60405180910390a360016103526109f2565b600083815260200190815260200160002060008282546103729190610d85565b909155509095945050505050565b60008060003411610413576040517f08c379a000000000000000000000000000000000000000000000000000000000815260206004820152602160248201527f4c315f4d53475f4645455f4d5553545f42455f475245415445525f5448414e5f60448201527f300000000000000000000000000000000000000000000000000000000000000060648201526084016102ee565b670de0b6b3a7640000341115610485576040517f08c379a000000000000000000000000000000000000000000000000000000000815260206004820152601760248201527f4d41585f4c315f4d53475f4645455f455843454544454400000000000000000060448201526064016102ee565b600061048f6101f6565b90506104dc6040518060400160405280602081526020017f535441524b4e45545f312e305f4d5347494e475f4c31544f4c325f4e4f4e43458152508260016104d79190610d9c565b610a15565b85873373ffffffffffffffffffffffffffffffffffffffff167fdb80dd488acf86d17c747445b0eabb5d57c541d3bd7b6b87af987858e5066b2b8888863460405161052a9493929190610db4565b60405180910390a460006105418888888886610a48565b905061054e346001610d9c565b610556610a89565b6000838152602091909152604090205597909650945050505050565b600084863373ffffffffffffffffffffffffffffffffffffffff167f8abd2ec2e0a10c82f5b60ea00455fa96c41fd144f225fcc52b8d83d94f803ed88787876040516105c093929190610ddb565b60405180910390a460006105d78787878787610a48565b905060006105e3610a89565b60008381526020919091526040812054915081900361065e576040517f08c379a000000000000000000000000000000000000000000000000000000000815260206004820152601460248201527f4e4f5f4d4553534147455f544f5f43414e43454c00000000000000000000000060448201526064016102ee565b6000610668610aac565b600084815260209190915260408120549150819003610709576040517f08c379a000000000000000000000000000000000000000000000000000000000815260206004820152602260248201527f4d4553534147455f43414e43454c4c4154494f4e5f4e4f545f5245515545535460448201527f454400000000000000000000000000000000000000000000000000000000000060648201526084016102ee565b6000610713610969565b61071d9083610d9c565b905081811015610789576040517f08c379a000000000000000000000000000000000000000000000000000000000815260206004820152601c60248201527f43414e43454c5f414c4c4f5745445f54494d455f4f564552464c4f570000000060448201526064016102ee565b80421015610818576040517f08c379a0000000000000000000000000000000000000000000000000000000008152602060048201526024808201527f4d4553534147455f43414e43454c4c4154494f4e5f4e4f545f414c4c4f57454460448201527f5f5945540000000000000000000000000000000000000000000000000000000060648201526084016102ee565b6000610822610a89565b60008681526020919091526040902055509198975050505050505050565b600061084a610a89565b600092835260205250604090205490565b600084863373ffffffffffffffffffffffffffffffffffffffff167f2e00dccd686fd6823ec7dc3e125582aa82881b6ff5f6b5a73856e1ea8338a3be8787876040516108a993929190610ddb565b60405180910390a460006108c08787878787610a48565b905060006108cc610a89565b60008381526020919091526040902054905080610945576040517f08c379a000000000000000000000000000000000000000000000000000000000815260206004820152601460248201527f4e4f5f4d4553534147455f544f5f43414e43454c00000000000000000000000060448201526064016102ee565b4261094e610aac565b60008481526020919091526040902055509695505050505050565b60006102366040518060600160405280602d8152602001610ea3602d91396109a0565b600061084a610aac565b600061084a6109f2565b600080826040516020016109b49190610dff565b604080517fffffffffffffffffffffffffffffffffffffffffffffffffffffffffffffffe08184030181529190528051602090910120549392505050565b6000610236604051806060016040528060238152602001610ed060239139610acb565b600082604051602001610a289190610dff565b604051602081830303815290604052805190602001209050818155505050565b604051600090610a6890339088908590899088908a908290602001610e3a565b60405160208183030381529060405280519060200120905095945050505050565b6000610236604051806060016040528060268152602001610ef360269139610acb565b6000610236604051806060016040528060308152602001610e73603091395b60008082604051602001610adf9190610dff565b604080517fffffffffffffffffffffffffffffffffffffffffffffffffffffffffffffffe081840301815291905280516020909101209392505050565b60008083601f840112610b2e57600080fd5b50813567ffffffffffffffff811115610b4657600080fd5b6020830191508360208260051b8501011115610b6157600080fd5b9250929050565b600080600060408486031215610b7d57600080fd5b83359250602084013567ffffffffffffffff811115610b9b57600080fd5b610ba786828701610b1c565b9497909650939450505050565b60008060008060608587031215610bca57600080fd5b8435935060208501359250604085013567ffffffffffffffff811115610bef57600080fd5b610bfb87828801610b1c565b95989497509550505050565b600080600080600060808688031215610c1f57600080fd5b8535945060208601359350604086013567ffffffffffffffff811115610c4457600080fd5b610c5088828901610b1c565b96999598509660600135949350505050565b600060208284031215610c7457600080fd5b5035919050565b60007f07ffffffffffffffffffffffffffffffffffffffffffffffffffffffffffffff831115610caa57600080fd5b8260051b8083863760009401938452509192915050565b8581528460208201528360408201526000610ce0606083018486610c7b565b979650505050505050565b81835260007f07ffffffffffffffffffffffffffffffffffffffffffffffffffffffffffffff831115610d1d57600080fd5b8260051b8083602087013760009401602001938452509192915050565b602081526000610d4e602083018486610ceb565b949350505050565b7f4e487b7100000000000000000000000000000000000000000000000000000000600052601160045260246000fd5b600082821015610d9757610d97610d56565b500390565b60008219821115610daf57610daf610d56565b500190565b606081526000610dc8606083018688610ceb565b6020830194909452506040015292915050565b604081526000610def604083018587610ceb565b9050826020830152949350505050565b6000825160005b81811015610e205760208186018101518583015201610e06565b81811115610e2f576000828501525b509190910192915050565b8781528660208201528560408201528460608201528360808201526000610e6560a083018486610c7b565b999850505050505050505056fe535441524b4e45545f312e305f4d5347494e475f4c31544f4c325f43414e43454c4c4154494f4e5f4d41505050494e47535441524b4e45545f312e305f4d5347494e475f4c31544f4c325f43414e43454c4c4154494f4e5f44454c4159535441524b4e45545f312e305f4d5347494e475f4c32544f4c315f4d41505050494e47535441524b4e45545f312e305f4d5347494e475f4c31544f4c325f4d41505050494e475f5632a164736f6c634300080f000a",
  "linkReferences": {},
  "deployedLinkReferences": {}
}